:020000040800F2
:100000000000012089290008D9290008D929000801
:10001000D9290008D9290008D929000800000000C2
:10002000000000000000000000000000D9290008C6
:10003000D929000800000000D92900083F1700084E
:10004000D9290008D9290008D9290008D929000888
:10005000D9290008D9290008351800083B180008DC
:1000600041180008471800084D180008D929000851
:10007000D9290008D9290008D9290008D929000858
:10008000D9290008D9290008D92900080000000052
:1000900000000000000000000000000053180008ED
:1000A00035150008AD14000849150008D1140008E2
:1000B000E5140008F91400080D150008D9290008F6
:1000C000D9290008D9290008D9290008D929000808
:1000D000D9290008592200087122000800000000F8
:1000E0007B180008D9290008D92900080000000061
:1000F000000000000000000000000000D9290008F6
:1001000000000000D929000821150008D92900089D
:1001100000000000000000000000000000000000DF
:10012000D9290008D9290008D9290008D9290008A7
:10013000D9290008000000000000000000000000B5
:10014000000000000000000000000000D9290008A5
:10015000D9290008D9290008D92900088D220008CA
:10016000D9290008D929000800000000000000007B
:10017000000000000000000000000000000000007F
:1001800000000000D9290008000000000000000065
:04019000D929000861
:10019400034613F8012B002AFBD1181A01387047C3
:1001A40053B94AB9002908BF00281CBF4FF0FF31DA
:1001B4004FF0FF3000F00CB8ADF1080C6DE904CE3F
:1001C40002F056FEDDF804E0DDE9022304B07047D6
:1001D400704700BF10B5054C237833B9044B13B1F5
:1001E4000448AFF300800123237010BD8000002079
:1001F400000000007431000808B5034B1BB103492B
:100204000348AFF3008008BD000000008400002014
:10021400743100082DE9F0471048114CDFF84C9078
:10022400DFF84C800F4F104E06224FF4165102F0A7
:1002340081FA04F1600A002554F8040B022102F04B
:10024400CBFB544509F8015B48F8045B47F8045BB1
:1002540006F8015BF0D1BDE8F08700BFFC02002086
:100264008C310008B40000209C00002074010020A0
:10027400140100202DE9F74F02F048FC2C4EDFF862
:10028400BCA0DFF8BC90DFF8BC802A4F05460024F0
:100294004FF0010B16F8013B012B224604F1010437
:1002A40017D0022B3CD03BB9386802F0F3FB18B9E5
:1002B40006F801BCCAF80050182C0AF1040A09F126
:1002C400040908F1010807F10407E3D103B0BDE80C
:1002D400F08FDAF80030EB1A312BEDD9386801923F
:1002E40002F0D8FBD0B9019A132A09D898F8003043
:1002F40033B1D9F8003042F20F72EB1A934209D9A4
:100304000D480A22214602F0E3FA0123C9F80050FD
:1003140088F80030022306F8013CCDE70023FAE711
:10032400386802F0B7FB0128C6D14FF00003F2E7AA
:10033400740100208C310008FC020020140100200C
:10034400B40000209C0000207047000038B50E4B1C
:100354001A784FF47A73B3FBF2F30C4A054610682B
:10036400B0FBF3F000F0A6F8044658B90F2D09D8F5
:10037400024629464FF0FF3000F04AF8044B20466D
:100384001D6038BD0120FCE700000020280000208B
:100394000400002008B50B4B1A6842F400721A607E
:1003A4001A6842F480621A601A6842F480721A6011
:1003B400032000F01BF80020FFF7C8FFFFF7C4FF7D
:1003C400002008BD003C0240034A044B11681B781E
:1003D4000B441360704700BF8C0100200000002014
:1003E400014B1868704700BF8C0100200749CA6898
:1003F40022F4E0620302120403F4E063120C1343D8
:1004040043F0BF6343F40033CB60704700ED00E07A
:10041400164B30B5DC68C4F30224C4F10703251D70
:10042400042B28BF0423062D4FF0FF358CBF033C5B
:10043400002405FA03F321EA0303A54022EA050296
:10044400A340002843EA0203ACBF00F16040084A1D
:100454004FEA0313B8BF00F00F00DBB2AABF00F5E8
:100464006140135480F8003330BD00BF00ED00E05C
:1004740014ED00E0002807DB044A4109012300F0E1
:100484001F00834042F82130704700BF00E100E0C4
:1004940000280CDB4309064900F01F002033012229
:1004A400824041F82320BFF34F8FBFF36F8F704713
:1004B40000E100E00138B0F1807F0BD24FF0E0237F
:1004C400054A5861F02182F8231000200722986120
:1004D4001A6170470120704700ED00E0002808DB36
:1004E4004309044900F01F0001226033824041F8AF
:1004F4002320704700E100E0704708B5FFF7FCFFD8
:1005040008BD704710B5044650B1437903F0FF02AB
:1005140013B90271FFF7F5FF01236371002010BDC9
:100524000120FCE770B50446866DFFF759FF94F887
:100534003530022B054606D0802363650120002355
:1005440084F8343070BD23681A6822F016021A60E9
:100554005A6922F080025A61226C0AB9A26C1AB15B
:100564001A6822F008021A601A6822F001021A605E
:100574002368186810F0010007D1E26D3F2393400F
:10058400B360012384F83530D9E7FFF729FF401B16
:100594000528EDD920230320636584F83500CEE7D0
:1005A40090F83530022B03D0802343650120704737
:1005B4000268052380F83530136823F001031360C3
:1005C40000207047044A5169014208B502D05061C5
:1005D40001F018F908BD00BF003C01402DE9F341CA
:1005E400044640B30368DE0710D423689D075BD438
:1005F4002368190700F19D8023685A0700F1BD8024
:10060400A369002B40F0248100202CE08D4B9A68D4
:1006140002F00C02042A07D09A6802F00C02082A9D
:100624000BD15B68590208D5864B1B689A03DCD54D
:100634006368002BD9D1012015E06368814DB3F5BF
:10064400803F13D12B6843F480332B60FFF7C8FE3F
:100654007C4E054633689B03C7D4FFF7C1FE401B9D
:100664006428F7D9032002B0BDE8F081B3F5A02FC8
:1006740004D12B6843F480232B60E3E72A6822F437
:1006840080322A602A6822F480222A60002BDDD17D
:10069400FFF7A6FE06462B689F03A6D5FFF7A0FE2C
:1006A400801B6428F7D9DDE7664B9A6812F00C0FBB
:1006B40007D09A6802F00C02082A11D15B685D0227
:1006C4000ED4604A1368990702D5E368012BB2D1AE
:1006D4001368216923F0F80343EAC103136087E731
:1006E400E268594BB2B101221A60FFF779FE554D09
:1006F40006462B689B0707D52B68226923F0F8036D
:1007040043EAC2032B6073E7FFF76AFE801B0228EB
:10071400EFD9A7E71A60FFF763FE4A4E0546336830
:100724009F077FF565AFFFF75BFE401B0228F6D9F4
:1007340098E76269444B82B10122C3F8802EFFF727
:100744004FFE404E0546736F9B073FF555AFFFF7CD
:1007540047FE401B0228F6D984E7C3F8802EFFF732
:100764003FFE384E0546736F9F077FF545AFFFF791
:1007740037FE401B0228F6D974E7324B1A6C12F08C
:10078400805228D101921A6C42F080521A641B6C78
:1007940003F080530193019B01272C4D2B68D8054E
:1007A4001BD5A368274D012B27D12B6F43F00103E1
:1007B4002B67FFF715FE234E054641F28838336F49
:1007C4009A0739D5002F3FF41BAF1E4A136C23F050
:1007D4008053136414E70027DFE72B6843F4807326
:1007E4002B60FFF7FDFD06462B68D905D9D4FFF72A
:1007F400F7FD801B0228F7D934E7052B04D12B6FB2
:1008040043F004032B67D0E72A6F22F001022A6722
:100814002A6F22F004022A67002BCAD1FFF7E0FDF9
:1008240041F2883806462B6F9B07CBD5FFF7D8FDDE
:10083400801B4045F7D915E7FFF7D2FD401B404523
:10084400BDD90FE700380240000047420070004065
:10085400374DAA6802F00C02082A3ED0022B354B11
:100864004FF000021A662BD1FFF7BAFD06462B683B
:1008740099011FD4D4E907321343626A43EA82130D
:10088400E26A43EA0263A26A5208013A43EA024373
:100894006B60284B264D01221A66FFF7A1FD044622
:1008A4002B689A013FF5B0AEFFF79AFD001B0228B2
:1008B400F6D9D7E6FFF794FD801B0228D7D9D1E6F5
:1008C400FFF78EFD04462B689B017FF59DAEFFF775
:1008D40087FD001B0228F6D9C4E6012B3FF4ABAE1A
:1008E4006B68E26903F4800191427FF4A4AE216A4B
:1008F40003F03F028A427FF49EAE616A47F6C072FB
:100904001A40B2EB811F7FF496AEA26A520803F438
:100914004031013AB1EB024F7FF48DAEE26A03F04D
:100924007063B3EB026F14BF012000209BE600BF8D
:100934000038024000004742134908B58B6803F0B1
:100944000C03042B1CD0082B1CD14A684B68496843
:1009540013F4800314BF0D480D48C1F3881118BF68
:10096400002302F03F02A1FB0001FFF719FC064B34
:100974005B68C3F3014301335B00B0FBF3F008BDD4
:100984000248FCE70248FAE70038024000127A0005
:100994000024F4002DE9F0410D46044610B901206D
:1009A400BDE8F081434B1A6802F007028A4228D35B
:1009B40021688F072DD4C80740D43E4B1A6802F033
:1009C4000702AA4265D8226851076BD4130707D5DA
:1009D400394A2169936823F4604343EAC10393606D
:1009E400FFF7AAFF344B354A9B68C3F30313D35C68
:1009F400D840334B1860334B1868FFF7A7FC00202E
:100A0400CEE7CAB21A701B6803F007038B42C6D143
:100A1400CEE7294B11F0040F1EBF9A6842F4E0524E
:100A24009A600E0742BF9A6842F460429A609A68DC
:100A3400A06822F0F00202439A60BCE762681E4B91
:100A4400012A1CD11B6813F4003FA8D01A4EB368C6
:100A540023F003031343B360FFF7C2FC41F2883869
:100A64000746B368626803F00C03B3EB820FA4D0AB
:100A7400FFF7B6FCC01B4045F3D9032090E7911E55
:100A840001291B6802D813F0007FDEE713F0020F80
:100A9400DBE7EAB21A701B6803F00703AB427FF48A
:100AA4007EAF90E70449E0688B6823F4E053034386
:100AB4008B608BE7003C024000380240343200086F
:100AC4002800002004000020044B054A9B68C3F35F
:100AD4008223D35C034A1068D84070470038024030
:100AE4002C32000828000020044B054A9B68C3F3FD
:100AF4004233D35C034A1068D84070470038024040
:100B04002C3200082800002070477047036870B535
:100B1400DD681E69B10704460DD5AA070BD56FF031
:100B240002021A61012202779B699B0769D000F0D7
:100B340066FD00232377710710D56A070ED5236855
:100B44006FF004021A61022222779B6913F4407F3A
:100B540020465CD000F053FD0023237733070FD5E4
:100B640028070DD523686FF008021A610422227742
:100B7400DB699907204650D000F041FD002323771C
:100B8400F20610D5EB060ED523686FF010021A6139
:100B940008222277DB6913F4407F204643D000F01B
:100BA4002EFD00232377F00708D5E90706D523682F
:100BB4006FF001021A61204600F0FEFC320608D5EF
:100BC4002B0606D523686FF080021A61204600F0D8
:100BD4009EF8700608D5690606D523686FF04002B2
:100BE4001A612046FFF791FFB20622D5AB0620D545
:100BF40023686FF0200220461A61BDE8704000F0BF
:100C040085B800F0FAFC2046FFF77EFF91E700F07C
:100C1400F4FC2046FFF778FF9EE700F0EEFC204648
:100C2400FFF772FFAAE700F0E8FC2046FFF76CFF2D
:100C3400B7E770BD1D4A036890420ED0B0F1804FF3
:100C44000BD0A2F57C42904207D002F5806290421C
:100C540003D002F58062904208D14A6823F0700301
:100C64001343CA6823F4407313430AE0104A9042C2
:100C7400F7D002F580629042F3D002F58062904290
:100C8400EFD04A6923F0800313438A68C2620A687A
:100C94008262064A904204BF0A690263026842F013
:100CA40004020260012242610360704700000140B7
:100CB4000040014010B5044630B390F83D3003F0D5
:100CC400FF021BB980F83C2001F0D0F80223206811
:100CD40084F83D30211DFFF7ADFF012384F8463031
:100CE400002084F83E3084F83F3084F8403084F8A3
:100CF400413084F8423084F8433084F8443084F836
:100D0400453084F83D3010BD0120FCE77047704742
:100D1400026802F10C0353E8003F23F490730C3291
:100D240042E8003102680029F2D102F1140353E8C9
:100D3400003F23F0010302F1140C4CE800310029B8
:100D4400F3D1036B012B0BD102F10C0353E8003FE9
:100D540023F0100302F10C0C4CE800310029F3D10C
:100D6400202380F842300023036370470268C1687F
:100D740038B5136923F440530B4313610546836864
:100D84000069D168034368690343E86921F41641A3
:100D940021F00C0103430B43D3605369A96923F485
:100DA40040730B4353611F4B9A4203D003F5806396
:100DB4009A4224D1FFF798FEEA691921B2F5004F4F
:100DC400D5E90043A0FB01011CD1DA184FF000055E
:100DD40045EB0503FFF7E4F96422B0FBF2F102FBF3
:100DE4001103DB003233B3FBF2F303F007025B00C1
:100DF40002EB011203F4F8731344A36038BDFFF748
:100E040063FED9E79A009B0FFFF7CAF96422B0FB8F
:100E1400F2F102FB11031B013233B3FBF2F303EBD8
:100E24000113EAE700100140704710B5044648B3C7
:100E340090F8413003F0FF021BB980F84020FFF71F
:100E4400F3FF2268242384F84130D36823F4005349
:100E5400D3602046FFF78AFF23681A6922F4904280
:100E64001A615A6922F02A025A61DA6842F400527D
:100E7400DA6000202023606484F8413084F8423032
:100E8400606310BD0120FCE710B5044668B390F818
:100E9400413003F0FF021BB980F84020FFF7C4FF84
:100EA4002268242384F84130D36823F40053D360A8
:100EB4002046FFF75BFF23681A6922F490421A6107
:100EC4005A6922F022025A615A6942F008025A61B0
:100ED400DA6842F40052DA6000202023606484F867
:100EE400413084F84230606310BD0120FCE790F883
:100EF4004130202B10D189B182B1C2840162828435
:100F0400016800232122436480F84120CA6842F02A
:100F14008002CA601846704702207047012070475B
:100F240008B5806B0023C38501F056F908BD7047EE
:100F340090F84230222B07B542D181680268836A57
:100F4400B1F5805F3FD1016900293FD15268C2F3F6
:100F5400080223F8022B8362C38D013B9BB2C38535
:100F6400002B2DD10268D16821F02001D160D16815
:100F740021F48071D160516921F001015161202275
:100F840080F842204363026B012A026828D103637C
:100F940002F10C0353E8003F23F0100302F10C0CA0
:100FA4004CE800310029F3D11368DB0605D5019123
:100FB4001368019353680193019B818DFFF7B7FF79
:100FC40003B05DF804FB39B9016929B95268D2B29A
:100FD4001A70836A0133BEE7526802F07F02F7E7B2
:100FE40001F0F4F8ECE7000003681A6873B516071B
:100FF400D9685D69044608D1960668D58D0666D51C
:1010040002B0BDE87040FFF793BF05F0010001F4A2
:10101400907505435BD0D60705D5CD0542BF636CFB
:1010240043F001036364530704D518B1636C43F0C0
:1010340002036364960704D518B1636C43F0040398
:101044006364150707D501F0200303431EBF636CD7
:1010540043F008036364636C002B32D0920604D51A
:101064008B0602D52046FFF763FF26687369626C1E
:1010740003F0400302F0080253EA0205204622D09E
:10108400FFF746FE73695E0618D5226802F1140361
:1010940053E8003F23F04003143242E800310029B2
:1010A400F3D1E06B50B1774B0365FFF779FA40B1A8
:1010B400E06B036D02B0BDE870401847204601F0B4
:1010C4008BF802B070BD01F087F86564F9E7206B16
:1010D400012840F09B80D50640F19880C80640F175
:1010E4009580002201921A6801925A680192019A2D
:1010F4005A69A18D520656D5E06B0268526892B2C5
:10110400002A47D0914245D9E285C269B2F5807F71
:1011140036D003F10C0252E8002F22F4807203F15E
:101124000C0040E800210029F3D103F1140252E835
:10113400002F22F0010203F1140040E800210029ED
:10114400F3D103F1140252E8002F22F0400203F11C
:10115400140040E800210029F3D1202284F8422021
:10116400216303F10C0252E8002F22F0100203F174
:101174000C0040E800210029F3D1E06BFFF7D2F91D
:1011840002236363E38DA18DC91A89B22046FFF758
:10119400CEFE96E7914294D1C369B3F5807F90D196
:1011A40002236363F2E7E28DE08D80B292B20028FD
:1011B40087D0891A89B2002983D003F10C0252E83E
:1011C400002F22F4907203F10C0545E8002000285A
:1011D400F3D103F1140252E8002F22F0010203F1CB
:1011E400140545E800200028F3D1202284F8422089
:1011F400206303F10C0252E8002F22F0100203F1E5
:101204000C0545E800200028F3D1C9E7160628D5C7
:101214000D0626D594F84120212A7FF452AFA16807
:10122400226AB1F5805F17D12169A9B932F8021B8E
:10123400C1F3080159602262E28C013A92B2E2845D
:10124400002A7FF43EAFDA6822F08002DA60DA68BE
:1012540042F04002DA6034E7511C216212785A608D
:10126400EAE750067FF52DAF4A067FF52AAFDA6824
:1012740022F04002DA60202384F84130204600F056
:10128400A8FF1EE7250F000890F84030012B11D06D
:101294000268242380F84130D36823F00C0343F020
:1012A4000803D360202380F84130002380F84030C5
:1012B400184670470220704790F84030012B11D037
:1012C4000268242380F84130D36823F00C0343F0F0
:1012D4000403D360202380F84130002380F8403099
:1012E400184670470220704790F8412090F8420059
:1012F40010437047C2850023828502694364222318
:1013040080F84230816203681AB1DA6842F480726C
:10131400DA605A6942F001025A61DA6842F0200246
:10132400DA600020704770B590F84260202E07D133
:1013340041B13AB100240463FFF7DCFF204670BDDD
:101344000220FCE70120FAE7836810B504462BB1BC
:101354000322014698470023C4E9023310BD836881
:1013640010B5044613B1032201469847204610BD28
:101374001B4B984221D0B0F1804F20D0A3F57C4381
:1013840098421ED003F5806398421CD003F5806315
:1013940098421AD003F59A33984218D003F5806323
:1013A400984216D003F58063984214D04FF6FF7329
:1013B4004FF6FF72934210D1FEE70023F8E70120B5
:1013C40070470220704703207047042070470520AF
:1013D400704706207047072070470020704700BF01
:1013E40000000140014670B5044651F8100FFFF7A4
:1013F400BFFF0546084600F06BFC094A002342F88B
:10140400253004F16006E36004F1B005B54204D070
:10141400103D2846FFF7A3FFF8E7204670BD00BF44
:1014240090010020F8B504460846FFF7A1FF2369A0
:1014340003B1FEE71B4D84F82C3004F10C0245F88F
:10144400202004F110060E22C4E90C33C4E90E3343
:10145400C4E91033C4E916232161A36484F84C3031
:1014640084F84D30E460304600F0A2FB04F16005DE
:1014740004F1B00728461035FFF766FFBD42F9D1E5
:101484000023C4E900334FF6FF72C4E90632C4E90D
:101494000833A36063618023A3623046BDE8F8404B
:1014A400FFF708BC9001002010B5074C206810B16C
:1014B4000430FFF72BFBA06920B1BDE810400430D5
:1014C400FFF724BB10BD00BF90010020034B186838
:1014D40010B10430FFF71ABB704700BF9001002021
:1014E400034B586810B10430FFF710BB704700BFBE
:1014F40090010020034B986810B10430FFF706BB3D
:10150400704700BF90010020034BD86810B104302D
:10151400FFF7FCBA704700BF90010020034B186925
:1015240010B10430FFF7F2BA704700BF90010020F9
:10153400034B586910B10430FFF7E8BA704700BF95
:1015440090010020034BD86910B10430FFF7DEBAD4
:10155400704700BF900100200022C0E90022C0E9CA
:1015640002227047F8B504460E4600F1600500F10A
:10157400B00728461035FFF7EFFFBD42F9D100232D
:10158400204623613146FFF74DFF2046F8BD8268AF
:1015940010B50AB901F0E8FDBDE81040C36818476A
:1015A40008B500B9FEE700F001FB0068836E13B1D3
:1015B4006030FFF7ECFF08BDFFF7F2BF10B500B9CC
:1015C400FEE7037F013B072B10D8DFE803F0041488
:1015D4000F100F0F0F12012400F0E8FA0068063410
:1015E40000EB041083680BB1FFF7D1FF10BD032497
:1015F400F2E70424F0E70224EEE7FFF7DFBFFFF78A
:10160400DDBF01F095BA01F09BBA000086B000235B
:10161400052853D8DFE800F003111E2B384500934A
:10162400274B28481A6B42F001021A631B6B03F024
:1016340001030093009B06B070470193204B22489E
:101644001A6B42F002021A631B6B03F0020301934C
:10165400019BF0E702931A4B1C481A6B42F00402F8
:101664001A631B6B03F004030293029BE3E70393E7
:10167400134B17481A6B42F008021A631B6B03F0F2
:1016840008030393039BD6E704930D4B11481A6B8D
:1016940042F010021A631B6B03F010030493049BC3
:1016A400C9E70593064B0C481A6B42F080021A6393
:1016B4001B6B03F080030593059BBCE70020BAE78E
:1016C40000380240000002400004024000080240CA
:1016D400000C024000100240001C0240F8B51349FF
:1016E400134F064600F018FAFFF742FE57F8203071
:1016F400054673B9B020FFF784FF0C490446304611
:1017040000F00AFA01462046FFF72CFF57F825306F
:101714001C601C6844B12046FFF764FE2046B021DB
:10172400BDE8F840FFF76FBFF8BD00BF0433000801
:1017340090010020FEF754BE704708B5FEF744FE42
:10174400FEF7DBFEFFF7F8FF08BD704784B0114BCE
:1017540000220192196C41F080511964196C01F056
:101764008051019101990292596C41F4804159646C
:10177400596C01F480410291029903921A6B42F46C
:1017840080521A631B6B03F480530393039B04B0CE
:10179400704700BF003802400C4BD3F8FC20D20144
:1017A4005EBFD3F8FC2042F08072C3F8FC20084BE3
:1017B40000225A601A6842F001021A6000BF00BF9A
:1017C40000BF5868B0FA80F04009704700ED00E0AF
:1017D400001000E008B5FFF7B9FFFFF7DDFFFEF7E3
:1017E400D9FDFFF7B2FF00F085FDBDE808400148D0
:1017F400FEF788BE200000200023C0E90033C0E9C2
:10180400023370470023012803F101020AD1142294
:10181400DBB25343054A181D1044816829B11A44A8
:101824001369184740081346EDE77047B0010020DC
:101834000120FEF7C7BE0220FEF7C4BE0420FEF757
:10184400C1BE0820FEF7BEBE1020FEF7BBBE08B521
:101854002020FEF7B7FE4020FEF7B4FE8020FEF7FE
:10186400B1FE4FF48070FEF7ADFEBDE808404FF4C2
:101874000070FEF7A7BE38B506244FF48065A8B201
:10188400FEF7A0FE013C4FEA4505F8D138BD000043
:10189400344A104608B5062300F8043BFFF7ACFFB2
:1018A400072302F118001375FFF7A6FF082302F1BE
:1018B4002C0082F82830FFF79FFF092302F1400033
:1018C40082F83C30FFF798FF0A2302F1540082F8B3
:1018D40050301721FFF790FF02F1680082F864107E
:1018E400FFF78AFF02F17C0082F87810FFF784FF8B
:1018F40002F1900082F88C10FFF77EFF02F1A40041
:1019040082F8A010FFF778FF02F1B80082F8B41053
:101914002821FFF771FF02F1CC0082F8C810FFF70D
:101924006BFF02F1E00082F8DC10FFF765FF02F1C3
:10193400F40082F8F010FFF75FFF02F5847082F87C
:101944000411FFF759FF02F58E7082F81811FFF7A2
:1019540053FFBDE8084002F5987082F82C11FFF798
:101964004BBF00BFB001002038B5054CA4F5A075ED
:10197400143C201DFFF7F3FCAC42F9D138BD00BF85
:10198400F002002030B591FAA1F391FAA1F1B3FA73
:1019940083F3C4685B000325B1FA81F105FA03F30C
:1019A400490024EA03038A401A43C26030BD431C41
:1019B40004D00C3151F80C3C5A1C01D10020704762
:1019C400834201F10C01F5D101207047F8B5471CA1
:1019D40006460D4600D1FEE700F00F02414BC0F36E
:1019E400031053F82240FFF711FE94FAA4F3B3FA5C
:1019F40083F3876803225B0002FA03F394FAA4F2E8
:101A0400B2FA82F227EA03075200032393403B43CE
:101A140005F007018360032903D8DFE801F05F6163
:101A24002C03FEE7032394FAA4F2B2FA82F20668C6
:101A34005200032707FA02F226EA020694FAA4F2F5
:101A4400B2FA82F252009340013933430129036010
:101A540005D843682A074CBF2343A3434360C5F317
:101A64000112012A02D0022A18BF00222146BDE831
:101A7400F840FFF787BFC5F306227F2A01D102236E
:101A8400D1E7360716D5230A93FAA3F6B6FA86F6F3
:101A9400476A93FAA3F3B6004FF00F0CB3FA83F33B
:101AA4000CFA06F69B0027EA060602FA03F3334310
:101AB4004362E4E794FAA4F3B3FA83F3066A9B005F
:101AC4000F2707FA03F326EA030694FAA4F3B3FAFA
:101AD40083F39B009A4032430262D0E70023A2E7DB
:101AE4000123A0E7EC310008431C06D17047834270
:101AF40002D18968FFF76ABF0C310B685A1CF6D112
:101B0400FEE70B685A1C01D100207047834201D1C3
:101B1400486870470C31F4E7431C01D0FFF7F1BF6C
:101B2400002070474B6813B94FF0FF307047834271
:101B340001D1086870470C31F4E708B1FFF7F2BF30
:101B44004FF0FF30704703468B42084604D01BB168
:101B540000290CBF18460020704700001049D1F836
:101B6400883043F47003C1F888300E4B1A6842F091
:101B740001021A6000229A601A6822F0847222F428
:101B840080321A60084A5A601A6822F480221A6065
:101B94004FF43F02DA604FF000638B60704700BF80
:101BA40000ED00E000380240103000240438704793
:101BB40003683F4A934288B01BD1002200923D4AF9
:101BC400516C41F001015164526C02F00102009227
:101BD400009A394A93421BD100230593354B5A6C22
:101BE40042F480325A645B6C03F480330593059BA2
:101BF4004CE0B3F1804F1BD1002201922D4A116CAD
:101C040041F001011164126C02F001020192019A87
:101C14002A4A93421BD100230693264B5A6C42F462
:101C240000325A645B6C03F400330693069B2DE088
:101C3400234A93421BD1002202921E4A116C41F0A6
:101C440002011164126C02F002020292029A1D4A0D
:101C540093421BD100230793164B5A6C42F4802203
:101C64005A645B6C03F480230793079B0EE0164AC7
:101C740093420DD1002303930E4B1A6C42F00402DD
:101C84001A641B6C03F004030393039B08B07047AE
:101C94000E4A93429DD100230493064B1A6C42F0E2
:101CA40008021A641B6C03F008030493049BEDE719
:101CB400000001400038024000400140004401405F
:101CC400000400400048014000080040000C0040AF
:101CD4000368234A93420ED122494A6C22F001023E
:101CE4004A64214A93420ED102F57842536C23F49C
:101CF400803353647047B3F1804F0DD119490A6C96
:101D040022F001020A64194A93420DD102F5744289
:101D1400536C23F40033ECE7154A93420DD1114977
:101D24000A6C22F002020A64124A9342E2D102F5DA
:101D34007042536C23F48023DBE70F4A934206D1AD
:101D440002F50C32136C23F00403136470470B4A3E
:101D54009342C6D102F50B32136C23F00803F4E767
:101D640000000140003802400040014000440140AE
:101D7400000400400048014000080040000C0040FE
:101D8400431C21D0184B984221D00BD8A3F50063F3
:101D940098421ED003F5806398421CD0B0F1804F66
:101DA4001BD0FEE7114B984219D008D8A3F58843FD
:101DB400984214D003F58043984212D0F1E70C4BBB
:101DC4009842EED11A2070476FF00D007047322010
:101DD40070471D2070471E2070471C207047192033
:101DE40070471820704700BF000C004000440140B9
:101DF40000480140431C21D0194B984221D010D8EF
:101E0400A3F5784398421ED007D8B0F1804F1CD078
:101E1400A3F5806398421AD0FEE7124B984218D07B
:101E2400FAE7114B984216D003F58063984214D018
:101E3400A3F500639842EFD1182070476FF00D00AE
:101E440070471B2070471E2070471C2070471D20C0
:101E5400704732207047192070471A20704700BF1E
:101E640000000140000C00400044014038B5FFF779
:101E74009FFE04460068FFF783FFD4E91212FEF7C1
:101E8400C7FA2068FFF77CFFFEF7F4FA22681046D1
:101E9400FFF7B0FF05461046FFF772FF85420BD0EF
:101EA4002846D4E91212FEF7B3FA2068FFF7A2FF1E
:101EB400BDE83840FEF7DEBA38BD00002DE9F04F2A
:101EC4008B4685B092469946044618B9002005B061
:101ED400BDE8F08F6749406DFFF71EFE6649064670
:101EE400A06DFFF719FE65490746E06DFFF714FE84
:101EF40063490546206EFFF70FFE8046002EE5D0AD
:101F0400A36D013301D0002FE0D0E36D013301D084
:101F1400002DDBD0236E013302D0B8F1000FD5D0F1
:101F240030463946FFF70FFE0646206020B90146C9
:101F3400FFF709FE0646206029463046FFF703FEF8
:101F440041462060FFF7FFFD20600028BED04D4BC6
:101F5400984254D103F594335A6A42F010025A62FB
:101F64005A6A22F010025A6200220192596C41F01E
:101F7400100159645B6C03F010030193019B134639
:101F840025223C49606D84F8653084F86420FFF7AD
:101F9400ABFD1FB13849A06DFFF7A6FD2DB1374940
:101FA400E06DFFF7A1FD4FF48075B8F1000F05D087
:101FB4003349206E45F40075FFF796FD94F86520CB
:101FC400314B94F96400C4F80CA0261D43F8226038
:101FD4002368C4E9013B0E9B0022C4E904390C23A5
:101FE400C4E9063522620121FEF712FA3046002FB9
:101FF4003CD1FEF749FFB0FA80F0400967E7234B74
:10200400984217D103F5FA331A6A42F400321A627D
:102014001A6A22F400321A62002202921A6C42F402
:1020240000321A641B6C03F400330293029B2622D1
:102034000123A6E7164B98427FF448AF03F5923389
:102044005A6A42F020025A625A6A22F020025A6204
:10205400002203925A6C42F020025A645B6C03F033
:1020640020030393039B472202238AE7FEF7DDFE46
:10207400C1E700BFC83200088C320008683200088B
:102084004432000800100140F002002000440040E7
:102094000014014008B5074B90F8652053F822005E
:1020A400FFF722F900F02200A0F122035842584120
:1020B40008BD00BFF002002008B5074B90F865206A
:1020C40053F82200FFF710F900F02100A0F12103DA
:1020D4005842584108BD00BFF002002070B50E46BA
:1020E400054610B94FF0FF3070BDFFF7D3FF04462B
:1020F4000028F7D12946012211F8663F337095F87C
:102104006500034B53F82000FFF70DF92046EBE779
:10211400F002002038B50D460446B8B1FFF7BAFF07
:10212400A0B994F96400E564FEF7B2F994F8650087
:10213400074B04F1660153F820000122FFF7F3F87E
:1021440094F96400BDE83840FEF794B938BD00BF87
:10215400F002002038B515460446B8B1016590F97F
:102164006400FEF795F9E36EB4F8761094F8650010
:1021740013FA81F1064BAAB253F82000FEF7B7FE1A
:1021840094F96400BDE83840FEF774B938BD00BF67
:10219400F002002048B1836D013306D190F8652028
:1021A400024B53F82200FFF76FB87047F00200208B
:1021B40048B1836D013306D190F86520024B53F882
:1021C4002200FFF779B87047F0020020836C0438CE
:1021D4001847C36C0438184730B5044650F804391E
:1021E4001D6815F0010585B012D0002200921A680E
:1021F40000925B680093009BFFF74CFF40BB0122F9
:1022040004F16201204605B0BDE83040FFF78BB809
:10221400196811F0020106D001951A6801925B68F1
:102224000193019BE8E71A6812F0040206D00291B8
:102234001A6802925B680293029BDDE7196809073A
:10224400DAD503921A6803925B680393039BD3E77E
:1022540005B030BD08B52520FEF740F9024B1868DB
:10226400BDE80840FEF7C0BEF002002008B52620F5
:10227400FEF734F9034B586818B1BDE80840FEF77F
:10228400B3BE08BDF002002008B54720FEF726F9CA
:10229400024B9868BDE80840FEF7A6BEF002002095
:1022A4000A490346086810B50344EFF308829342D1
:1022B40005D9074B0C221A604FF0FF3010BD054AB8
:1022C400054C121B9342F4D20B60F7E72C0000205C
:1022D4006C0500200000012000040000FEE700005F
:1022E400024B16221A604FF0FF3070476C05002035
:1022F4000120704710B594B01422002109A800F001
:10230400D5FC1422002103A800F0D0FC1F4B0022AE
:102314000192196C41F0805119641B6C1C4903F043
:1023240080530193019B02920B6823F4404343F4CE
:1023340000430B600B6803F440430293029B0121AA
:1023440010230820CDE90B13A823CDE910030224A0
:102354004FF0040C072308A8CDE90E42CDE912C3BF
:102364000894FEF73BF900B1FEE70F23CDE90334EF
:102374004FF48053CDE906300590214603A8FEF7BB
:1023840009FB00B1FEE714B010BD00BF00380240E5
:1023940000700040B0F80831B0F80421981A00F039
:1023A4003F007047B0F80831B0F804219BB2934263
:1023B4001ABFD0F8FC30985C4FF0FF30704790F8AB
:1023C4000631B0F80A01C0B2834227BFC3F13F030C
:1023D400C018C01A00F1FF30704707B503688DF8C4
:1023E40007105B6801220DF10701984703B05DF8FF
:1023F40004FB13B50DF107010446FFF76FFE88B91E
:10240400B4F87430B4F87020013303F03F039342FE
:1024140008D0B4F87420A16E9DF8070092B28854D5
:10242400A4F8743002B010BDB0F87620816F11FAB0
:1024340082F202F03F0210B5A0F87620B0F87610D0
:10244400B0F8722089B28A421AD0B0F87640B0F857
:102454007610A4B24032121B544289B204F03F04F5
:1024640002F03F02C1F1400158BF62428A4228BFD4
:102474000A4682670349FFF76DFE4FF0FF3010BD37
:102484000020FCE72D2400082DE9F84303680446E6
:102494009B6888461646984701232374D4F8EC3089
:1024A400B4F8067101338146C7F1400709D194F8A5
:1024B400113133B1002384F8113104F19400FFF792
:1024C40069FE236820469B6898470028F9D0354662
:1024D400BD4225D84D4523D8B4F80631D4F80001BF
:1024E4005A19402A184430D82A46414600F01CFCA8
:1024F4002F46B4F806311D4405F03F05A4F80651F3
:1025040004F194052846FFF7D7FD30B91649C4F8FD
:102514000C713A462846FFF71DFE3046BDE8F883A5
:102524004F45236828BF4F463A4641465B682046DC
:102534009847236820469B689847ED1BB844B4F835
:1025440006718146C7F14007C2E7C3F140073A4626
:10255400414600F0E9FBD4F80001EA1B08EB07014F
:1025640000F0E2FBC5E700BF2D240008C0F8F030FE
:10257400009BC0F8F430914208BF4FF0FF3100F1E6
:102584001403C0E93A21C0F8FC3000F154020023DE
:10259400A0F80831C0E94023A0F80A317047037C51
:1025A40070B504460D46A3B1FDF71AFF0646B4F80C
:1025B4000621B4F80A319BB29A420AD0002DF8D011
:1025C400FDF70EFF801B8542F1D8B4F80A31A4F858
:1025D400063170BD0021FFF7E2BF0000CBB2232B10
:1025E40008D80E4A52F8233001F4E0611943C0F8C8
:1025F400EC10704701F0C002C02A0CD1C92B0AD8D4
:10260400074B01F03F0201F4E06153F82220034B31
:1026140053F82230EAE74FF0FF31E8E7E8340008E6
:10262400C0340008CBB2232B08D80E4A52F823300A
:1026340001F4E0611943C0F8E810704701F0C002EA
:10264400C02A0CD1C92B0AD8074B01F03F0201F470
:10265400E06153F82220034B53F82230EAE74FF0AD
:10266400FF31E8E7E8340008C034000873B54FF4DC
:102674007A7316460022C0E901231D4B03604FF014
:10268400FF33C0F8EC301B4B984204460D4615D17D
:10269400C321FFF7A3FFC221FFF7C4FF012E4FF0B0
:1026A400FF3308BFC4F8EC3000932046D4E93A2144
:1026B4004FF0FF33FFF75AFF02B070BD0E4B0F49C6
:1026C4009A680F4B53F82200FFF726FA854202D18D
:1026D400C3212046DDE70B492846FFF72EFA0749B8
:1026E400C4F8EC002846FFF728FAC4F8E800D5E758
:1026F40088350008FC020020C0340008C8320008F5
:10270400E83400088C320008D0F8EC30013310B5FE
:1027140004460ED10368DB68984794F8113143B935
:10272400012384F8113104F19400BDE81040FFF74F
:102734003FBD10BD7FB502F00703023BDBB2042BA3
:10274400144680F8122198BF204AC0F8141198BF8B
:10275400D25C04F0300388BF0022302B054607D139
:1027640001324FF4C063082A09D0092A24D0FEE7B5
:1027740014F0200325D001324FF48063F3E70022E4
:10278400E87C0390A87C0290C4F3C004687C0190A8
:1027940005F19406640300943046FFF78FFB85F837
:1027A400100188B12846FFF7AFFF0949304604B04D
:1027B400BDE87040FFF7AEBC4FF48052E0E71A4624
:1027C400DEE7082AFBD0D2E704B070BD78350008F4
:1027D400F723000810B50446FFF796FFB4F8082164
:1027E400B4F8043192B29A421FBFD4F8FC20D05CF2
:1027F400013303F03F0314BFA4F804314FF0FF305A
:1028040010BD0000024903480022FFF72FBF00BF9C
:1028140000440040FC02002070B505460C46084602
:1028240049B1FDF7B5FC2B680246214628465B6892
:10283400BDE87040184770BD03681B681847000066
:1028440008B50249FFF7E8FF08BD00BFAC35000832
:1028540030B58BB00023012A0C468DF8243098BF84
:102864000A2209A92546B4FBF2F404FB125303F02F
:10287400FF03092B94BF30333733DBB2AA4201F88C
:10288400013DEFD9FFF7C8FF0BB030BD2DE9F04192
:1028940007460E4614462AB90368BDE8F0411B6892
:1028A400C9B218470A2A05D1002905DBBDE8F04161
:1028B400FFF7CEBFD2B2F9E72D21FFF7BDFF2246C5
:1028C400054671423846FFF7C3FF2844BDE8F0814E
:1028D40038B50546FFF7DAFF04462846FFF7B0FF90
:1028E400204438BD10B5044600F010F9E0602368B8
:1028F40020465B699847002808DA00F007F9E36886
:10290400C01AA3689842F2D34FF0FF3010BDF8B557
:1029140007460D468E180C46B44201D1601BF8BD23
:102924003846FFF7DFFF431CF8D004F8010BF3E748
:102934002DE9F0410746884616461D4673B100242A
:102944003846FFF7CFFF431C05D0404503D0305530
:102954000134A542F4D12046BDE8F0811C46FAE7D3
:1029640008B50320FDF742FDBDE8084000F0DEB8DD
:1029740008B5AFF30080FDF74DFCFDF77BFC00F0DC
:10298400C7F8FAE7DFF834D0FFF7E8F80C480D4948
:102994000D4A002302E0D458C4500433C4188C42B6
:1029A400F9D30A4A0A4C002301E013600432A2421C
:1029B400FBD300F093F9FFF7DBFF70470000012021
:1029C4000000002080000020D03500088000002096
:1029D40074050020FEE70000C3B2232B2DE9F0416B
:1029E4000D462AD8274A52F8233000F4E0641C43E9
:1029F400621C44D0244EC4F3031704F00F0856F8A5
:102A0400273023FA08F3DB0710D520492046FEF7C8
:102A1400CEFF10B12046FEF761FE56F827300122A2
:102A240002FA08F223EA020346F82730052D15D8E6
:102A3400DFE805F015211B1D1F2300F0C002C02A8A
:102A44001DD1C92B1BD8124B00F03F0200F4E064E7
:102A540053F822200B4B53F82230C8E7FEE700213D
:102A64002046BDE8F041FEF7B1BF1021F8E7202170
:102A7400F6E70321F4E70121F2E70921F0E7BDE8D5
:102A8400F08100BFE8340008140400200433000877
:102A9400C0340008C3B2232B19D8184A52F8233083
:102AA40000F4E0601843431C22D0C0F30313052B49
:102AB40020D8134A00F00F0052F82320114B12695A
:102AC40053F8203093430CBF01200020704700F0DE
:102AD400C002C02A0CD1C92B0AD80B4B00F03F020C
:102AE40000F4E06053F82220044B53F82230D9E775
:102AF4000020704700231B69FFDE00BFE834000894
:102B040008000020EC310008C0340008FEF712BEB3
:102B140008B5044B2BB10448FFF73CFC08B1AFF3F4
:102B2400008008BD00000000FC020020FEF752BE39
:102B3400024B0146186800F02DB800BF3000002099
:102B4400024B0146186800F0FDB800BF30000020B9
:102B540070B50F4E0C463168054611B900F0AEF859
:102B640030602146284600F0A9F8431C03D14FF0F9
:102B7400FF34204670BDC41C24F00304A042F8D0E6
:102B8400211A284600F09AF80130F2D1EFE700BF8D
:102B94002C0400202DE9F843CD1C25F0030508354D
:102BA4000C2D38BF0C25002D064601DBA94204D9A3
:102BB4000C2333600020BDE8F883DFF8D48000F0F4
:102BC40069F8D8F800301C4644BB29463046FFF764
:102BD400BFFF431C044658D1D8F800402746002FB5
:102BE40043D1002C4BD023683946304604EB03090B
:102BF40000F064F8814542D121686D1A29463046B7
:102C0400FFF7A6FF01303AD023682B442360D8F89D
:102C140000305A6862BBC8F800700FE02268521B8B
:102C240020D40B2A17D96119A342256018BF596013
:102C3400636808BFC8F8001062514B60304600F06A
:102C44002FF804F10B00231D20F00700C21A1CBF4B
:102C54001B1AA350AFE76268A3420CBFC8F8002058
:102C64005A60EBE723466468AEE73C467F68B6E704
:102C74001A465B68A342FBD100235360DEE70C23B2
:102C84003360304600F00CF894E70560D6E700BFE7
:102C940030040020014800F045B800BF7005002052
:102CA400014800F040B800BF70050020024403460C
:102CB400934200D1704703F8011BF9E738B5064D7C
:102CC4000023044608462B60FFF7EAFA431C02D1AE
:102CD4002B6803B1236038BD6C05002070B50D4B23
:102CE4000D4D5B1B9C100026A64209D100F040FA52
:102CF4000A4D0B4B5B1B9C100026A64205D170BDF0
:102D040055F8043B98470136EEE755F8043B9847DD
:102D14000136F2E7B8350008B8350008B8350008C0
:102D2400C8350008704770470A44914200F1FF33E8
:102D340000D1704710B511F8014B03F8014F9142CF
:102D4400F9D110BD38B50546002941D051F8043CED
:102D54000C1F002BB8BFE418FFF79CFF1D4A136833
:102D640033B9636014602846BDE83840FFF798BF64
:102D7400A34208D9206821188B4201BF19685B68F7
:102D840009182160EDE71A465B680BB1A342FAD932
:102D940011685018A0420BD1206801445018834296
:102DA4001160E0D118685B68536008441060DAE78A
:102DB40002D90C232B60D6E7206821188B4204BF6C
:102DC40019685B68636004BF091821605460CAE72E
:102DD40038BD00BF3004002008B5062000F02CF8F0
:102DE4000120FFF77BFA1F2938B505460C4604D9A4
:102DF400162303604FF0FF3038BDC26B12B152F896
:102E040021304BB9284600F031F8224601462846C5
:102E1400BDE8384000F018B8012B0AD0591C03D182
:102E2400162303600120E7E7002142F8241020461E
:102E340098470020E0E70000024B01461868FFF7BE
:102E4400D2BF00BF3000002038B5074D0023044630
:102E5400084611462B60FFF743FA431C02D12B6846
:102E640003B1236038BD00BF6C050020FFF740BAF2
:102E74002DE9F047089D0F4604468C46002B48D1A7
:102E84008A42164661D9B2FA82F34BB1C3F12002E9
:102E940001FA03FC20FA02F29E4042EA0C0C9C4028
:102EA4004FEA164EB7B2BCFBFEF1220C0EFB11CC5E
:102EB40042EA0C4201FB07F0904209D9B21801F131
:102EC400FF3C80F0EE80904240F2EB8002393244C5
:102ED400121AA4B2B2FBFEF00EFB102244EA024422
:102EE40000FB07F7A74209D9341900F1FF3280F03B
:102EF400DA80A74240F2D7803444023840EA0140E5
:102F0400E41B00211DB1DC400023C5E90043BDE8FA
:102F1400F0878B4206D90DB1C5E9000100210846AE
:102F2400BDE8F087B3FA83F1002948D1BB4202D34C
:102F3400824200F20781841A67EB0302012094465F
:102F4400002DE4D0C5E9004CE1E7002A00F09280AE
:102F5400B2FA82F3002B40F0A8808A1A4FEA164E88
:102F64001FFA86FC0121200CB2FBFEF70EFB172290
:102F740040EA02420CFB07F0904207D9B21807F16D
:102F8400FF3802D2904200F2E2804746121AA4B2FD
:102F9400B2FBFEF00EFB102244EA02440CFB00FCE0
:102FA400A44507D9341900F1FF3202D2A44500F236
:102FB400CB801046A4EB0C0440EA0740A2E7C1F121
:102FC40020068B4022FA06FC4CEA030C07FA01F4B3
:102FD40020FA06F3F7404FEA1C49234300FA01F8AC
:102FE4001FFA8CFEB7FBF9F01C0C09FB107744EABE
:102FF400074400FB0EF7A74202FA01F20AD91CEBC0
:10300400040400F1FF3A80F09B80A74240F29880CC
:1030140002386444E41B9FB2B4FBF9F309FB134484
:1030240047EA044403FB0EFEA64509D91CEB04043D
:1030340003F1FF3780F08280A6457FD9023B6444C8
:1030440043EA0040A4EB0E04A0FB02E7BC42734633
:10305400B94663D360D05DB1B8EB030264EB0904F5
:1030640004FA06F622FA01F31E43CC40C5E90064D3
:1030740000214CE76208480842EAC1710B0C43EA9C
:1030840000438AB242EA0342B3FBF6F1E407B446D2
:103094003746B6461F23B0FBF6F0D21B41EA004187
:1030A40061E7614614E7104628E7C3F1200120FADE
:1030B40001F29E4027FA01F19F403A434FEA164E2F
:1030C4001FFA86FCB1FBFEF70EFB1710110C41EA48
:1030D400004107FB0CF8884504FA03F43AD9711847
:1030E40007F1FF3001D288451FD8A1EB0801B1FBDD
:1030F400FEF808FB0CF70EFB181192B242EA0142EB
:10310400BA422FD2B21808F1FF31C6D2BA42C4D2A1
:10311400A8F102013244C0E7F0459CD2BEEB0203A1
:1031240067EB0C070138B94695E7A6EB080841445C
:10313400B81EB1FBFEF808FB0CF7DCE73B467FE763
:10314400504667E70846FBE63444023832E7023F5C
:1031540032441BE7A1EB08013846B1FBFEF808FB3B
:103164000CF7C8E7414698E708B5FFF735FE0000BD
:10317400F8B500BFF8BC08BC9E467047F8B500BF60
:08318400F8BC08BC9E46704730
:10318C002000000021000000C0000000C100000071
:10319C00C4000000C5000000C6000000C70000000D
:1031AC00C8000000C9000000120000001A00000056
:1031BC001B0000001C0000001D0000001E00000091
:1031CC0008000000090000000A0000000B000000CD
:1031DC000C0000000F0000001300000014000000A1
:1031EC0001000000020000000400000008000000C4
:1031FC0010000000200000004000000080000000D3
:10320C0000010000000200000004000000080000A3
:10321C0000100000002000000040000000800000B2
:10322C000000000001020304000000000000000088
:10323C0001020304060708090000000000440040D6
:10324C00120700000B0000000010014012070000E4
:10325C00FFFFFFFF00000000000000000100000065
:10326C0000440040120700000C0000000010014058
:10327C0012070000FFFFFFFF00000000000000002D
:10328C000300000000440040120700000A00000088
:10329C0000100140120700000C0000000014014057
:1032AC001208000017000000001001401207000077
:1032BC00FFFFFFFF00000000000000000200000004
:1032CC0000440040120700000900000000100140FB
:1032DC00120700000B00000000140140120800004F
:1032EC00160000000010014012070000FFFFFFFF56
:1032FC000000000000000000000000000000004082
:10330C001281000000010000000C0040128200003D
:10331C00010000000000004012010100010100004A
:10332C00000C0040120201000200000000000040EE
:10333C001281010002010000000C00401282010009
:10334C000202000000400140128300000300000054
:10335C00000000401201020003010000000C0040BC
:10336C00120202000302000000400140120301009F
:10337C000500000000000040128100000600000063
:10338C000004004012820000070000000000014011
:10339C00128110000701000000040040120201001D
:1033AC00080000000000014012810000090000002C
:1033BC0000000140120101000A0000000000014061
:1033CC00128101000B0000000000014012010200FC
:1033DC000F000000000000401281000010000000EF
:1033EC000000014012011100100100000004004017
:1033FC001282010011000000000001401281110036
:10340C001101000000040040120202001300000031
:10341C0000000040120101001400000000040040F4
:10342C00128200001500000000040040120201008E
:10343C001600000000080040128200001700000077
:10344C0000080040120201001800000000080040B3
:10345C001282010018010000004401401283000098
:10346C0019000000000800401202020019010000BF
:10347C0000480140128300001A00000000000040C8
:10348C00128101001D00000000000140128110009B
:10349C001E00000000000140120111001F0000007E
:1034AC000000014012811100FFFFFFFF000000002F
:1034BC0000000000000000000100000002000000FD
:1034CC0003000000040000000500000006000000DE
:1034DC0007000000100000001100000000000000B8
:1034EC0001000000020000000300000004000000C6
:1034FC0005000000060000000700000008000000A6
:10350C00090000000A0000000B0000000C00000085
:10351C000D0000000E0000000F0000001000000065
:10352C001100000012000000130000001400000045
:10353C001500000016000000170000001800000025
:10354C00190000001A0000001C0000001D00000003
:10355C001E0000001F0000002D0000002E000000C7
:10356C002F00000050000000510000000600070072
:10357C00080000000000000000000000DF2300082D
:10358C008D240008C3230008D925000899230008BE
:10359C00D9270008A9230008132900083529000899
:0435AC000D0A000004
:0835B000E4CBFF7F01000000E5
:1035B80065290008FD010008951800080928000879
:0835C800D90100086D1900088B
:1035D0000100000010000000000002400004024052
:1035E00000080240000C024000100240001C024093
:1035F00000300240000000000024F40078050020A4
:103600003400002000000000340400209C0400204E
:103610000405002000000000000000000000000081
:10362000000000000000000000000000000000009A
:10363000000000000000000000000000000000008A
:10364000000000000000000000000000000000007A
:04000005080029893D
:00000001FF
