:100000000428FF3FFF3FFF3F052883014128F201FD
:10001000F3018312851C0D280E2814281030F207D6
:100020000318F30A0E30F307051D172818281E2899
:100030003030F2070318F30A2A30F307051E21288F
:10004000222828288030F2070318F30A7030F307BB
:10005000851E2B282C283228C030F2070318F30AFB
:10006000A830F30772087304031D372838283C288A
:100070006030F2005430F3007308F1007208F000B1
:100080000800F630831685009F010730831299001F
:10009000850107207108F6007008F500831205102D
:1000A0007608F1007508F0005E20831205143C30DC
:1000B000F0000030F1005E20492804286C2806304A
:1000C000F4001330F300AD30F200F20B6528F30BAF
:1000D0006528F40B65286C280130F0020030031C01
:1000E000F103F102700A031D7928710A031D7928B2
:1000F0007A285F280800FF3FFF3FFF3FFF3FFF3F99
:02400E00C43FAD
:00000001FF
