:100000000428FF3FFF3FFF3F05288312C5018301FE
:10001000DB288312A900C5015725D030DF22003A22
:10002000031D1328142817285F250030DA28003014
:10003000DF22003A031D1D281E281F2814285725DB
:10004000D130DF22003A031D26282728282814282B
:1000500001301D23F90079088312A00001301D230F
:10006000F90079088312A10001301D23F9007908F5
:100070008312A70001301D23F90079088312A20022
:1000800001301D23F90079088312A30001301D23DC
:10009000F90079088312A40000301D23F9007908C3
:1000A0008312A5005F258312450803195828592893
:1000B0005A28152820087F396624F9008312290858
:1000C000840079088313800021087F396624F900B1
:1000D0008312290A8400790883138000271F71285E
:1000E0007228A32827081F396624F900790883128B
:1000F000A800A71A7C287E2801307F280030F9004C
:100100007908A600260803198628872893280C302A
:10011000280603198C288D289A2828080C3EF900F7
:100120007908A8009A280C302806031D98289928D9
:100130009A28A8012808F9002908023E84007908B5
:1001400083138000AE2827083F396624F900831204
:100150002908023E840079088313800022080739A9
:100160006624F90083122908033E8400790883136A
:10017000800023083F396624F90083122908043ED1
:10018000840079088313800024081F396624F9004D
:1001900083122908053E840079088313800025080E
:1001A0006624F90083122908063E84007908831327
:1001B000800001300800FF308312AA002A08B20034
:1001C000FF30AA002A08B300FF30AA002A08B400B2
:1001D000FF30AA002A08B500FF30AA002A08B6009E
:1001E0009A246400B224752533308312AA002A08A9
:1001F000F5003430AB002B08F6003530AC002C088D
:10020000F7003630AD002D08F8003230A72101305C
:10021000262510298025B224752564000130262565
:100220003E302324003A0319162917290A296400AD
:10023000C5238312AA002A08B0003E302324003AC6
:10024000031923292429A0293E308312AA002A0851
:10025000F10030085923003A03192F293029A42925
:1002600083123208AA002A08F0003308AB002B08DA
:10027000F1003408AC002C08F2003508AD002D0860
:10028000F3003608AE002E08F4003E308F238312B0
:10029000AF002F08B1003108031D4F295029A429B0
:1002A0003F08AA002A08F5004208AB002B08F60018
:1002B0004308AC002C08F7004408AD002D08F800F6
:1002C0004008952283124008AA002A08B2003F087D
:1002D000AA002A08B3004208AA002A08B40043086A
:1002E000AA002A08B5004408AA002A08B600662514
:1002F000640037302324003A03197F2980299D297F
:1003000083123208AA002A08F0003308AB002B0839
:10031000F1003408AC002C08F2003508AD002D08BF
:10032000F3003608AE002E08F40037308F23003A71
:10033000031D9B299C299D29A429802519257829FD
:100340008025B2247525FF24192517290428831236
:10035000A10000300C25A53A0319AF29B029B12915
:10036000332A01300C25F90079088312A3000230EA
:100370000C25F90079088312A40003300C25F9003C
:1003800079088312A50004300C25F900790883123E
:10039000A60005300C25F90079088312A20006306A
:1003A0000C25F90079088312A0002408F9007908C7
:1003B000F0002508FA007A08F1002608FB007B0807
:1003C000F2002208FC007C08F30023084F2583126A
:1003D00020060319EC29ED29EE29332A18302302CF
:1003E000031CF329F429F529332A3C302402031C89
:1003F000FA29FB29FC29332A25080319002A012A96
:10040000332A20302502031C062A072A082A332A09
:10041000260803190C2A0D2A332A0D302602031C44
:10042000122A132A142A332A2308F90021088400E7
:100430007908831380002408F9007508840079087E
:1004400080002508F90076088400790880002608D5
:10045000F90077088400790880002208F9007808FC
:100460008400790880000800F000700884003C30A7
:1004700083130002031C3D2A3E2A402A0030942A9E
:10048000700A84003C300002031C472A482A492A8B
:100490003E2A7008023E840018300002031C512AD4
:1004A000522A532A3E2A7008033E8400000803198A
:1004B0005A2A5B2A3E2A7008033E84000830000254
:1004C000031C632A642A652A3E2A7008043E8400BD
:1004D000000803196C2A6D2A3E2A7008043E840025
:1004E00020300002031C752A762A772A3E2A7008DB
:1004F000053E8400000803197E2A7F2A3E2A7008E0
:10050000053E84000D300002031C872A882A892AB0
:100510003E2A7008063E840064300002031C912AC3
:10052000922A932A3E2A013008008312A1007508FE
:10053000F9007908F0007608FA007A08F1007708E7
:10054000FB007B08F2007808FC007C08F30021081F
:100550004F25FD007D088312A0006400F1010030EA
:10056000F42383122108F9007908F1000130F42303
:100570007508F9007908F1000230F4237608F900D3
:100580007908F1000330F4237708F9007908F100C5
:100590000430F4237808F9007908F1000530F423D9
:1005A00083122008F9007908F1000630F423A53001
:1005B000F9007908F1000030F42364000800F50028
:1005C000F701F51FE42AE52AE72A8325E82A6B25A7
:1005D000F1248625F1244824003A031DF02AF12A4B
:1005E000F52A7025832500301C2B7025F12403107B
:1005F000F50D0130F4007408F70708307702031C8A
:10060000022B032BE12A8325F1248625F12448249B
:10061000003A031D0C2B0D2B0E2BF12A7925003AE5
:100620000319132B152B0130162B0030F40074081E
:10063000F6007025F12476080800F500F601832500
:10064000F7010310F60D8625F1244824003A031D16
:100650002A2B2B2B2F2B70258325FF30582B792508
:10066000003A0319342B352B362B76147025F124E0
:100670000130F4007408F70708307702031C412B9F
:10068000422B212B75080319462B472B492B6B2531
:100690004A2B8325F1248625F1244824003A031DA2
:1006A000522B532B542B2B2B7025F12483257608AA
:1006B0000800F400710A8400831300080319612BF9
:1006C000622B782B00308E2B7108023E84000008CC
:1006D00081248E2B7108023E84000008DF248E2BBB
:1006E0007108023E8400000831258E2B01308E2BCC
:1006F0007408F200F3017308003A0319802B622B8F
:100700007208003A0319762B013A0319642B033A55
:1007100003196A2B013A0319702B622B0800F500AC
:100720007508023E84008313000870060319992B94
:100730009A2B9C2B0030C42B750A8400000871068C
:100740000319A32BA42BA52B9A2B7508043E840018
:10075000000872060319AD2BAE2BAF2B9A2B750830
:10076000053E8400000873060319B72BB82BB92B7C
:100770009A2B7508063E8400000874060319C12BE5
:10078000C22BC32B9A2B0130080000308312051AAC
:100790000130F0000030851A0130F1007003031DB4
:1007A000D22BD32BDA2B7108031DD72BD82BDA2BA6
:1007B0000130F32B7008031DDE2BDF2BE62B7103BA
:1007C000031DE32BE42BE62B0230F32B7003031DF8
:1007D000EA2BEB2BF22B7103031DEF2BF02BF22BEB
:1007E0000330F32B00300800F300640073080C257D
:1007F0007106031DFC2BFD2B002C6400222C6400D1
:1008000083169C18042C052CFF2B73089B00710881
:100810009A001C1500308B1B0130F2008B13640012
:10082000553083169D00AA309D009C149C18192CED
:100830001A2C162C1C11720803191F2C202C212C89
:100840008B1764000800FC00FB016400B2247525CE
:100850007C080920003A03192E2C2F2C382C7C08F8
:100860003422003A0319352C362C382C0130472C11
:100870008025B224752519250130FA007A08FB0776
:1008800003307B02031C452C462C252C003008002D
:10089000C830F2000030F3005F2C72087304031DAF
:1008A000522C532C572CC501C50A0030652C013041
:1008B000F2020030031CF303F3026400F1248312FC
:1008C000051D632C642C4D2C01300800F8007808BD
:1008D000F40004300310F40CFF3E031D6A2C74086E
:1008E0000F39F5007508F60078080F39F400740820
:1008F000F7000A30F4007408F0007608CA2477077D
:100900000800F00007307006031D872C882C8A2C05
:100910000130992C0F307006031D8F2C902C912CD8
:10092000882C17307006031D962C972C982C882C39
:100930000030080083169F0183129F010730990041
:1009400083160F088F3960388F000F1483128501CA
:1009500083160510802583258625831605168516A2
:10096000462508008325F3018625F1247025F1240E
:1009700064000130F2007208F30709307302031CAF
:10098000C22CC32CB42C6B25F1248625F12483259D
:10099000F1240800F300F201731CCF2CD02CD42CCE
:1009A0007008F1007108F2070310F00D0310F30C4A
:1009B0007308031DDC2CDD2CCC2C72080800F00021
:1009C0000A307006031DE52CE62CE82C0130F02CD3
:1009D00016307006031DED2CEE2CEF2CE62C0030AB
:1009E0000800F10132307102031CF72CF82CF92CAD
:1009F000FE2C0130F0007008F107F22C0800F10124
:100A00003C250130F0007008F10710307102031C22
:100A10000A2D0B2D002D0800F0000F2D6400831609
:100A20009C18132D142D0E2D70089B001C141A08F1
:100A30000800F1013C250130F0007008F107043096
:100A40007102031C242D252D1A2D0800F2002B2DD8
:100A5000FF240130F2027208031D2F2D302D282DA6
:100A60000800F0000A307006031D372D382D3A2D8E
:100A700001303B2D00300800831281010B11412D04
:100A800064000B1D442D452D402D08008316811256
:100A900081110115811401148B120B110800F4004F
:100AA000740870067106720673065A3A08008325A8
:100AB0008625F1246B25F1247025F12408006B258F
:100AC000F1248625F1248325F12408007D250330B7
:100AD00026258025080083128510831685100800BE
:100AE0008312051183160511080083258625F1243C
:100AF00008008312050C0139080083120514080050
:100B00008312051008008316851408008316051546
:100B10000800FF3FFF3FFF3FFF3FFF3FFF3FFF3F1B
:02400E00CC3FA5
:00000001FF
