:100000000428FF3FFF3FFF3F05288301D2288312CA
:10001000A9003222D0303C21003A031D10281128BB
:1000200014283A220030D12800303C21003A031D28
:100030001A281B281C2811283222D1303C21003AD2
:10004000031D232824282528112801306921F900BF
:1000500079088312A00001306921F9007908831220
:10006000A10001306921F90079088312A70001304D
:100070006921F90079088312A20001306921F90091
:1000800079088312A30001306921F90079088312ED
:10009000A40000306921F90079088312A5003A22F2
:1000A000831220087F399421F900831229088400E3
:1000B00079088313800021087F399421F900831285
:1000C000290A8400790883138000271F682869287B
:1000D0009A2827081F399421F90079088312A8006B
:1000E000A71A73287528013076280030F90079089E
:1000F000A600260803197D287E288A280C302806A9
:10010000031983288428912828080C3EF9007908CF
:10011000A80091280C302806031D8F2890289128CC
:10012000A8012808F9002908023E840079088313F1
:100130008000A52827083F399421F9008312290857
:10014000023E840079088313800022080739942135
:10015000F90083122908033E840079088313800084
:1001600023083F399421F90083122908043E8400B2
:1001700079088313800024081F399421F900831221
:100180002908053E840079088313800025089421FE
:10019000F90083122908063E840079088313800041
:1001A00001300800FF30FA007A088312AB00FF30FC
:1001B000FA007A08AC00FF30FA007A08AD00AF21EF
:1001C00051220230DB21023016222F300720003A64
:1001D000031DEB28EC28ED2841220430DB212F30D1
:1001E0000720003A0319F528F62838290A30831227
:1001F0003106031DFC28FD2839293008031D01297B
:1002000002293929AE0133082B06031D08290929C3
:10021000172934082C06031D0E290F291729350824
:100220002D06031D142915291729AE01AE0A2E0823
:10023000031D1B291D2901301E290030FA007A08F0
:10024000AA002A08031D2529262939295922053003
:1002500016225C2283123308FA007A08AB003408B5
:10026000FA007A08AC003508FA007A08AD0039299E
:100270004122FC21EF280428F300F501F31F412956
:10028000422944295F2245294722EE216222EE219C
:100290004C22EE210310F30D0130F2007208F50735
:1002A00008307502031C552956293E295F22EE218C
:1002B0006222EE215522003A03195F29612901309B
:1002C00062290030F2007208F4004C22EE2174081A
:1002D0000800F300F4015F22F5010310F40D62221F
:1002E000EE215522003A03197629772978297414CA
:1002F0004C22EE210130F2007208F5070830750239
:10030000031C832984296D297308031988298929E5
:100310008B2947228C295F22EE216222EE214C227A
:10032000EE215F2274080800F8007808F400043019
:100330000310F40CFF3E031D982974080F39F500D3
:100340007508F60078080F39F4007408F7000A30D1
:10035000F4007408F0007608C621770708008316B9
:100360009F0183129F010730990083160F088F3970
:1003700060388F000F10FE308500831285018316D0
:1003800005105C225F22622221220800F300F201A4
:10039000731CCB29CC29D0297008F1007108F20711
:1003A0000310F00D0310F30C7308031DD829D9298D
:1003B000C82972080800F300F401E6295922FC213B
:1003C0005C22FC210130F2007208F4077308740209
:1003D000031CEB29EC29DE2909220800F101323047
:1003E0007102031CF429F529F629FB290130F000DC
:1003F0007008F107EF290800F1012A220130F0000E
:100400007008F10704307102031C072A082AFD292D
:100410000800F1012A220130F0007008F1071030C5
:100420007102031C142A152A0A2A0800F2001B2A4A
:1004300009220130F2027208031D1F2A202A182AFD
:1004400008008316811281110115811401148B1289
:100450000B110800831281010B110B1D302A312A68
:100460002D2A08005F226222EE214722EE214C2233
:10047000EE2108004722EE216222EE215F22EE21CA
:100480000800592209225C220922412A080083120D
:100490008510831685100800831205118316051137
:1004A00008005F226222EE2108008312050C013948
:1004B0000800831205140800831205100800831633
:1004C00085140800831605150800FF3FFF3FFF3F16
:02400E00C43FAD
:00000001FF
