:100000000428FF3FFF3FFF3F05288301CD28F8006C
:10001000F901FA017808F600F7017608F000770890
:10002000F1006430F2000030F30052207108FC004F
:100030007008FB007B087C04031D1F28202829284A
:100040008312051D24282528272801305128003037
:100050005128831205192D282E283728F901FA0175
:10006000B320003A031935283628292827281E21CD
:100070008312051D3C283D284E280130F90703183E
:10008000FA0A0030FA077C087A02031D49287B0827
:100090007902031C4C284D2829282528F901FA014A
:1000A00029280800F401F501701C572858285E28FB
:1000B0007208F4070318F50A7308F50701300310F6
:1000C000F20DF30DFF3E031D5F2801300310F10C0C
:1000D000F00CFF3E031D662870087104031D712893
:1000E000722854287508F1007408F000080083167F
:1000F0000F088F3960388F000F149F01073083126B
:10010000990085013E308316850095018117811283
:10011000811101158114011496018B130B138B129D
:100120000B128B110B118B100B1083128101051018
:100130000800F101831205199E289F28A12800308C
:10014000B2281E210130F0007008F1070230710260
:10015000031CAB28AC289A288312051DB028B128AF
:100160009F2801300800F1018312051DB828B92825
:10017000BB280030CC281E210130F0007008F107A8
:1001800002307102031CC528C628B4288312051941
:10019000CA28CB28B928013008007720831205101F
:1001A000F7208312051005212F21D72828210A3096
:1001B0000720003A031DDD28DE28D628831205100B
:1001C000D0280428F1010C30831281000B110B1D83
:1001D000EA28EB28E7280B110130F0007008F1073E
:1001E00010307102031CF528F628E3280800F928CE
:1001F0001E2183120519FD28FE28F828B320003A95
:10020000031903290429F728080007291E2183124E
:10021000051D0B290C2906299920003A03191129DB
:10022000122905290800F2001829E2200130F20203
:100230007208031D1C291D2915290800D9308312B5
:1002400081000B110B1D2529262922290B110800DD
:100250008312051403301321831205100800831242
:1002600005100530132128210800FF3FFF3FFF3F05
:02400E00C43FAD
:00000001FF
