:02000000FD2FD2
:100EEA007908831285000800E130831281000B1112
:100EFA000B1D802F812F7D2F0B110800F100710827
:100F0A000319882F892F8B2FF9168F2FDF30F000C6
:100F1A007008F9057527080083160F088F3960389D
:100F2A008F000F149F0183129F01073099000C3024
:100F3A0083168500811281110108F839043881006D
:100F4A008117F90175270030832708009127F701D7
:100F5A00F501F601F301F40179270030831205192E
:100F6A000130F80078087706031DBC2FBD2FC02F6B
:100F7A00F501F601DD2F003076020A3003197502F9
:100F8A000318C82FC92FCF2F0130F5070318F60A07
:100F9A000030F607003076020A3003197502031C86
:100FAA00D72FD82FDD2F7808F2007208F700BD2F4F
:100FBA0077080319E12FE22FF72F133074028830D4
:100FCA00031973020318EA2FEB2FF42F0130F307EA
:100FDA000318F40A0030F40700308327B12F0130D8
:100FEA008327B12FF301F40100308327B12F0028A2
:060FFA00F9018301AB2F99
:02400E00E43399
:00000001FF
