:020000040800F2
:10000000000001208D0B0008790A0008810A000811
:10001000890A0008910A0008990A000800000000F7
:10002000000000000000000000000000A10A00081D
:10003000AF0A000800000000BD0A0008CB0A000853
:10004000DD0B0008DD0B0008DD0B0008DD0B0008F0
:10005000DD0B0008DD0B0008DD0B0008DD0B0008E0
:10006000DD0B0008DD0B0008DD0B0008DD0B0008D0
:10007000DD0B0008DD0B0008DD0B0008DD0B0008C0
:10008000DD0B0008DD0B0008DD0B000800000000A0
:10009000000000000000000000000000DD0B000870
:1000A000DD0B0008DD0B0008DD0B0008DD0B000890
:1000B000DD0B0008D90A0008DD0B0008DD0B000885
:1000C000DD0B0008DD0B0008DD0B0008DD0B000870
:1000D000DD0B0008DD0B0008DD0B00080000000050
:1000E000ED0A0008DD0B0008DD0B00080000000031
:1000F000000000000000000000000000DD0B000810
:1001000000000000DD0B0008DD0B0008DD0B00081F
:1001100000000000000000000000000000000000DF
:10012000DD0B0008DD0B0008DD0B0008DD0B00080F
:10013000DD0B0008000000000000000000000000CF
:10014000000000000000000000000000DD0B0008BF
:10015000DD0B0008DD0B0008DD0B0008DD0B0008DF
:10016000DD0B0008DD0B00080000000000000000AF
:10017000000000000000000000000000000000007F
:1001800000000000DD0B000800000000000000007F
:04019000DD0B00087B
:1001A00010B5054C237833B9044B13B10448AFF3B1
:1001B00000800123237010BD6000002000000000BB
:1001C000CC2F000808B5034B1BB103490348AFF31C
:1001D000008008BD0000000064000020CC2F000853
:1001E00001F0FF01102A2BDB10F0070F08D010F8E8
:1001F000013B013A8B422DD010F0070F42B3F6D1EC
:10020000F0B441EA012141EA014122F007047FF004
:1002100000070023F0E80256083C85EA010586EA5B
:10022000010685FA47F5A3FA87F586FA47F6A5FA97
:1002300087F68EB9EED1F0BC01F0FF0102F00702A3
:1002400032B110F8013B013A83EA010313B1F8D14E
:100250000020704701387047002D06BF354603382F
:10026000073815F0010F07D1013015F4807F02BF68
:10027000013015F4C03F0130F0BC0138704700BFB9
:1002800053B94AB9002908BF00281CBF4FF0FF31FD
:100290004FF0FF3000F088B9ADF1080C6DE904CEE5
:1002A00000F006F8DDF804E0DDE9022304B0704751
:1002B0002DE9F047089D8E4604468846002B4AD11A
:1002C0008A42174662D9B2FA82F64EB1C6F12003CD
:1002D00001FA06F820FA03F3B74043EA0808B440ED
:1002E0004FEA174E1FFA87FCB8FBFEF1230C0EFBFA
:1002F000118843EA084301FB0CF29A4209D9FB1822
:1003000001F1FF3080F0EA809A4240F2E780023942
:100310003B449A1AA3B2B2FBFEF00EFB102243EA52
:10032000024300FB0CFC9C4509D9FB1800F1FF328D
:1003300080F0D6809C4540F2D3803B44023840EAAE
:100340000140A3EB0C0300211DB1F3400022C5E9DD
:100350000032BDE8F0878B4205D90DB1C5E9000137
:1003600000210846F5E7B3FA83F1002946D1734529
:1003700002D3824200F20581841A6EEB030201204F
:100380009046002DE5D0C5E90048E2E7002A00F0DC
:100390009080B2FA82F6002E40F0A4808A1A030CF4
:1003A0004FEA174E80B2BCB20121B2FBFEFC0EFB3D
:1003B0001C2243EA024304FB0CF29A4207D9FB18C1
:1003C0000CF1FF3802D29A4200F2E080C4469B1A38
:1003D000B3FBFEF20EFB123340EA034302FB04F4CC
:1003E0009C4207D9FB1802F1FF3002D29C4200F276
:1003F000CA8002461B1B42EA0C40A5E7C1F1200659
:100400008B4022FA06F71F430EFA01F420FA06F396
:100410002EFA06FE4FEA1749234300FA01F81FFAA5
:1004200087FCBEFBF9F01C0C09FB10EE44EA0E44FD
:1004300000FB0CFEA64502FA01F209D93C1900F1B5
:10044000FF3A80F09C80A64540F2998002383C44F7
:10045000A4EB0E041FFA83FEB4FBF9F309FB13446B
:100460004EEA044403FB0CFCA44508D93C1903F1F3
:10047000FF3E80F08280A4457FD9023B3C4443EAA2
:100480000040A4EB0C04A0FB02EC64457346E1467B
:1004900062D35FD05DB1B8EB030264EB090404FAE8
:1004A00006F622FA01F31E43CC40C5E900640021A0
:1004B0004FE7B1FBF2FC010C41EA0E4180B240EA89
:1004C00001423B4638463C46B846BE462026B1FB74
:1004D000F7F1A2EB080241EA0C4166E7014618E792
:1004E00010462CE7C6F120022EFA02F3B740B140C5
:1004F00020FA02F24FEA174E0A43B3FBFEF8BCB2F1
:100500000EFB1833110C41EA034108FB04F9B0401B
:1005100089454FEA104380B23ED9791808F1FF3C73
:1005200001D289451FD8A1EB0901B1FBFEF909FBF6
:1005300004F80EFB191192B242EA0142424529D257
:10054000BA1809F1FF31C4D24245C2D2A9F1020161
:100550003A44BEE7F0459DD2BEEB02036CEB070CBC
:100560000138E14696E7A7EB09094944A8F1020CD6
:10057000B1FBFEF909FB04F8DBE773467FE7504661
:1005800066E70846FDE63B44023A33E7ACF1020C6D
:100590003B441CE749469CE7A1EB0901C446B1FB7B
:1005A000FEF909FB04F8C4E7704700BF80B500AF4F
:1005B00000F07CFB0346184680BD000080B584B087
:1005C00002AF0346FB71FA1D3223009301234E2133
:1005D000034800F06DFF00BF0837BD4680BD00BF77
:1005E000C400002080B584B000AF03460A46FB710A
:1005F0001346BB7197F907301B015AB2BB79002B28
:1006000014BF01230023DBB25BB213435AB20C4B7D
:100610001B785BB213435BB2FB73FB7B43F00403B9
:10062000BB73BB7B1846FFF7C9FFFB7B1846FFF780
:10063000C5FF052000F046FB00BF1037BD4680BD5A
:100640000000002080B582B000AF0346FB71FB794B
:100650001B09DBB200211846FFF7C4FFFB7903F04A
:100660000F03DBB200211846FFF7BCFF00BF0837BD
:10067000BD4680BD80B582B000AF0346FB71FB79FB
:100680001B09DBB201211846FFF7ACFFFB7903F031
:100690000F03DBB201211846FFF7A4FF00BF0837A4
:1006A000BD4680BD80B500AF322000F00BFB0021BD
:1006B0000320FFF797FF0A2000F004FB002103202E
:1006C000FFF790FF0A2000F0FDFA00210320FFF75A
:1006D00089FF0A2000F0F6FA00210220FFF782FFCE
:1006E0002820FFF7AFFF0C20FFF7ACFF0620FFF735
:1006F000A9FF0120FFF7A6FF052000F0E3FA00BFE5
:1007000080BD000080B582B000AF03460A46FB7191
:100710001346BB71BB79084AD25CFB791344DBB248
:100720005BB263F07F035BB2DBB21846FFF78AFF70
:1007300000BF0837BD4680BDF82F000880B500AF68
:100740000120FFF77FFF052000F0BCFA00BF80BD4D
:1007500080B582B000AF786006E07B685A1C7A6092
:100760001B781846FFF786FF7B681B78002BF4D1B7
:1007700000BF00BF0837BD4680BD0FB480B58AB04A
:1007800000AF07F134037B6007F108007B683A6B28
:10079000202101F08FFF07F108031846FFF7D8FF6B
:1007A00000BF2837BD46BDE8804004B07047000058
:1007B00080B582B000AF00F013FA00F031F800F01D
:1007C000BBF800F08FF8FFF76DFFFFF7B7FF0021D0
:1007D0000020FFF797FF0F48FFF7BAFFFFF7E6FE8D
:1007E0007860FFF7E3FE02467B68D31AB3F57A7FA1
:1007F000F7D3FFF7DBFE786001210020FFF782FFCF
:100800007B68054AA2FB03239B0919460348FFF7AF
:10081000B4FFE6E7E42F0008D34D6210EC2F000888
:1008200080B594B000AF07F12003302200211846B4
:1008300001F04EFF07F10C0300221A605A609A6023
:10084000DA601A610023BB60244B1B6C234A43F01F
:1008500080531364214B1B6C03F08053BB60BB6857
:1008600000237B601E4B1B6823F440431C4A43F467
:10087000004313601A4B1B6803F440437B607B68A2
:1008800002233B620123FB6210233B630223BB6311
:100890000023FB6310233B644FF4A8737B640423A1
:1008A000BB640723FB6407F12003184601F05AF9E3
:1008B0000F23FB6002233B6100237B614FF48053D5
:1008C000BB610023FB6107F10C030221184601F014
:1008D000C1FB00BF5037BD4680BD00BF003802409D
:1008E0000070004080B500AF104B114A1A600F4BEA
:1008F000104A5A600D4B00229A600C4B0022DA60BD
:100900000A4B4FF480421A61084B00225A61074B90
:1009100000229A61054B0022DA61044B00221A6220
:10092000024800F081FC00BF80BD00BFC400002071
:1009300000540040A086010080B586B000AF0023BF
:100940003B60134B1B6B124A43F002031363104BC3
:100950001B6B03F002033B603B683B1D00221A60E7
:100960005A609A60DA601A614FF440737B60122318
:10097000BB600123FB6003233B6104237B613B1DC0
:100980001946044800F0A8FA00BF1837BD4680BDDC
:10099000003802400004024080B483B000AF00235E
:1009A0007B60104B5B6C0F4A43F4804353640D4BE8
:1009B0005B6C03F480437B607B6800233B60094BE6
:1009C0001B6C084A43F080531364064B1B6C03F006
:1009D00080533B603B6800BF0C37BD465DF8047B2D
:1009E000704700BF0038024080B58AB000AF786021
:1009F00007F1140300221A605A609A60DA601A61E3
:100A00007B681B68194A93422BD100233B61184B2A
:100A10001B6B174A43F002031363154B1B6B03F068
:100A200002033B613B69C0237B611223BB6100234E
:100A3000FB6103233B6204237B6207F11403194625
:100A40000C4800F049FA0023FB60094B1B6C084A74
:100A500043F400131364064B1B6C03F40013FB6098
:100A6000FB6800BF2837BD4680BD00BF0054004072
:100A7000003802400004024080B400AF00BFFDE730
:100A800080B400AF00BFFDE780B400AF00BFFDE75A
:100A900080B400AF00BFFDE780B400AF00BFFDE74A
:100AA00080B400AF00BFBD465DF8047B704780B4E2
:100AB00000AF00BFBD465DF8047B704780B400AF57
:100AC00000BFBD465DF8047B704780B500AF00F005
:100AD000D9F800BF80BD000080B500AF024801F02A
:100AE00085FC00BF80BD00BF7C00002080B500AF4A
:100AF0004FF4805000F074FB00BF80BD80B586B01D
:100B000000AF7860144A154BD31A7B617B693B6157
:100B1000134B1B68002B02D1114B124A1A60104B69
:100B20001A687B6813443A699A4207D201F0D8FDEB
:100B300003460C221A604FF0FF3309E0084B1B6894
:100B4000FB60074B1A687B681344054A1360FB6817
:100B500018461837BD4680BD000001200004000083
:100B6000180100206802002080B400AF064BD3F8C3
:100B70008830054A43F47003C2F8883000BFBD4690
:100B80005DF8047B704700BF00ED00E0DFF834D073
:100B9000FFF7EAFF0C480D490D4A002302E0D45844
:100BA000C4500433C4188C42F9D30A4A0A4C0023B7
:100BB00001E013600432A242FBD301F097FDFFF77E
:100BC000F7FD7047000001200000002060000020B9
:100BD000583000086000002068020020FEE7000096
:100BE00080B500AF0E4B1B680D4A43F400731360D1
:100BF0000B4B1B680A4A43F480631360084B1B6865
:100C0000074A43F480731360032000F031F90F208A
:100C100000F008F8FFF7C0FE0023184680BD00BFB3
:100C2000003C024080B582B000AF7860124B1A6879
:100C3000124B1B7819464FF47A73B3FBF1F3B2FBF6
:100C4000F3F3184600F03BF90346002B01D00123D3
:100C50000EE07B680F2B0AD8002279684FF0FF3036
:100C600000F011F9064A7B681360002300E00123BD
:100C700018460837BD4680BD040000200C00002047
:100C80000800002080B400AF064B1B781A46064BC4
:100C90001B681344044A136000BFBD465DF8047B23
:100CA000704700BF0C0000201C01002080B400AF82
:100CB000034B1B681846BD465DF8047B704700BFB8
:100CC0001C01002080B584B000AF7860FFF7EEFF14
:100CD000B8607B68FB60FB68B3F1FF3F05D00A4B4F
:100CE0001B781A46FB681344FB6000BFFFF7DEFF6A
:100CF0000246BB68D31AFA689A42F7D800BF00BF11
:100D00001037BD4680BD00BF0C00002080B485B008
:100D100000AF78607B6803F00703FB600C4BDB6877
:100D2000BB60BA684FF6FF031340BB60FB681A0252
:100D3000BB68134343F0BF6343F40033BB60044A12
:100D4000BB68D36000BF1437BD465DF8047B7047B5
:100D500000ED00E080B400AF044BDB681B0A03F039
:100D600007031846BD465DF8047B704700ED00E0C0
:100D700080B483B000AF03463960FB7197F9073048
:100D8000002B0ADB3B68DAB20C4997F907301201F5
:100D9000D2B20B4483F800230AE03B68DAB2084978
:100DA000FB7903F00F03043B1201D2B20B441A7615
:100DB00000BF0C37BD465DF8047B704700E100E0E2
:100DC00000ED00E080B489B000AFF860B9607A60EF
:100DD000FB6803F00703FB61FB69C3F10703042B06
:100DE00028BF0423BB61FB690433062B02D9FB69CE
:100DF000033B00E000237B614FF0FF32BB6902FA46
:100E000003F3DA43BB681A407B699A404FF0FF3125
:100E10007B6901FA03F3D9437B680B4013431846FF
:100E20002437BD465DF8047B7047000080B582B072
:100E300000AF78607B68013BB3F1807F01D3012371
:100E40000FE00A4A7B68013B53600F214FF0FF30EF
:100E5000FFF78EFF054B00229A60044B07221A60B1
:100E6000002318460837BD4680BD00BF10E000E0F3
:100E700080B582B000AF78607868FFF747FF00BFA9
:100E80000837BD4680BD80B586B000AF0346B96067
:100E90007A60FB7300237B61FFF75CFF78617A68FF
:100EA000B9687869FFF78EFF024697F90F3011464F
:100EB0001846FFF75DFF00BF1837BD4680BD80B5FF
:100EC00082B000AF78607868FFF7B0FF034618463D
:100ED0000837BD4680BD000080B489B000AF78609F
:100EE000396000237B6100233B610023BB61002349
:100EF000FB6159E10122FB6902FA03F37B613B6864
:100F00001B687A6913403B613A697B699A4240F0F9
:100F100048813B685B6803F00303012B05D03B6805
:100F20005B6803F00303022B30D17B689B68BB61D5
:100F3000FB695B00032202FA03F3DB43BA69134047
:100F4000BB613B68DA68FB695B0002FA03F3BA69CC
:100F50001343BB617B68BA699A607B685B68BB615D
:100F60000122FB6902FA03F3DB43BA691340BB6158
:100F70003B685B681B0903F00102FB6902FA03F39B
:100F8000BA691343BB617B68BA695A603B685B68A6
:100F900003F00303032B17D07B68DB68BB61FB699D
:100FA0005B00032202FA03F3DB43BA691340BB611F
:100FB0003B689A68FB695B0002FA03F3BA69134362
:100FC000BB617B68BA69DA603B685B6803F0030366
:100FD000022B23D1FB69DA087B68083253F82230F0
:100FE000BB61FB6903F007039B000F2202FA03F3C6
:100FF000DB43BA691340BB613B681A69FB6903F0C4
:1010000007039B0002FA03F3BA691343BB61FB6950
:10101000DA087B680832B96943F822107B681B68DC
:10102000BB61FB695B00032202FA03F3DB43BA698D
:101030001340BB613B685B6803F00302FB695B0024
:1010400002FA03F3BA691343BB617B68BA691A6099
:101050003B685B6803F44033002B00F0A280002360
:10106000FB60574B5B6C564A43F480435364544BCC
:101070005B6C03F48043FB60FB68524AFB699B088E
:10108000023352F82330BB61FB6903F003039B007A
:101090000F2202FA03F3DB43BA691340BB617B689A
:1010A000494A934219D07B68484A934213D07B68DF
:1010B000474A93420DD07B68464A934207D07B68EB
:1010C000454A934201D1042308E0072306E00323A5
:1010D00004E0022302E0012300E00023FA6902F0A9
:1010E000030292009340BA691343BB613549FB691F
:1010F0009B080233BA6941F82320384B9B68BB61D7
:101100003B69DB43BA691340BB613B685B6803F42E
:101110008013002B03D0BA693B691343BB612F4A8C
:10112000BB6993602D4BDB68BB613B69DB43BA69EC
:101130001340BB613B685B6803F40013002B03D0D2
:10114000BA693B691343BB61244ABB69D360234B33
:101150005B68BB613B69DB43BA691340BB613B68B9
:101160005B6803F40033002B03D0BA693B69134377
:10117000BB611A4ABB695360184B1B68BB613B6972
:10118000DB43BA691340BB613B685B6803F480339F
:10119000002B03D0BA693B691343BB610F4ABB699B
:1011A0001360FB690133FB61FB690F2B7FF6A2AE75
:1011B00000BF00BF2437BD465DF8047B704700BF09
:1011C00000380240003801400000024000040240A4
:1011D00000080240000C024000100240003C0140A8
:1011E00080B582B000AF0346FB80084B5A69FB888C
:1011F0001340002B06D0054AFB885361FB88184634
:1012000000F006F800BF0837BD4680BD003C014035
:1012100080B483B000AF0346FB8000BF0C37BD46EF
:101220005DF8047B7047000080B584B000AF786043
:101230007B68002B01D101232BE17B6893F83D30C3
:10124000DBB2002B06D17B68002283F83C20786853
:10125000FFF7CAFB7B68242283F83D207B681B686C
:101260001A687B681B6822F001021A607B681B68A1
:101270001A687B681B6842F400421A607B681B682E
:101280001A687B681B6822F400421A6001F09AF821
:10129000F8607B685B68814A934207D8FB68804AA4
:1012A000934294BF01230023DBB206E0FB687D4A32
:1012B000934294BF01230023DBB2002B01D0012312
:1012C000E7E0FB68784AA2FB03239B0CBB607B68CA
:1012D0001B685B6823F03F017B681B68BA680A43A0
:1012E0005A607B681B681B6A23F03F017B685B6860
:1012F0006A4A934202D8BB68013309E0BB684FF4E5
:10130000967202FB03F3694AA2FB03239B09013394
:101310007A6812680B4313627B681B68DB6923F4ED
:101320004F4222F0FF027B685B685C498B4219D810
:10133000FB68591E7B685B685B00B1FBF3F3591CCB
:1013400040F6FC730B40002B0AD0FB68591E7B68EB
:101350005B685B00B1FBF3F30133C3F30B0351E0B4
:1013600004234FE07B689B68002B11D1FB68581E5B
:101370007B6859680B465B000B44B0FBF3F3013309
:10138000C3F30B03002B0CBF01230023DBB212E0DD
:10139000FB68581E7B6859680B469B000B449900FC
:1013A0000B44B0FBF3F30133C3F30B03002B0CBF6F
:1013B00001230023DBB2002B01D0012322E07B6854
:1013C0009B68002B0ED1FB68581E7B6859680B4642
:1013D0005B000B44B0FBF3F30133C3F30B0343F4A3
:1013E00000430FE0FB68581E7B6859680B469B0062
:1013F0000B4499000B44B0FBF3F30133C3F30B032D
:1014000043F44043796809681343CB617B681B68E8
:101410001B6823F0C0017B68DA697B681B6A1A438A
:101420007B681B680A431A607B681B689B6823F40F
:10143000034323F0FF037A6811697A68D268114385
:101440007A6812680B4393607B681B68DB6823F043
:10145000FF017B685A697B689B691A437B681B683C
:101460000A43DA607B681B681A687B681B6842F075
:1014700001021A607B6800221A647B68202283F8CC
:101480003D207B6800221A637B68002283F83E209F
:10149000002318461037BD4680BD00BFA08601005E
:1014A0007F841E00FF083D0083DE1B43D34D621086
:1014B00080B588B002AFF8607A601A460B467B812F
:1014C00013463B81FFF7F2FB7861FB6893F83D30F0
:1014D000DBB2202B40F0E0807B69009319230122CE
:1014E0007049F86800F064F90346002B01D002232C
:1014F000D3E0FB6893F83C30012B01D10223CCE010
:10150000FB68012283F83C20FB681B681B6803F022
:101510000103012B07D0FB681B681A68FB681B6876
:1015200042F001021A60FB681B681A68FB681B68BE
:1015300022F400621A60FB68212283F83D20FB68D8
:10154000102283F83E20FB6800221A64FB687A6848
:101550005A62FB683A895A85FB685B8D9AB2FB68D0
:101560001A85FB68504ADA6279897B693A6AF868B9
:1015700000F09CF80346002B01D001238DE00023EE
:101580003B61FB681B685B693B61FB681B689B698F
:101590003B613B6966E07A69396AF86800F022FAD3
:1015A0000346002B0DD0FB681B6C042B07D1FB6896
:1015B0001B681A68FB681B6842F400721A600123FA
:1015C0006BE0FB685B6A1A78FB681B681A61FB6852
:1015D0005B6A5A1CFB685A62FB685B8D9BB2013BDD
:1015E0009AB2FB685A85FB681B8D013B9AB2FB6877
:1015F0001A85FB681B685B6903F00403042B1BD18D
:10160000FB681B8D002B17D0FB685B6A1A78FB68A0
:101610001B681A61FB685B6A5A1CFB685A62FB68AC
:101620005B8D9BB2013B9AB2FB685A85FB681B8DB0
:10163000013B9AB2FB681A857A69396AF86800F04A
:1016400019FA0346002B0DD0FB681B6C042B07D145
:10165000FB681B681A68FB681B6842F400721A601A
:1016600001231AE0FB681B8D002B94D1FB681B68DB
:101670001A68FB681B6842F400721A60FB6820223B
:1016800083F83D20FB68002283F83E20FB6800229F
:1016900083F83C20002300E0022318461837BD469B
:1016A00080BD00BF020010000000FFFF80B588B0C1
:1016B00002AFF8607A603B600B467B81FB68DB6AB7
:1016C0007B617B69082B06D07B69012B03D07B698A
:1016D00013F5803F08D1FB681B681A68FB681B681C
:1016E00042F480721A600BE0FB681B6B122B07D16F
:1016F000FB681B681A68FB681B6842F480721A60FA
:101700003B6800937B6800224FF00111F86800F0FD
:101710004FF80346002B0DD0FB681B681B6803F4D1
:101720008073B3F5807F03D1FB684FF400721A64B5
:10173000032335E0FB681B69B3F5804F08D17B8933
:10174000DBB21A46FB681B6802F0FE021A611BE05E
:101750007B89DB11DBB203F00603DBB263F00F031E
:10176000DAB2FB681B681A613B687A680E49F86850
:1017700000F098F80346002B01D0012310E07B898C
:10178000DAB2FB681B681A613B687A680749F86837
:1017900000F088F80346002B01D0012300E000236D
:1017A00018461837BD4680BD080001000200010040
:1017B00080B584B000AFF860B9603B601346FB7140
:1017C00048E03B68B3F1FF3F44D0FFF76FFA0246B1
:1017D000BB69D31A3A689A4202D33B68002B39D1CD
:1017E000BB681B0CDBB2012B0DD1FB681B685B696E
:1017F000DA43BB6813409BB2002B0CBF01230023CC
:10180000DBB21A460CE0FB681B689B69DA43BB68D5
:1018100013409BB2002B0CBF01230023DBB21A46FE
:10182000FB799A4216D1FB6800221A63FB682022DA
:1018300083F83D20FB68002283F83E20FB681B6C88
:1018400043F02002FB681A64FB68002283F83C2006
:10185000012323E0BB681B0CDBB2012B0DD1FB681D
:101860001B685B69DA43BB6813409BB2002B0CBF5B
:1018700001230023DBB21A460CE0FB681B689B695E
:10188000DA43BB6813409BB2002B0CBF012300233B
:10189000DBB21A46FB799A4293D0002318461037E0
:1018A000BD4680BD80B584B000AFF860B9607A6095
:1018B0003B6071E0FB681B685B6903F48063B3F510
:1018C000806F23D1FB681B681A68FB681B6842F4B1
:1018D00000721A60FB681B686FF480625A61FB68D3
:1018E00000221A63FB68202283F83D20FB68002257
:1018F00083F83E20FB681B6C43F00402FB681A640B
:10190000FB68002283F83C20012367E07B68B3F189
:10191000FF3F41D0FFF7CAF902463B68D31A7A6805
:101920009A4202D37B68002B36D1BB681B0CDBB21A
:10193000012B0CD1FB681B685B69DA43BB68134061
:101940009BB2002B14BF01230023DBB20BE0FB682A
:101950001B689B69DA43BB6813409BB2002B14BF22
:1019600001230023DBB2002B16D0FB6800221A6390
:10197000FB68202283F83D20FB68002283F83E208C
:10198000FB681B6C43F02002FB681A64FB680022B2
:1019900083F83C20012321E0BB681B0CDBB2012B48
:1019A0000CD1FB681B685B69DA43BB6813409BB2D0
:1019B000002B14BF01230023DBB20BE0FB681B6884
:1019C0009B69DA43BB6813409BB2002B14BF012311
:1019D0000023DBB2002B7FF46DAF002318461037D5
:1019E000BD4680BD80B584B000AFF860B9607A6054
:1019F00034E0F86800F086F80346002B01D001239C
:101A000034E0BB68B3F1FF3F28D0FFF74FF902463F
:101A10007B68D31ABA689A4202D3BB68002B1DD1E7
:101A2000FB681B685B6903F08003802B16D0FB68A2
:101A300000221A63FB68202283F83D20FB68002205
:101A400083F83E20FB681B6C43F02002FB681A649D
:101A5000FB68002283F83C20012307E0FB681B6839
:101A60005B6903F08003802BC3D100231846103735
:101A7000BD4680BD80B584B000AFF860B9607A60C3
:101A800034E0F86800F03EF80346002B01D0012353
:101A900034E0BB68B3F1FF3F28D0FFF707F90246F7
:101AA0007B68D31ABA689A4202D3BB68002B1DD157
:101AB000FB681B685B6903F00403042B16D0FB680A
:101AC00000221A63FB68202283F83D20FB68002275
:101AD00083F83E20FB681B6C43F02002FB681A640D
:101AE000FB68002283F83C20012307E0FB681B68A9
:101AF0005B6903F00403042BC3D10023184610379D
:101B0000BD4680BD80B483B000AF78607B681B6841
:101B10005B6903F48063B3F5806F1BD17B681B683E
:101B20006FF480625A617B6800221A637B6820220E
:101B300083F83D207B68002283F83E207B681B6C85
:101B400043F004027B681A647B68002283F83C201F
:101B5000012300E0002318460C37BD465DF8047BE6
:101B60007047000080B586B000AF78607B68002BBE
:101B700001D1012367E27B681B6803F00103002B9E
:101B800075D0884B9B6803F00C03042B0CD0854B5D
:101B90009B6803F00C03082B12D1824B5B6803F4A3
:101BA0008003B3F5800F0BD17E4B1B6803F4003329
:101BB000002B5BD07B685B68002B57D1012342E28E
:101BC0007B685B68B3F5803F06D1764B1B68754A2E
:101BD00043F4803313601DE07B685B68B3F5A02F8E
:101BE0000CD1704B1B686F4A43F4802313606D4B1C
:101BF0001B686C4A43F4803313600BE0694B1B682D
:101C0000684A23F480331360664B1B68654A23F4EB
:101C1000802313607B685B68002B13D0FFF746F8C6
:101C2000386108E0FFF742F802463B69D31A642B9B
:101C300001D9032307E25B4B1B6803F40033002B3D
:101C4000F0D014E0FFF732F8386108E0FFF72EF823
:101C500002463B69D31A642B01D90323F3E1514BAC
:101C60001B6803F40033002BF0D100E000BF7B6859
:101C70001B6803F00203002B63D04A4B9B6803F000
:101C80000C03002B0BD0474B9B6803F00C03082B75
:101C90001CD1444B5B6803F48003002B16D1414BED
:101CA0001B6803F00203002B05D07B68DB68012B67
:101CB00001D00123C7E13B4B1B6823F0F8027B688E
:101CC0001B69DB00374913430B603AE07B68DB6834
:101CD000002B20D0344B01221A60FEF7E7FF386159
:101CE00008E0FEF7E3FF02463B69D31A022B01D955
:101CF0000323A8E12B4B1B6803F00203002BF0D059
:101D0000284B1B6823F0F8027B681B69DB00254920
:101D100013430B6015E0244B00221A60FEF7C6FF48
:101D2000386108E0FEF7C2FF02463B69D31A022B76
:101D300001D9032387E11B4B1B6803F00203002B2F
:101D4000F0D17B681B6803F00803002B36D07B685A
:101D50005B69002B16D0154B01221A60FEF7A6FF17
:101D6000386108E0FEF7A2FF02463B69D31A022B56
:101D700001D9032367E10B4B5B6F03F00203002BD8
:101D8000F0D01BE0094B00221A60FEF78FFF38618C
:101D90000EE0FEF78BFF02463B69D31A022B07D9F0
:101DA000032350E10038024000004742800E4742C2
:101DB000884B5B6F03F00203002BEAD17B681B6842
:101DC00003F00403002B00F097800023FB75814B88
:101DD0001B6C03F08053002B0FD10023BB607D4BA5
:101DE0001B6C7C4A43F0805313647A4B1B6C03F0EA
:101DF0008053BB60BB680123FB75774B1B6803F402
:101E00008073002B18D1744B1B68734A43F48073A2
:101E10001360FEF74BFF386108E0FEF747FF02460C
:101E20003B69D31A022B01D903230CE16A4B1B68CF
:101E300003F48073002BF0D07B689B68012B06D1E4
:101E4000644B1B6F634A43F0010313671CE07B681C
:101E50009B68052B0CD15F4B1B6F5E4A43F004035C
:101E600013675C4B1B6F5B4A43F0010313670BE086
:101E7000584B1B6F574A23F001031367554B1B6FD9
:101E8000544A23F0040313677B689B68002B15D02A
:101E9000FEF70CFF38610AE0FEF708FF02463B69D7
:101EA000D31A41F28832934201D90323CBE0494B44
:101EB0001B6F03F00203002BEED014E0FEF7F6FEDA
:101EC00038610AE0FEF7F2FE02463B69D31A41F29E
:101ED0008832934201D90323B5E03E4B1B6F03F0D8
:101EE0000203002BEED1FB7D012B05D1394B1B6C7E
:101EF000384A23F0805313647B689B69002B00F001
:101F0000A180344B9B6803F00C03082B5CD07B68EA
:101F10009B69022B41D1314B00221A60FEF7C6FEAD
:101F2000386108E0FEF7C2FE02463B69D31A022B75
:101F300001D9032387E0274B1B6803F00073002BB4
:101F4000F0D17B68DA697B681B6A1A437B685B6A3D
:101F50009B011A437B689B6A5B08013B1B041A4385
:101F60007B68DB6A1B061B4913434B601B4B01223A
:101F70001A60FEF79BFE386108E0FEF797FE024606
:101F80003B69D31A022B01D903235CE0114B1B6878
:101F900003F00073002BF0D054E0104B00221A60C5
:101FA000FEF784FE386108E0FEF780FE02463B69DA
:101FB000D31A022B01D9032345E0064B1B6803F01B
:101FC0000073002BF0D13DE07B689B69012B07D1AA
:101FD000012338E0003802400070004060004742B2
:101FE0001B4B5B68FB607B689B69012B28D0FB68FF
:101FF00003F480027B68DB699A4221D1FB6803F01D
:102000003F027B681B6A9A421AD1FA6847F6C0738E
:1020100013407A68526A9201934211D1FB6803F42B
:1020200040327B689B6A5B08013B1B049A4207D1E4
:10203000FB6803F070627B68DB6A1B069A4201D082
:10204000012300E0002318461837BD4680BD00BFBD
:102050000038024080B584B000AF786039607B689A
:10206000002B01D10123CCE0684B1B6803F0070370
:102070003A689A420CD9654B3A68D2B21A70634BEF
:102080001B6803F007033A689A4201D00123B8E0C5
:102090007B681B6803F00203002B20D07B681B6861
:1020A00003F00403002B05D0594B9B68584A43F4B6
:1020B000E05393607B681B6803F00803002B05D096
:1020C000534B9B68524A43F460439360504B9B6868
:1020D00023F0F0027B689B684D4913438B607B685B
:1020E0001B6803F00103002B44D07B685B68012B65
:1020F00007D1474B1B6803F40033002B19D1012390
:102100007FE07B685B68022B03D07B685B68032BF6
:1021100007D13F4B1B6803F00073002B09D101234B
:102120006FE03B4B1B6803F00203002B01D101233E
:1021300067E0374B9B6823F003027B685B68344998
:1021400013438B60FEF7B2FDF8600AE0FEF7AEFDC8
:102150000246FB68D31A41F28832934201D9032325
:102160004FE02B4B9B6803F00C027B685B689B0085
:102170009A42EBD1254B1B6803F007033A689A4259
:102180000CD2224B3A68D2B21A70204B1B6803F073
:1021900007033A689A4201D0012332E07B681B684A
:1021A00003F00403002B08D0194B9B6823F4E05282
:1021B0007B68DB68164913438B607B681B6803F000
:1021C0000803002B09D0124B9B6823F460427B6804
:1021D0001B69DB000E4913438B6000F021F80246B7
:1021E0000B4B9B681B0903F00F030A49CB5C22FAD7
:1021F00003F3094A1360094B1B681846FEF712FDEA
:10220000002318461037BD4680BD00BF003C024089
:1022100000380240FC2F00080400002008000020C5
:102220002DE9B04F90B000AF00237B630023FB6328
:1022300000233B630023BB63594B9B6803F00C03F3
:10224000082B0DD0082B00F2A180002B02D0042B0C
:1022500003D09BE0534BBB639BE0534BBB6398E0C5
:102260004F4B5B6803F03F037B634D4B5B6803F4AC
:102270008003002B28D04A4B5B689B0900223B62FD
:102280007A623B6AC3F308000021474B03FB01F26B
:10229000002300FB03F31344434AA0FB0212FA623B
:1022A0000A46BA62FA6A1344FB627B6B0022BB6186
:1022B000FA61D7E90623D7E90A01FDF7E1FF0246F3
:1022C0000B461346FB6353E0354B5B689B090022CA
:1022D0003B617A613B69C3F3080A4FF0000B524639
:1022E0005B464FF000004FF00001590141EAD26116
:1022F000500102460B46B2EB0A0863EB0B094FF0A4
:1023000000024FF000034FEA891343EA98634FEA53
:102310008812B2EB080463EB09054FF000024FF09E
:102320000003EB0043EA5473E20014461D4614EB2D
:102330000A033B6045EB0B037B604FF000024FF05C
:102340000003D7E9004529468B02214643EA915311
:1023500021468A02104619467B6B0022BB60FA6058
:10236000D7E90223FDF78CFF02460B461346FB63B9
:102370000B4B5B681B0C03F0030301335B003B63F7
:10238000FA6B3B6BB2FBF3F3BB6302E0054BBB6341
:1023900000BFBB6B18464037BD46BDE8B08F00BFDD
:1023A000003802400024F40040787D0180B400AF82
:1023B000034B1B681846BD465DF8047B704700BFA1
:1023C0000400002080B500AFFFF7F0FF0246054B88
:1023D0009B689B0A03F007030349CB5C22FA03F3D3
:1023E000184680BD003802400C30000880B584B02B
:1023F00000AF78607B681B68DB68FB607B681B68EC
:102400001B69BB60BB6803F00203002B20D0FB6894
:1024100003F00203002B1BD07B681B686FF00202E5
:102420001A617B6801221A777B681B689B6903F03D
:102430000303002B03D0786800F0DCF805E078682F
:1024400000F0CEF8786800F0DFF87B6800221A7799
:10245000BB6803F00403002B20D0FB6803F00403E7
:10246000002B1BD07B681B686FF004021A617B682D
:1024700002221A777B681B689B6903F44073002B68
:1024800003D0786800F0B6F805E0786800F0A8F8A6
:10249000786800F0B9F87B6800221A77BB6803F00F
:1024A0000803002B20D0FB6803F00803002B1BD08F
:1024B0007B681B686FF008021A617B6804221A7738
:1024C0007B681B68DB6903F00303002B03D078688B
:1024D00000F090F805E0786800F082F8786800F085
:1024E00093F87B6800221A77BB6803F01003002B77
:1024F00020D0FB6803F01003002B1BD07B681B6807
:102500006FF010021A617B6808221A777B681B68DB
:10251000DB6903F44073002B03D0786800F06AF89D
:1025200005E0786800F05CF8786800F06DF87B688A
:1025300000221A77BB6803F00103002B0CD0FB6864
:1025400003F00103002B07D07B681B686FF00102CA
:102550001A61786800F03AF8BB6803F08003002B3A
:102560000CD0FB6803F08003002B07D07B681B684E
:102570006FF080021A61786800F064F8BB6803F0BD
:102580004003002B0CD0FB6803F04003002B07D066
:102590007B681B686FF040021A61786800F03EF8B3
:1025A000BB6803F02003002B0CD0FB6803F0200372
:1025B000002B07D07B681B686FF020021A617868D7
:1025C00000F036F800BF1037BD4680BD80B483B040
:1025D00000AF786000BF0C37BD465DF8047B7047E4
:1025E00080B483B000AF786000BF0C37BD465DF8A3
:1025F000047B704780B483B000AF786000BF0C37B5
:10260000BD465DF8047B704780B483B000AF78604E
:1026100000BF0C37BD465DF8047B704780B483B0C3
:1026200000AF786000BF0C37BD465DF8047B704793
:1026300080B483B000AF786000BF0C37BD465DF852
:10264000047B704780B483B000AF786000BF0C3764
:10265000BD465DF8047B704730B51446002C9BB036
:1026600005461A4605DA8B2303604FF0FF301BB096
:1026700030BD4FF40273ADF80C304FF000031993E6
:1026800014BF04F1FF332346029305934FF6FF7303
:1026900000910491ADF80E3069461E9B00F0A0F940
:1026A000431CBCBF8B232B60002CE0D0009B00227E
:1026B0001A70DCE707B5009313460A460146034843
:1026C0000068FFF7C9FF03B05DF804FB10000020AD
:1026D00002440346934200D1704703F8011BF9E717
:1026E000014B1868704700BF1000002070B50D4DF9
:1026F0000D4C641BA4100026A64209D10B4D0C4CB6
:1027000000F064FC641BA4100026A64205D170BD35
:1027100055F8043B98470136EEE755F8043B9847D7
:102720000136F2E750300008503000085030000801
:10273000543000087047704738B50546002941D02D
:1027400051F8043C0C1F002BB8BFE41800F0E0F86F
:102750001D4A136833B9636014602846BDE83840E9
:1027600000F0DCB8A34208D9206821188B4201BFD1
:1027700019685B6809182160EDE71A465B680BB1C0
:10278000A342FAD911685018A0420BD12068014425
:10279000501883421160E0D118685B6853600844A8
:1027A0001060DAE702D90C232B60D6E720682118E5
:1027B0008B4204BF19685B68636004BF091821601D
:1027C0005460CAE738BD00BF6402002070B50F4EE8
:1027D0000C463168054611B900F0A4FB3060214673
:1027E000284600F09FFB431C03D14FF0FF342046E6
:1027F00070BDC41C24F00304A042F8D0211A28465E
:1028000000F090FB0130F2D1EFE700BF6002002042
:102810002DE9F843CD1C25F0030508350C2D38BFF4
:102820000C25002D064601DBA94204D90C23336098
:102830000020BDE8F883DFF8D48000F069F8D8F80C
:1028400000301C4644BB29463046FFF7BFFF431CFF
:10285000044658D1D8F800402746002F43D1002C19
:102860004BD023683946304604EB030900F05AFB8D
:10287000814542D121686D1A29463046FFF7A6FFEF
:1028800001303AD023682B442360D8F800305A68CE
:1028900062BBC8F800700FE02268521B20D40B2ADC
:1028A00017D96119A342256018BF5960636808BF32
:1028B000C8F8001062514B60304600F02FF804F168
:1028C0000B00231D20F00700C21A1CBF1B1AA350C7
:1028D000AFE76268A3420CBFC8F800205A60EBE77C
:1028E00023466468AEE73C467F68B6E71A465B68F5
:1028F000A342FBD100235360DEE70C233360304654
:1029000000F00CF894E70560D6E700BF64020020F1
:102910000148FFF70FBF00BF5C0200200148FFF72E
:102920000ABF00BF5C0200202DE9F0478E681F46F9
:10293000BE420B6882460C4690462DD8B1F90C2059
:1029400012F4906F26D06569096905EB4505A3EB84
:10295000010905EBD5757B1C4B446D109D4238BFBA
:102960001D46530527D52946FFF752FF064660B39B
:1029700021694A4600F0E6FAA38923F4906343F004
:102980008003A381266165614E44A5EB090526609D
:10299000A5603E46BE4200D93E46206832464146CA
:1029A00000F0A6FAA3689B1BA3602368334423604E
:1029B0000020BDE8F0872A4600F0D2FA064600283B
:1029C000E0D121695046FFF7B7FE0C23CAF800306A
:1029D000A38943F04003A3814FF0FF30E9E70000F3
:1029E0002DE9F04F98468B891B069DB007460D4692
:1029F000144610D50B6973B94021FFF709FF286011
:102A0000286130B90C233B604FF0FF301DB0BDE8AA
:102A1000F08F40236B610023099320238DF8293028
:102A2000CDF80C803023DFF89C818DF82A304FF0F0
:102A3000010923469A4613F8012B0AB1252AF9D138
:102A4000BAEB040B0BD05B46224629463846FFF70B
:102A50006BFF013000F0A780099A5A4409929AF856
:102A60000030002B00F09F8000234FF0FF32CDE9B3
:102A700005230AF1010A049307938DF853301A9342
:102A80005446052214F8011B4E48FDF7A9FB049A91
:102A9000D8B9D00644BF20238DF85330110744BF66
:102AA0002B238DF853309AF800302A2B15D0079A33
:102AB000544600204FF00A0C214611F8013B303BF0
:102AC000092B4BD9B0B1079214E0A0EB080309FA27
:102AD00003F313430493A246D2E7039B191D1B681B
:102AE0000391002BBBBF5B4242F0020207930793A6
:102AF000B8BF049223782E2B0AD163782A2B32D1C7
:102B0000039B1A1D1B68039243EAE3730234059387
:102B1000DFF8C0A0217803225046FDF761FB38B1F1
:102B2000049BA0EB0A00402282401343013404932B
:102B300014F8011B24488DF828100622FDF750FBDD
:102B4000002836D0214B1BBB039B073323F0070320
:102B500008330393099B334409936AE70CFB023261
:102B60000C460120A8E700230134059319464FF0D5
:102B70000A0C204610F8012B303A092A03D9002B01
:102B8000C6D00591C4E70CFB012104460123F0E700
:102B900003AB00932A460E4B04A93846AFF30080DE
:102BA000421C0646D6D1AB895B063FF52DAF09988E
:102BB0002CE703AB00932A46054B04A9384600F0E6
:102BC00079F8EDE7143000081E300008000000001E
:102BD000292900081A3000082DE9F04716469846C2
:102BE0008A680B69DDF820909342B8BF13463360C2
:102BF00091F8432007460C460AB10133336023683D
:102C0000990642BF336802333360256815F0060524
:102C100006D104F1190AE36832689B1AAB4226DC3C
:102C200094F843302268003B18BF012392062BD44E
:102C300004F1430241463846C84701301ED023689C
:102C4000226903F00603042B02BFE5683368ED1A1E
:102C5000A3680CBF25EAE57500259342C4BF9B1A03
:102C6000ED1800261A34B5421AD1002008E00123DD
:102C7000524641463846C847013003D14FF0FF3035
:102C8000BDE8F0870135C6E7E1185A1C302081F80D
:102C90004300224494F8451082F843100233C7E7FA
:102CA0000123224641463846C8470130E6D0013666
:102CB000D9E700002DE9FF470F7E0C9E782F914643
:102CC00080460C469A4601F1430207D8622F0AD883
:102CD000002F00F0D180582F00F0B88004F1420698
:102CE00084F842703AE0A7F16303152BF6D801A1EE
:102CF00051F823F04D2D0008612D0008DD2C00084F
:102D0000DD2C0008DD2C0008DD2C0008612D0008FA
:102D1000DD2C0008DD2C0008DD2C0008DD2C00086F
:102D20005F2E00088B2D0008192E0008DD2C0008EE
:102D3000DD2C0008812E0008DD2C00088B2D0008FA
:102D4000DD2C0008DD2C0008212E000833681A1D38
:102D50001B68326004F1420684F8423001239CE093
:102D600033682068191D3160060601D51D6803E02F
:102D70004506FBD5B3F90050002D03DA2D236D4233
:102D800084F8433058480A2311E021683368080664
:102D900053F8045B02D4490648BFADB26F2F5248C6
:102DA000336014BF0A230823002184F843106668A7
:102DB000A660002E05DB21682E4321F0040121606E
:102DC0004BD01646B5FBF3F103FB1157C75D06F870
:102DD000017D2F46BB420D46F4D9082B0BD1236849
:102DE000DF0708D5236961689942DEBF302306F802
:102DF000013C06F1FF36921B2261CDF800A04B4644
:102E000003AA21464046FFF7E7FE01304AD14FF0C2
:102E1000FF3004B0BDE8F087236843F0200323604F
:102E20003248782784F84570236831681F0651F8C6
:102E3000045B02D45F0648BFADB23160D90744BF1E
:102E400043F0200323601DB11023ADE72648E9E7D6
:102E5000236823F020032360F6E71646BDE73368B6
:102E600025686169181D30602E061B6801D5196040
:102E700002E06806FBD51980002323611646BCE7F3
:102E800033681A1D32601E68626800213046FDF703
:102E9000A7F908B1801B606063682361002384F890
:102EA0004330AAE72369324649464046D0470130BD
:102EB000ADD023689B0713D4E068039B9842B8BF4A
:102EC0001846A6E70123324649464046D04701301E
:102ED0009DD00135E36803995B1AAB42F2DCEBE766
:102EE000002504F11906F5E7253000083630000802
:102EF000884210B501EB020402D98442234607D868
:102F0000431EA14208D011F8012B03F8012FF8E766
:102F1000024401468A4200D110BD13F8014D02F867
:102F2000014DF7E738B5064D0023044608462B60EF
:102F3000FDF7E4FD431C02D12B6803B1236038BDCB
:102F4000580200200A44914200F1FF3300D170473B
:102F500010B511F8014B03F8014F9142F9D110BDA2
:102F60002DE9F041074614460D4621B9BDE8F04170
:102F70001146FFF74DBC2AB9FFF7DEFB2546284670
:102F8000BDE8F08100F01AF88442064602D8B4EB9E
:102F9000500FF4D821463846FFF73AFC804608B96E
:102FA0004546ECE7B4422246294628BF3246FFF7A1
:102FB000C9FF29463846FFF7BFFBF1E751F8043C4B
:102FC000181F002BBCBF0B58C0187047F8B500BFC6
:102FD000F8BC08BC9E467047F8B500BFF8BC08BCFA
:042FE0009E46704752
:102FE4004C4344204F4B21005469636B3A256C7564
:102FF40020202000004014540000000000000000C5
:10300400010203040607080900000000010203048A
:10301400232D302B2000686C4C00656667454647BD
:103024000030313233343536373839414243444540
:1030340046003031323334353637383961626364AF
:0430440065660000BD
:0830480098D1FF7F0100000098
:04305000C5010008AE
:04305400A1010008CE
:10305800080000000024F400100000000100000037
:10306800140000200000000020010020880100203A
:10307800F001002000000000000000000000000037
:103088000000000000000000000000000000000038
:103098000000000000000000000000000000000028
:1030A8000000000000000000000000000000000018
:0400000508000B8D57
:00000001FF
