:02000000FE2FD1
:1005A40083160515080083168514080083120510A8
:1005B40008008312051408008312050C0139080091
:1005C400D522D222592308008312050E01390800CE
:1005D40083120511831605110800831285108316F2
:1005E40085100800DB220A303423D8220800EF22C9
:1005F4005923D2225923D52259230800D522D222A5
:100604005923EF225923EA22592308008312810136
:100614000B110B1D0E2B0F2B0B2B0800F400740871
:1006240070067106720673065A3A080003108312A4
:10063400851D03140030031801300800831681124D
:1006440081110115811401148B120B110800F000A3
:1006540083169C182E2B2F2B2A2B70089B001C14FE
:100664001A080800F200392B4C230130F2027208F8
:10067400031D3D2B3E2B362B0800F10108230130CE
:10068400F0007008F10704307102031C4A2B4B2B55
:10069400402B0800F10108230130F0007008F10735
:1006A40010307102031C572B582B4D2B0800F101FD
:1006B40032307102031C5F2B602B612B662B0130DF
:1006C400F0007008F1075A2B0800F300F201731CC4
:1006D4006C2B6D2B712B7008F1007108F20703105D
:1006E400F00D0310F30C7308031D792B7A2B692B7F
:1006F40072080800F3007308E123003A031D832BFA
:10070400842B862B0030902B730A840083130008FB
:1007140003198D2B8F2B0130902B0030080083168A
:100724009F0183129F010730990083160F088F39A8
:1007340060388F000F148312850183160510D822A8
:10074400D522D22283168515051685162023080086
:10075400F8007808F40004300310F40CFF3E031D85
:10076400AE2B74080F39F5007508F60078080F39B8
:10077400F4007408F7000A30F4007408F0007608F6
:10078400672377070800F10000308312851A0130CF
:10079400F0007008031DCF2BD02BD22B0130E02B9F
:1007A40008307102031CD72BD82BDF2B15307102B4
:1007B4000318DD2BDE2BDF2BD02B00300800F200DA
:1007C4007208033E840083130003031DEA2BEB2B02
:1007D400F32BE622003A031DF02BF12BF32B003010
:1007E400002C7208023E840083130008C523003ADB
:1007F400031DFD2BFE2BFF2BF12B01300800FC0009
:10080400FB01E2227C083327003A03190A2C0B2C43
:10081400142C7C08A125003A0319112C122C142C39
:100824000130222CD822E2223F230130FA007A0838
:10083400FB0703307B02031C202C212C032C0030EB
:100844000800F100F2013F2CF3011823003A031DC4
:100854002C2C2D2C302CD8220030462C082301308F
:10086400F0007008F30710307302031C3A2C3B2C81
:10087400272C0130F0007008F20771087202031C83
:10088400442C452C262C01300800F300730829233E
:100894007106031D4E2C4F2C502C6F2C83169C1864
:1008A400542C552C502C73089B0071089A001C156D
:1008B40000308B1B0130F2008B1355309D00AA30A1
:1008C4009D009C149C18672C682C642C1C117208C5
:1008D40003196D2C6E2C6F2C8B170800F300F40198
:1008E400D522F5010310F40DD2225923DE22003A59
:1008F40003197D2C7E2C7F2C7414EA225923013099
:10090400F2007208F50708307502031C8A2C8B2C40
:10091400742C730803198F2C902C922CEF22932C97
:10092400D5225923D2225923EA225923D5227408E5
:100934000800F300F501F31FA02CA12CA32CD52251
:10094400A42CEF225923D2225923EA22592303103B
:10095400F30D0130F2007208F50708307502031C2C
:10096400B42CB52C9D2CD5225923D2225923DE2216
:10097400003A0319BE2CC02C0130C12C0030F20007
:100984007208F400EA22592374080800F500750877
:10099400023E84008313000870060319D22CD32C62
:1009A400D52C0030FD2C750A84000008710603194B
:1009B400DC2CDD2CDE2CD32C7508043E84000008CE
:1009C40072060319E62CE72CE82CD32C7508053E97
:1009D4008400000873060319F02CF12CF22CD32C9C
:1009E4007508063E8400000874060319FA2CFB2CD3
:1009F400FC2CD32C013008008312A1007508F900E7
:100A04007908F0007608FA007A08F1007708FB000C
:100A14007B08F2007808FC007C08F300210810230E
:100A2400FD007D088312A000F101003047248312E9
:100A34002108F9007908F100013047247508F9000C
:100A44007908F100023047247608F9007908F100AA
:100A5400033047247708F9007908F100043047246B
:100A64007808F9007908F10005304724831220083A
:100A7400F9007908F10006304724A530F900790817
:100A8400F1000030472408001823003A031D4B2DC1
:100A94004C2D4E2DD822A02D00308312051A013082
:100AA400F7000030851A0130F8007708031D5B2D2C
:100AB4005C2D6A2D7808031D602D612D6A2D1E3072
:100AC400F4007408F5000A30F4007408F600932D5D
:100AD4007708031D6E2D6F2D7D2D78080319732D56
:100AE400742D7D2D0A30F4007408F5000530F400EF
:100AF4007408F600932D77080319812D822D902D0B
:100B04007808031D862D872D902D3C30F400740841
:100B1400F5000F30F4007408F600932DD8223F231B
:100B2400A02DD82275082324003A031D9A2D9B2D4D
:100B34009C2DA02DDB22760823244C2D0800F000E8
:100B4400700884003C3083130002031CAA2DAB2DD3
:100B5400AD2D0030012E700A84003C300002031CCD
:100B6400B42DB52DB62DAB2D7008023E840018307F
:100B74000002031CBE2DBF2DC02DAB2D7008033EFB
:100B8400840000080319C72DC82DAB2D7008033E3F
:100B9400840008300002031CD02DD12DD22DAB2DA2
:100BA4007008043E840000080319D92DDA2DAB2DFA
:100BB4007008043E840020300002031CE22DE32D63
:100BC400E42DAB2D7008053E840000080319EB2DBD
:100BD400EC2DAB2D7008053E84000D300002031C83
:100BE400F42DF52DF62DAB2D7008063E84006430EF
:100BF4000002031CFE2DFF2D002EAB2D013008003A
:100C04008312A10000302923A53A03190A2E0B2EC2
:100C14000C2E952E01302923F90079088312A200A5
:100C240002302923F90079088312A3000330292311
:100C3400F90079088312A50004302923F900790802
:100C44008312A60005302923F90079088312A40031
:100C540006302923F90079088312A0002308F9003B
:100C64007908F0002508FA007A08F1002608FB004C
:100C74007B08F2002408FC007C08F30022081023FF
:100C8400831220060319472E482E492E952E18301C
:100C94002202031C4E2E4F2E502E952E3C30230242
:100CA400031C552E562E572E952E250803195B2E00
:100CB4005C2E952E20302502031C612E622E632E9D
:100CC400952E26080319672E682E952E0D302602C0
:100CD400031C6D2E6E2E6F2E952E64302402031C81
:100CE400742E752E762E952E2208F9002108840084
:100CF4007908831380002308F900750884007908B3
:100D040080002508F9007608840079088000260808
:100D1400F90077088400790880002408F90078082D
:100D24008400790880000800FF308312AA002A0892
:100D3400B100FF30AA002A08B200FF30AA002A0836
:100D4400B300FF30AA002A08B400FF30AA002A0822
:100D5400B5009123E22232308312AA002A08F5005A
:100D64003330AB002B08F6003430AC002C08F7000D
:100D74003530AD002D08F80031300226013034231F
:100D8400C72ED822E2220130342336300124003A1F
:100D94000319CD2ECE2EC32E1823003A0319D32EB9
:100DA400D42ED62E4625CE2E36300124003A0319F1
:100DB400DC2EDD2E2D2F36307C23003A0319E32E52
:100DC400E42E302F83123108AA002A08F0003208DA
:100DD400AB002B08F1003308AC002C08F2003408F7
:100DE400AD002D08F3003508AE002E08F4003630AF
:100DF400C8248312AF002F08B0003008031D032F4E
:100E0400042F302F3708AA002A08F5003A08AB004F
:100E14002B08F6003B08AC002C08F7003C08AD009A
:100E24002D08F8003808FE2483123808AA002A087E
:100E3400B1003708AA002A08B2003A08AA002A0812
:100E4400B3003B08AA002A08B4003C08AA002A08F8
:100E5400B500F422302FD822E2224C233F23CE2E99
:100E640000288312A9000023D0309B24003A031DDC
:100E74003C2F3D2F402FF9220030FD2F00309B24C2
:100E8400003A031D462F472F482F3D2F0023D13012
:100E94009B24003A031D4F2F502F512F3D2F01301B
:100EA4007024F90079088312A00001307024F9003D
:100EB40079088312A10001307024F90079088312A3
:100EC400A70001307024F90079088312A2000130D0
:100ED4007024F90079088312A30001307024F9000A
:100EE40079088312A40000307024F9007908831271
:100EF400A500F922831220087F39AA23F90083125E
:100F04002908840079088313800021087F39AA23E3
:100F1400F9008312290A8400790883138000271FAB
:100F2400942F952FC62F27081F39AA23F900790873
:100F34008312A800A71A9F2FA12F0130A22F0030DF
:100F4400F9007908A60026080319A92FAA2FB62F9D
:100F54000C3028060319AF2FB02FBD2F28080C3EE4
:100F6400F9007908A800BD2F0C302806031DBB2FFB
:100F7400BC2FBD2FA8012808F9002908023E8400CF
:100F8400790883138000D12F27083F39AA23F90059
:100F940083122908023E8400790883138000220802
:100FA4000739AA23F90083122908033E840079082B
:100FB4008313800023083F39AA23F90083122908E8
:100FC400043E840079088313800024081F39AA236F
:100FD400F90083122908053E8400790883138000F0
:100FE4002508AA23F90083122908063E84007908FB
:0C0FF40083138000013008008301962E5A
:02400E00C43FAD
:00000001FF
