:100000000F28FF3FFF3FFF3FFE00030EF4000408F0
:10001000F5000A08F60083127F08F7001928102857
:10002000B121A700F801F901FA01FB01FC018301EC
:10003000E3288C1C1C281D2861288C107A080319C1
:10004000222823285C287B080319272828284028F1
:10005000781C2B282C282F28831227153428FB30B6
:10006000F30073088312A7052708850001300310E9
:10007000F90CF80CFF3E031D37280130FB02612804
:100080007C0884007A21003A03194728482855281B
:100090007C0884007A2168210130F3007308FC0792
:1000A000781C532854282F282C28AB21831227157D
:1000B00027088500FA016128AB218312271527083C
:1000C00085007708FF0076088A0075088400740EA2
:1000D0008300FE0E7E0E09008312A4007A08031D21
:1000E000722873286E2883122408031D7828792823
:1000F0007A289828240884007A21003A031D812850
:100100008228832898288B132408A3002308FC0046
:100110007C0884007A21552101308312A300230832
:10012000FC070130A3002308FA003D21A1218B1711
:100130000800703083168F009F0183129F010730E3
:1001400099000430A0002008A70027088500283067
:1001500083168500010880388100950130308312B4
:1001600090008F018E010C1083160C10CF3092007E
:100170008312910192018C1083168C140B178B172C
:100180000800DB28FE30A20022089005FF308F0017
:1001900006308E000C1010140C1CCF28D028CC2850
:1001A000FE30A200220890050C100130A0020030A1
:1001B000031CA103A102831220082104031DE128CE
:1001C000E228C228080099208312A6019221003A51
:1001D0000319EB28EC28E42814308312A000003027
:1001E000A100C1209221003A0319F728F828E62837
:1001F00083122608031DFD28FE28E6288821831285
:10020000A601A60AE6280F288312A30000308B1B44
:100210000130A2008B13200803190F29102915297A
:100220002308A1002108A70419292309A1002108F6
:10023000A70527088500220C031C8B1303188B17B6
:1002400008008312A5019B2178308312A0000030A2
:10025000A100C120A62178308312A0000030A100A7
:10026000C12001308312A4002408A5070330250211
:10027000031C3B293C2923290800781C40294129DB
:100280004429831227154929FB308312A000200836
:10029000A7052708850001300310F90CF80CFF3E74
:1002A000031D4C290130FB0208008312A200220822
:1002B000A000A1010310A00DA10D00302004F80042
:1002C00002302104F9000A30A0002008FB000800D9
:1002D000F2007208F000F1010310F00DF10D003092
:1002E0007004F80002307104F9000A30F000700860
:1002F000FB00080001308A000408840A82070034E9
:100300004434653474346534633474347334003481
:1003100001306C202121AF21003A031D9029912941
:100320008B2908008312851E962997299929013067
:100330009A29003008008312A001A00A103004217D
:100340000800831291018C10121508008312A0017D
:10035000103004210800831212118C1008007A0852
:1003600008000434FF3FFF3FFF3FFF3FFF3FFF3FD9
:02400E00C433B9
:00000001FF
