:100000008A110428FF3FFF3F8A11062883018A11C5
:1000100009288A11D4228A1183120313A001A00A8D
:1000200020308A1180218A11831203132108B7001E
:100030002008B6003708B9003608B8000230AC0016
:100040002C08A00020308A1180218A11831203130A
:100050002108BB002008BA003B08BD003A08BC00DC
:1000600001308A1192228A11710883120313B100A0
:100070007008B00002308A1192228A11710883122E
:100080000313B3007008B2003008AC003108AD00B3
:10009000AE01AF013808F0003908F100F201F301B8
:1000A0000030F7000030F6000030F5000330F400B7
:1000B0008A114C228A11700883120313AC0771084D
:1000C0000318710F64286528AD0772080318720FB2
:1000D0006A286B28AE0773080318730AAF0702304B
:1000E0000310AF0CAE0CAD0CAC0CFF3E031D702822
:1000F0002D08B9002C08B8003208AC003308AD0058
:10010000AE01AF013C08F0003D08F100F201F3013F
:100110000030F7000030F6000030F5000330F40046
:100120008A114C228A11700883120313AC077108DC
:100130000318710F9C289D28AD0772080318720FD1
:10014000A228A328AE0773080318730AAF0702306A
:100150000310AF0CAE0CAD0CAC0CFF3E031DA82879
:100160002D08BD002C08BC003608193EAC0037082D
:100170000318013E003EAD0039082D02031DC228C0
:1001800038082C02031CC528C7280130C8280030B5
:10019000AE002E08B4003A08193EAC003B08031824
:1001A000013E003EAD003D082D02031DD9283C084C
:1001B0002C02031CDC28DE280130DF280030AE00D2
:1001C0002E08B5003408031DE628EA28831203131D
:1001D0000716ED288312031307123508031DF128B3
:1001E000F528831203138716F82883120313871246
:1001F0003408031DFC28FD2835293808AC003908CF
:10020000AD00AE01AF013608F0003708F100F20191
:10021000F3010030F7000030F6000030F5000F3039
:10022000F4008A114C228A11700883120313AC0760
:1002300071080318710F1D291E29AD0772080318D4
:10024000720F23292429AE0773080318730AAF0716
:1002500004300310AF0CAE0CAD0CAC0CFF3E031D14
:1002600029292D08B7002C08B6003508031D3929A7
:100270003A2972293C08AC003D08AD00AE01AF013F
:100280003A08F0003B08F100F201F3010030F700FA
:100290000030F6000030F5000F30F4008A114C22D7
:1002A0008A11700883120313AC0771080318710FC9
:1002B0005A295B29AD0772080318720F602961295A
:1002C000AE0773080318730AAF0704300310AF0CAE
:1002D000AE0CAD0CAC0CFF3E031D66292D08BB0017
:1002E0002C08BA00073083120313AD007C30AC0039
:1002F000AC0B7829AD0B78297D2930288A11042888
:1003000083120313AB000030A9000030A8000030B6
:10031000A7000030A600AA01C12920088A11922254
:100320008A11700883120313A2007108A300A401AC
:10033000A5012208A607230803110318013E03198B
:10034000A229A707240803110318013E0319A929AC
:10035000A807250803110318013E0319B029A907AE
:10036000033083120313A3009730A200A20BB62917
:10037000A30BB6290000013083120313A200220848
:10038000AA072B082A02031CC629C7298D292B0876
:10039000A200A301A401A5012508F3002408F2008E
:1003A0002308F1002208F0002908F7002808F600C9
:1003B0002708F5002608F4008A11E6218A11710841
:1003C00083120313A1007008A00008000030FC0095
:1003D0000030FB000030FA000030F90073087204AE
:1003E000710470040319F529F629432AFD01FD0A59
:1003F000062A0130F8000310F00DF10DF20DF30D97
:10040000F80BFB290130F8007808FD07F31F092AD3
:100410000A2AF9290130F8000310F90DFA0DFB0D35
:10042000FC0DF80B0C2A73087702031D212A7208B1
:100430007602031D212A71087502031D212A700806
:100440007402031C242A252A342A7008F402710835
:10045000031C710FF5027208031C720FF602730879
:10046000031C730FF702791401300310F30CF20C24
:10047000F10CF00CFF3E031D352A0130FD02031D77
:10048000422A432A0A2A7C08F3007B08F2007A08F1
:10049000F1007908F00008000030FC000030FB009B
:1004A0000030FA000030F900701C572A582A6F2AD1
:1004B0007408F907750803110318013E0319612A2E
:1004C000FA07760803110318013E0319682AFB078F
:1004D000770803110318013E03196F2AFC07013046
:1004E000F8000310F40DF50DF60DF70DF80B712A59
:1004F00001300310F30CF20CF10CF00CFF3E031D65
:10050000792A7308720471047004031D882A892AE9
:10051000542A7C08F3007B08F2007A08F10079087D
:10052000F0000800F5007509F20072088316031345
:1005300085057508F20072088312031385040330E1
:10054000F200F20BA12A7508F20072088316031359
:1005500085047509F20072088312031385058F0163
:100560008E011014C12A0F08F4000E08F300EA30BF
:100570007402603003197302031CBF2AC02AC12A07
:10058000C72A05087505031DC62AC72AB32A1010F5
:100590001030F200F20BCA2A0000831203130F0876
:1005A000F1000E08F00008006130831603138F007D
:1005B0009101073083120313990083160313051466
:1005C00085140712871281179501831203130712EE
:1005D000871210109010101290128F018E010800D7
:02400E00D43CA0
:00000001FF
