:100000000428FF3FFF3FFF3F05288301D2288312CA
:10001000A900D824D0305E23003A031D10281128EF
:100020001428E0240030D12800305E23003A031D5C
:100030001A281B281C281128D824D1305E23003A06
:10004000031D232824282528112801308B23F9009B
:1000500079088312A00001308B23F90079088312FC
:10006000A10001308B23F90079088312A700013029
:100070008B23F90079088312A20001308B23F90049
:1000800079088312A30001308B23F90079088312C9
:10009000A40000308B23F90079088312A500E02426
:1000A000831220087F390124F90083122908840073
:1000B00079088313800021087F390124F900831215
:1000C000290A8400790883138000271F682869287B
:1000D0009A2827081F390124F90079088312A800FB
:1000E000A71A73287528013076280030F90079089E
:1000F000A600260803197D287E288A280C302806A9
:10010000031983288428912828080C3EF9007908CF
:10011000A80091280C302806031D8F2890289128CC
:10012000A8012808F9002908023E840079088313F1
:100130008000A52827083F390124F90083122908E7
:10014000023E8400790883138000220807390124C5
:10015000F90083122908033E840079088313800084
:1001600023083F390124F90083122908043E840042
:1001700079088313800024081F390124F9008312B1
:100180002908053E8400790883138000250801248E
:10019000F90083122908063E840079088313800041
:1001A00001300800FF308312AA002A08B200FF3095
:1001B000AA002A08B300FF30AA002A08B400FF30C2
:1001C000AA002A08B500FF30AA002A08B6001C249D
:1001D000F62433308312AA002A08F5003430AB002D
:1001E0002B08F6003530AC002C08F7003630AD0097
:1001F0002D08F8003230972101309E240329012573
:10020000F62401309E243E30DF23003A03190929E9
:100210000A29FF282F238312AA002A08B0003E30A3
:10022000DF23003A03191529162991293E3083123C
:10023000AA002A08F1003008C322003A0319212934
:100240002229942983123208AA002A08F0003308D0
:10025000AB002B08F1003408AC002C08F200350884
:10026000AD002D08F3003608AE002E08F4003E3035
:10027000F9228312AF002F08B1003108031D412974
:10028000422994293F08AA002A08F5004208AB0039
:100290002B08F6004308AC002C08F7004408AD001A
:1002A0002D08F80040087B2283124008AA002A0883
:1002B000B2003F08AA002A08B3004208AA002A0890
:1002C000B4004308AA002A08B5004408AA002A0876
:1002D000B600E7243730DF23003A0319702971296B
:1002E0008E2983123208AA002A08F0003308AB00D6
:1002F0002B08F1003408AC002C08F2003508AD00E2
:100300002D08F3003608AE002E08F4003730F9222D
:10031000003A031D8C298D298E29942901259124C9
:100320006A290125F624842491240A2904288312A9
:10033000A1000030B424A53A03199F29A029A129BE
:10034000232A0130B424F90079088312A300023073
:10035000B424F90079088312A4000330B424F9000E
:1003600079088312A5000430B424F90079088312B7
:10037000A6000530B424F90079088312A2000630E3
:10038000B424F90079088312A0002408F900790840
:10039000F0002508FA007A08F1002608FB007B0827
:1003A000F2002208FC007C08F3002308C824831212
:1003B00020060319DC29DD29DE29232A183023022F
:1003C000031CE329E429E529232A3C302402031CE9
:1003D000EA29EB29EC29232A25080319F029F12918
:1003E000232A20302502031CF629F729F829232A7D
:1003F00026080319FC29FD29232A0D302602031C97
:10040000022A032A042A232A2308F9002108840047
:100410007908831380002408F9007508840079089E
:1004200080002508F90076088400790880002608F5
:10043000F90077088400790880002208F90078081C
:100440008400790880000800F000700884003C30C7
:1004500083130002031C2D2A2E2A302A00307A2A08
:10046000700A84003C300002031C372A382A392ADB
:100470002E2A7008023E840018300002031C412A14
:10048000422A432A2E2A7008033E840000080319DA
:100490004A2A4B2A2E2A7008033E840008300002A4
:1004A000031C532A542A552A2E2A7008043E84001D
:1004B000000803195C2A5D2A2E2A7008043E840075
:1004C00020300002031C652A662A672A2E2A70083B
:1004D000053E8400000803196E2A6F2A2E2A700830
:1004E000053E84000D300002031C772A782A792A01
:1004F0002E2A013008008312A1007508F90079083E
:10050000F0007608FA007A08F1007708FB007B0813
:10051000F2007808FC007C08F3002108C824FD00E4
:100520007D088312A000F1010030B6238312210858
:10053000F9007908F1000130B6237508F90079084F
:10054000F1000230B6237608F9007908F100033093
:10055000B6237708F9007908F1000430B62378084B
:10056000F9007908F1000530B62383122008F9005C
:100570007908F1000630B623A530F9007908F100BA
:100580000030B6230800F400710A840083130008C9
:100590000319CB2ACC2AE22A0030F82A7108023E3D
:1005A000840000083624F82A7108023E84000008FE
:1005B0006424F82A7108023E84000008A924F82A5D
:1005C0000130F82A7408F200F3017308003A0319A5
:1005D000EA2ACC2A7208003A0319E02A013A0319E0
:1005E000CE2A033A0319D42A013A0319DA2ACC2A6B
:1005F0000800F5007508023E8400831300087006A9
:100600000319032B042B062B00302E2B750A8400B4
:100610000008710603190D2B0E2B0F2B042B7508E8
:10062000043E8400000872060319172B182B192B9F
:10063000042B7508053E8400000873060319212B5E
:10064000222B232B042B7508063E84000008740619
:1006500003192B2B2C2B2D2B042B013008000030E1
:100660008312051A0130F0000030851A0130F100C4
:100670007003031D3C2B3D2B442B7108031D412BA4
:10068000422B442B01305D2B7008031D482B492B56
:10069000502B7103031D4D2B4E2B502B02305D2B25
:1006A0007003031D542B552B5C2B7103031D592B19
:1006B0005A2B5C2B03305D2B00300800F300F50152
:1006C000F31F632B642B662B0425672BEC24762405
:1006D00007257624F12476240310F30D0130F2006F
:1006E0007208F50708307502031C772B782B602BF6
:1006F0000425762407257624FA24003A0319812B51
:10070000832B0130842B0030F2007208F400F124B6
:10071000762474080800F300F4010425F5010310A1
:10072000F40D07257624FA24003A0319982B992B07
:100730009A2B7414F12476240130F2007208F50724
:1007400008307502031CA52BA62B8F2B73080319E9
:10075000AA2BAB2BAD2BEC24AE2B0425762407253E
:100760007624F1247624042574080800F300730825
:10077000B4247106031DBD2BBE2BBF2BDE2B8316AD
:100780009C18C32BC42BBF2B73089B0071089A00C5
:100790001C1500308B1B0130F2008B1355309D006F
:1007A000AA309D009C149C18D62BD72BD32B1C1140
:1007B00072080319DC2BDD2BDE2B8B170800FC00E5
:1007C000FB01F6247C080720003A0319E82BE92BEB
:1007D000F22B7C082422003A0319EF2BF02BF22B8A
:1007E0000130002C0125F62491240130FA007A080A
:1007F000FB0703307B02031CFE2BFF2BE12B003099
:100800000800F8007808F40004300310F40CFF3EF0
:10081000031D052C74080F39F5007508F6007808DB
:100820000F39F4007408F7000A30F4007408F0007F
:1008300076084F247707080083169F0183129F01D3
:100840000730990083160F088F3960388F000F1416
:10085000FE3085008312850183160510012583165D
:100860000516851604250725BF240800F00007306B
:100870007006031D3C2C3D2C3F2C01304E2C0F30BC
:100880007006031D442C452C462C3D2C1730700659
:10089000031D4B2C4C2C4D2C3D2C00300800F3003C
:1008A000F201731C542C552C592C7008F10071085E
:1008B000F2070310F00D0310F30C7308031D612CF5
:1008C000622C512C72080800F0000A307006031DDB
:1008D0006A2C6B2C6D2C0130752C16307006031DA4
:1008E000722C732C742C6B2C00300800F101323008
:1008F0007102031C7C2C7D2C7E2C832C0130F0009B
:100900007008F107772C0800F101D0240130F000C5
:100910007008F10710307102031C8F2C902C852C6D
:100920000800F101D0240130F0007008F107043014
:100930007102031C9C2C9D2C922C0800F200A32C0D
:1009400084240130F2027208031DA72CA82CA02CCD
:100950000800F0000A307006031DAF2CB02CB22C3A
:100960000130B32C00300800F00083169C18B92C1D
:10097000BA2CB52C70089B001C141A0808008316AA
:10098000811281110115811401148B120B110800C1
:10099000F400740870067106720673065A3A08006D
:1009A000831281010B110B1DD62CD72CD32C0800E0
:1009B000042507257624EC247624F12476240800E7
:1009C000EC24762407257624042576240800FE24CA
:1009D00003309E240125080083128510831685109C
:1009E0000800831205118316051108000425072548
:1009F000762408008312050C0139080083120514BF
:100A00000800831205100800831685140800831659
:100A100005150800FF3FFF3FFF3FFF3FFF3FFF3F40
:02400E00C43FAD
:00000001FF
