:02000000FE2FD1
:10047C0083160515080083168514080083120510D1
:10048C0008008312051408008312050C01390800BA
:10049C0041223E22C52208008312050E01390800B4
:1004AC00831205118316051108008312851083161B
:1004BC008510080047221E30A022442208005B222F
:1004CC00C5223E22C5224122C522080041223E22DD
:1004DC00C5225B22C5225622C52208008312810147
:1004EC000B110B1D7A2A7B2A772A0800F40074085A
:1004FC0070067106720673065A3A080003108312CE
:10050C00851D031400300318013008008316811276
:10051C0081110115811401148B120B110800F000CC
:10052C0083169C189A2A9B2A962A70089B001C14E6
:10053C001A080800F200A52AB8220130F20272084B
:10054C00031DA92AAA2AA22A0800F101742201304B
:10055C00F0007008F10704307102031CB62AB72AA8
:10056C00AC2A0800F10174220130F0007008F10788
:10057C0010307102031CC32AC42AB92A0800F101E5
:10058C0032307102031CCB2ACC2ACD2AD22A01305C
:10059C00F0007008F107C62A0800F300F201731C82
:1005AC00D82AD92ADD2A7008F1007108F207031045
:1005BC00F00D0310F30C7308031DE52AE62AD52A67
:1005CC007208080083169F0183129F01073099005F
:1005DC0083160F088F3960388F000F148312850132
:1005EC0083160510442241223E22831685150516DA
:1005FC0085168C220800F8007808F40004300310EB
:10060C00F40CFF3E031D052B74080F39F50075081B
:10061C00F60078080F39F4007408F7000A30F4007B
:10062C007408F0007608D32277070800FC00FB0161
:10063C004E227C083327003A0319252B262B2F2B0F
:10064C007C08A125003A03192C2B2D2B2F2B0130C4
:10065C003D2B44224E22AB220130FA007A08FB07D4
:10066C0003307B02031C3B2B3C2B1E2B0030080061
:10067C00F100F2015A2BF3018422003A031D472B9F
:10068C00482B4B2B44220030612B74220130F0009C
:10069C007008F30710307302031C552B562B422B9A
:1006AC000130F0007008F20771087202031C5F2B16
:1006BC00602B412B01300800F401F501701C672BF5
:1006CC00682B6E2B7208F4070318F50A7308F507EC
:1006DC0001300310F20DF30DFF3E031D6F2B0130A3
:1006EC000310F10CF00CFF3E031D762B7008710407
:1006FC00031D812B822B642B7508F1007408F0000C
:10070C000800F4007408033E840083130003031DE7
:10071C00902B912B992B5222003A031D962B972B41
:10072C00992B0030AC2B740A840083130008F3005F
:10073C007308F0007408023E84000008D623003AC7
:10074C00031DA92BAA2BAB2B972B01300800F30010
:10075C00730895227106031DB42BB52BB62BD52B24
:10076C0083169C18BA2BBB2BB62B73089B007108F5
:10077C009A001C1500308B1B0130F2008B13553086
:10078C009D00AA309D009C149C18CD2BCE2BCA2BFF
:10079C001C1172080319D32BD42BD52B8B170800E3
:1007AC00F20000308312851A0130F1007108031D2C
:1007BC00E02BE12BE32B0130FE2B083072020318E7
:1007CC00E82BE92BEB2B0030FE2B123072020318B6
:1007DC00F02BF12BF22BE12B12307206031DF72BB1
:1007EC00F82BE92B7008031DFC2BFD2BE92BE12BBF
:1007FC000800F300F4014122F5010310F40D3E2230
:10080C00C5224A22003A03190C2C0D2C0E2C741400
:10081C005622C5220130F2007208F5070830750225
:10082C00031C192C1A2C032C730803191E2C1F2CB7
:10083C00212C5B22222C4122C5223E22C52256228B
:10084C00C522412274080800F300F501F31F2F2C78
:10085C00302C322C4122332C5B22C5223E22C52265
:10086C005622C5220310F30D0130F2007208F50771
:10087C0008307502031C432C442C2C2C4122C5221D
:10088C003E22C5224A22003A03194D2C4F2C01302E
:10089C00502C0030F2007208F4005622C522740865
:1008AC000800F5007508023E8400831300087006EA
:1008BC000319612C622C642C00308C2C750A84007A
:1008CC000008710603196B2C6C2C6D2C622C7508AE
:1008DC00043E8400000872060319752C762C772CC4
:1008EC00622C7508053E84000008730603197F2CE2
:1008FC00802C812C622C7508063E8400000874063E
:10090C000319892C8A2C8B2C622C01300800FA00DC
:10091C007A088723003A031D942C952C972C0030D1
:10092C00C32C7A08023E840083130008F600F701FA
:10093C007608F0007708F1003C30F2000030F3004C
:10094C0062237A0A8400831300087007F8000030D1
:10095C00031801307107F9002830F0000030F10065
:10096C007908F3007808F200C424700871040319A4
:10097C00C02CC22C0130C32C00300800700871044C
:10098C000319C92CCA2CF92CF501F50AD82C013005
:10099C000310F00DF10DFF3E031DCE2C0130F400C1
:1009AC007408F507F11FDB2CDC2CCD2C71087302BD
:1009BC00031DE22C70087202031CE52CE62CEC2CB7
:1009CC007008F2027108031CF303F30201300310E8
:1009DC00F10CF00CFF3E031DED2C0130F502031D54
:1009EC00F82CF92CDC2C7308F1007208F0000800CC
:1009FC008312A1007508F9007908F0007608FA0056
:100A0C007A08F1007708FB007B08F2007808FC00FC
:100A1C007C08F30021087C22FD007D088312A000D5
:100A2C00F1010030AD2383122108F9007908F1009F
:100A3C000130AD237508F9007908F1000230AD23BF
:100A4C007608F9007908F1000330AD237708F90036
:100A5C007908F1000430AD237808F9007908F10029
:100A6C000530AD2383122008F9007908F100063017
:100A7C00AD23A530F9007908F1000030AD23080052
:100A8C008422003A031D4B2D4C2D4E2D4422A02DBB
:100A9C0000308312051A0130F7000030851A01303E
:100AAC00F8007708031D5B2D5C2D6A2D7808031D5B
:100ABC00602D612D6A2D1E30F4007408F5000A308B
:100ACC00F4007408F600932D7708031D6E2D6F2D1E
:100ADC007D2D78080319732D742D7D2D0A30F400AB
:100AEC007408F5000530F4007408F600932D7708AF
:100AFC000319812D822D902D7808031D862D872DAD
:100B0C00902D3C30F4007408F5000F30F40074089C
:100B1C00F600932D4422AB22A02D442275083E23CF
:100B2C00003A031D9A2D9B2D9C2DA02D4722760853
:100B3C003E234C2D0800F000700884003C308313D9
:100B4C000002031CAA2DAB2DAD2D0030012E700A16
:100B5C0084003C300002031CB42DB52DB62DAB2DFA
:100B6C007008023E840018300002031CBE2DBF2DFD
:100B7C00C02DAB2D7008033E840000080319C72D4F
:100B8C00C82DAB2D7008033E840008300002031CF6
:100B9C00D02DD12DD22DAB2D7008043E8400000831
:100BAC000319D92DDA2DAB2D7008043E84002030AA
:100BBC000002031CE22DE32DE42DAB2D7008053E45
:100BCC00840000080319EB2DEC2DAB2D7008053EAD
:100BDC0084000D300002031CF42DF52DF62DAB2DE9
:100BEC007008063E840064300002031CFE2DFF2DAD
:100BFC00002EAB2D013008008312A100003095228D
:100C0C00A53A03190A2E0B2E0C2E952E0130952287
:100C1C00F90079088312A20002309522F9007908B4
:100C2C008312A30003309522F90079088312A500E2
:100C3C0004309522F90079088312A600053095221C
:100C4C00F90079088312A40006309522F90079087E
:100C5C008312A0002308F9007908F0002508FA0097
:100C6C007A08F1002608FB007B08F2002408FC003F
:100C7C007C08F30022087C22831220060319472EDD
:100C8C00482E492E952E18302202031C4E2E4F2E24
:100C9C00502E952E3C302302031C552E562E572ECB
:100CAC00952E250803195B2E5C2E952E20302502DF
:100CBC00031C612E622E632E952E26080319672EB7
:100CCC00682E952E0D302602031C6D2E6E2E6F2E67
:100CDC00952E64302402031C742E752E762E952EC0
:100CEC002208F90021088400790883138000230866
:100CFC00F90075088400790880002508F900760849
:100D0C008400790880002608F900770884007908A7
:100D1C0080002408F9007808840079088000080015
:100D2C00FF308312AA002A08B100FF30AA002A085B
:100D3C00B200FF30AA002A08B300FF30AA002A082C
:100D4C00B400FF30AA002A08B500E8224E22323047
:100D5C008312AA002A08F5003330AB002B08F600EA
:100D6C003430AC002C08F7003530AD002D08F800FD
:100D7C00313002260130A022C72E44224E220130EF
:100D8C00A02236301C23003A0319CD2ECE2EC32EB2
:100D9C008422003A0319D32ED42ED62E4625CE2EDD
:100DAC0036301C23003A0319DC2EDD2E2D2F363065
:100DBC008D24003A0319E32EE42E302F83123108D0
:100DCC00AA002A08F0003208AB002B08F100330807
:100DDC00AC002C08F2003408AD002D08F3003508E7
:100DEC00AE002E08F400363057248312AF002F08C3
:100DFC00B0003008031D032F042F302F3708AA0032
:100E0C002A08F5003A08AB002B08F6003B08AC00AA
:100E1C002C08F7003C08AD002D08F8003808FE241B
:100E2C0083123808AA002A08B1003708AA002A0839
:100E3C00B2003A08AA002A08B3003B08AA002A0804
:100E4C00B4003C08AA002A08B5006022302F4422C6
:100E5C004E22B822AB22CE2E00288312A9006C227F
:100E6C00D0302A24003A031D3C2F3D2F402F652201
:100E7C000030FD2F00302A24003A031D462F472F47
:100E8C00482F3D2F6C22D1302A24003A031D4F2FBE
:100E9C00502F512F3D2F0130FF23F9007908831279
:100EAC00A0000130FF23F90079088312A100013062
:100EBC00FF23F90079088312A7000130FF23F90002
:100ECC0079088312A2000130FF23F90079088312FC
:100EDC00A3000130FF23F90079088312A40000302D
:100EEC00FF23F90079088312A500652283122008DC
:100EFC007F390123F90083122908840079088313B0
:100F0C00800021087F390123F9008312290A84000B
:100F1C00790883138000271F942F952FC62F27083D
:100F2C001F390123F90079088312A800A71A9F2FF3
:100F3C00A12F0130A22F0030F9007908A600260855
:100F4C000319A92FAA2FB62F0C3028060319AF2F7F
:100F5C00B02FBD2F28080C3EF9007908A800BD2F32
:100F6C000C302806031DBB2FBC2FBD2FA801280851
:100F7C00F9002908023E8400790883138000D12FE0
:100F8C0027083F390123F90083122908023E840007
:100F9C00790883138000220807390123F900831292
:100FAC002908033E840079088313800023083F3905
:100FBC000123F90083122908043E84007908831365
:100FCC00800024081F390123F90083122908053EEB
:100FDC00840079088313800025080123F90083120B
:100FEC002908063E8400790883138000013008002C
:040FFC008301962EA9
:02400E00C43FAD
:00000001FF
