:100000001AEF00F0FF00FF005E82F2A40AEF00F09A
:100010000CEF00F018EF00F0FE0ED76E0C0ED66E4F
:10002000F294010E01010027000E01230223032395
:100030005E921100D0EF11F0FF00FF00FF00FF0003
:1006000000776E3030303030302E303030206B6735
:100610000D0A006B696C6F6772616D005354414243
:100620004C45004D4F54494F4E00706F756E64003D
:10063000746F6E6E65002D2D2D2D004F56455200A6
:10064000554E535400746F6E730044594E0045521A
:1006500052004F565200746F6E006C6273006B67ED
:1006600073004F4C005553006C62006B6700776E4F
:100670000000000E486E000E496E000E4A6E000E1D
:100680004B6E000E4C6E000E4D6E000E4E6E000E48
:100690004F6E18C047F0000E326E000E336E000E23
:1006A0003C6E000E436E000E446E000E456E000E52
:1006B000466E000E3D6E000E426E000E346E000E51
:1006C000356E000E366E000E376E47501624D96E0A
:1006D000000E1720DA6E2B0EDE18D8B472EF03F07E
:1006E00074EF03F083EF03F047501624D96E000E29
:1006F0001720DA6E2D0EDE18D8A481EF03F083EFF9
:1007000003F0A6EF03F0010E336E47501624D96EA6
:10071000000E1720DA6E2D0EDE18D8A492EF03F02B
:1007200094EF03F096EF03F0010E326E472A475024
:100730001624D96E000E1720DA6E200EDE18D8B4FB
:10074000A4EF03F0A6EF03F096EF03F04750162452
:10075000D96E000E1720DA6EDF505DEC11F0000943
:10076000D8A4B5EF03F0B7EF03F002EF04F020EEEA
:1007700048F000EE16F0070EDBCFEBFFE806FCE2D8
:10078000B4EF05F046500BE1800E435C840E4458F4
:100790001E0E4558D8B0CFEF03F0D1EF03F000EFB5
:1007A00004F0D00E1E6EFF0E1F6E47501624D96E39
:1007B000000E1720DA6EDF50206E216A1E502026B0
:1007C0001F50212243C001F044C002F045C003F095
:1007D00046C004F00A0E056E000E066E000E076E8F
:1007E000000E086E2EEC10F020500124436E2150B4
:1007F0000220446E000E0320456E000E0420466E5B
:100800003D2A472A47501624D96E000E1720DA6E6B
:10081000DF505DEC11F00009D8A411EF04F013EFE4
:1008200004F0C2EF03F047501624D96E000E1720D3
:10083000DA6E2E0EDE18D8B420EF04F022EF04F0AA
:1008400031EF04F047501624D96E000E1720DA6EEF
:100850002C0EDE18D8A42FEF04F031EF04F0B0EF27
:1008600004F0475016241E6E000E17201F6E010E56
:100870001E24D96E000E1F20DA6EDF505DEC11F0E1
:100880000009D8B446EF04F048EF04F0B0EF04F0EC
:10089000010E3C6E472A9FEF04F0422A4204D8A47E
:1008A00054EF04F056EF04F061EF04F047501624C3
:1008B000D96E000E1720DA6EDF50D00F346E4AEF7B
:1008C00004F0020E4218D8A468EF04F06AEF04F0B6
:1008D00075EF04F047501624D96E000E1720DA6E1B
:1008E000DF50D00F356E4AEF04F0030E4218D8A443
:1008F0007CEF04F07EEF04F089EF04F047501624FB
:10090000D96E000E1720DA6EDF50D00F366E4AEF28
:1009100004F0040E4218D8A490EF04F092EF04F013
:100920009DEF04F047501624D96E000E1720DA6EA2
:10093000DF50D00F376E4AEF04F04AEF04F0475013
:100940001624D96E000E1720DA6EDF505DEC11F020
:100950000009D8A4AEEF04F0B0EF04F04DEF04F0BE
:100960003D50D8A4B6EF04F0B8EF04F0BAEF04F0AD
:10097000B7EF03F03C50D8B4C0EF04F0C2EF04F07E
:100980002EEF05F043C001F044C002F045C003F073
:1009900046C004F0E80E056E030E066E000E076EEC
:1009A000000E086E2EEC10F001C01EF002C01FF009
:1009B00003C020F004C021F03450016E026A036AC3
:1009C000046A640E056E000E066E000E076E000EC1
:1009D000086E2EEC10F001501E24226E02501F20D3
:1009E000236E03502020246E04502120256E3550A4
:1009F000016E026A036A046A0A0E056E000E066E34
:100A0000000E076E000E086E2EEC10F0015022242E
:100A1000266E02502320276E03502420286E045097
:100A20002520296E365026243E6E000E27203F6E6C
:100A3000000E2820406E000E2920416E040E3764FF
:100A400024EF05F026EF05F048EF05F0010E3E26F5
:100A5000000E3F224022412248EF05F043C001F042
:100A600044C002F045C003F046C004F0E80E056E35
:100A7000030E066E000E076E000E086E2EEC10F0D0
:100A800001C03EF002C03FF003C040F004C041F09E
:100A90003E04940E3F58350E4058770E4158D8A06A
:100AA00054EF05F056EF05F05EEF05F0000E3E6ED8
:100AB000940E3F6E350E406E770E416E010E486EFD
:100AC0003CC04DF03250D8B468EF05F06AEF05F045
:100AD00085EF05F03EC01EF03FC01FF040C020F083
:100AE00041C021F01E1E1F1E201E211E1E2A000EA8
:100AF0001F22202221221EC049F01FC04AF020C020
:100B00004BF021C04CF08DEF05F03EC049F03FC0E6
:100B10004AF040C04BF041C04CF03D5042244E6E74
:100B20004EC04FF03C50D8B498EF05F09AEF05F066
:100B30009DEF05F04F50060F4F6E3350D8B4A3EF22
:100B400005F0A5EF05F0A8EF05F04F50030F4F6E2D
:100B5000030E3D64AEEF05F0B0EF05F0B7EF03F024
:100B60004F284F6EB7EF03F01200000E236E1DBE2C
:100B7000BEEF05F0BCEF05F0DBEF05F0010E236ED4
:100B80001AC01FF01BC020F01CC021F01DC022F0B5
:100B90001F1E201E211E221E1F2A000E202221227F
:100BA00022221FC030F020C031F021C032F022C01C
:100BB00033F0D3EF06F01AC030F01BC031F01CC088
:100BC00032F01DC033F0D3EF06F0F40E3024016E86
:100BD000010E3120026E000E3220036E000E332013
:100BE000046EE80E056E030E066E000E076E000E14
:100BF000086E12EC0FF001C02CF002C02DF003C003
:100C00002EF004C02FF0F4EF06F03050016E31509A
:100C1000026E3250036E3350046E056A066A076A2C
:100C2000086A850E096E200E0A6EB40E0B6E020E57
:100C30000C6E000E0D6E000E0E6E000E0F6E000E8E
:100C4000106E64EC0FF001C024F002C025F003C068
:100C500026F004C027F005C028F006C029F007C020
:100C60002AF008C02BF0800E2426F00E2522FA0E62
:100C70002622020E2722000E2822000E2922000E14
:100C80002A22000E2B2224C001F025C002F026C02B
:100C900003F027C004F028C005F029C006F02AC0E0
:100CA00007F02BC008F0000E096EE10E0A6EF50E7B
:100CB0000B6E050E0C6E000E0D6E000E0E6E000E0D
:100CC0000F6E000E106E12EC0DF001C024F002C089
:100CD00025F003C026F004C027F005C028F006C0A8
:100CE00029F007C02AF008C02BF02B502A10291039
:100CF00028100EE12404940E2558350E2658770E40
:100D00002758D8A086EF06F088EF06F092EF06F09D
:100D1000000E2C6E940E2D6E350E2E6E770E2F6EED
:100D2000F4EF06F024C02CF025C02DF026C02EF0E4
:100D300027C02FF0F4EF06F033500DE1810E305C48
:100D4000840E31581E0E3258D8A0A9EF06F0ABEF32
:100D500006F0ADEF06F088EF06F030C001F031C0CC
:100D600002F032C003F033C004F0E80E056E030E4B
:100D7000066E000E076E000E086E2EEC10F001C01D
:100D80002CF002C02DF003C02EF004C02FF0F4EFC1
:100D900006F030C02CF031C02DF032C02EF033C040
:100DA0002FF0F4EF06F01E501F6E206A2050000A4C
:100DB000D8B4DDEF06F0C9EF06F01F50000AD8B432
:100DC000C9EF06F0010AD8B4C9EF06F0030AD8B497
:100DD000E5EF05F0010AD8B405EF06F0070AD8B42C
:100DE0009CEF06F0C9EF06F02C04940E2D58350E3A
:100DF0002E58770E2F58D8A000EF07F002EF07F01B
:100E00000AEF07F0000E2C6E940E2D6E350E2E6E2E
:100E1000770E2F6E2350D8B410EF07F012EF07F0C3
:100E20002DEF07F02CC01FF02DC020F02EC021F0B8
:100E30002FC022F01F1E201E211E221E1F2A000E60
:100E40002022212222221FC01AF020C01BF021C024
:100E50001CF022C01DF035EF07F02CC01AF02DC099
:100E60001BF02EC01CF02FC01DF012000DC002F0B0
:100E70000EC003F03B0E046E060E056E7BEC09F00F
:100E80000009D8A446EF07F048EF07F090EF07F00D
:100E90000DC002F00EC003F0520E046E060E056E79
:100EA0007BEC09F00009D8A458EF07F05AEF07F0DF
:100EB00090EF07F00DC002F00EC003F0620E046E5A
:100EC000060E056E7BEC09F00009D8A46AEF07F066
:100ED0006CEF07F090EF07F00DC002F00EC003F0CA
:100EE000360E046E060E056E7BEC09F00009D8A4E0
:100EF0007CEF07F07EEF07F090EF07F00DC002F0F7
:100F00000EC003F04E0E046E060E056E7BEC09F06B
:100F10000009D8B48EEF07F090EF07F093EF07F0D9
:100F20004F0E06EF08F00DC002F00EC003F0650E84
:100F3000046E060E056E7BEC09F00009D8A4A3EF41
:100F400007F0A5EF07F0DBEF07F00DC002F00EC0D1
:100F500003F0400E046E060E056E7BEC09F00009EE
:100F6000D8A4B5EF07F0B7EF07F0DBEF07F00DC03F
:100F700002F00EC003F0230E046E060E056E7BEC2D
:100F800009F00009D8A4C7EF07F0C9EF07F0DBEFBD
:100F900007F00DC002F00EC003F04A0E046E060EFC
:100FA000056E7BEC09F00009D8B4D9EF07F0DBEF50
:100FB00007F0DEEF07F0550E06EF08F00DC002F067
:100FC0000EC003F0420E046E060E056E7BEC09F0B7
:100FD0000009D8A4EEEF07F0F0EF07F002EF08F0F9
:100FE0000DC002F00EC003F01C0E046E060E056E5E
:100FF0007BEC09F00009D8B400EF08F002EF08F02C
:1010000005EF08F0530E06EF08F04E0E12000FC069
:1010100002F010C003F06B0E046E060E056E7BEC42
:1010200009F00009D8A417EF08F019EF08F03DEF18
:1010300008F00FC002F010C003F05E0E046E060E42
:10104000056E7BEC09F00009D8A429EF08F02BEF1E
:1010500008F03DEF08F00FC002F010C003F0130ECF
:10106000046E060E056E7BEC09F00009D8B43BEF68
:1010700008F03DEF08F040EF08F0010ED5EF08F062
:101080000FC002F010C003F05A0E046E060E056E7B
:101090007BEC09F00009D8A450EF08F052EF08F0FB
:1010A00076EF08F00FC002F010C003F0680E046E77
:1010B000060E056E7BEC09F00009D8A462EF08F07B
:1010C00064EF08F076EF08F00FC002F010C003F0F4
:1010D0002A0E046E060E056E7BEC09F00009D8B4EA
:1010E00074EF08F076EF08F079EF08F0030ED5EF13
:1010F00008F00FC002F010C003F0300E046E060EB0
:10110000056E7BEC09F00009D8A489EF08F08BEF9D
:1011100008F0AFEF08F00FC002F010C003F0450E6A
:10112000046E060E056E7BEC09F00009D8A49BEF57
:1011300008F09DEF08F0AFEF08F00FC002F010C00C
:1011400003F0560E046E060E056E7BEC09F00009E6
:10115000D8B4ADEF08F0AFEF08F0B2EF08F0040E2E
:10116000D5EF08F00FC005F010C006F0740E076E42
:10117000FAEC0DF00009D8B4C0EF08F0C2EF08F0A7
:10118000C4EF08F0AFEF08F00FC005F010C006F094
:10119000670E076EFAEC0DF00009D8B4D2EF08F034
:1011A000D4EF08F03DEF08F0020E1200000E00012F
:1011B000FE6F000EFD6F000EF16F000EF26F000E5D
:1011C000F36F000EF46F000EF96F000EFA6F000E51
:1011D000FB6F000EFC6FEEEC11F0000E026E1E0EA7
:1011E000016E63EC10F0C4EC0AF005C0F5F006C027
:1011F000F6F007C0F7F008C0F8F0F5C01AF0F6C036
:101200001BF0F7C01CF0F8C01DF044EC11F0800E8C
:101210001A6E250E1B6E000E1C6E000E1D6E2BEC42
:1012200011F0A1EC11F0C3EC11F0FD0E016E000EF7
:10123000026E91EC10F00009D8B421EF09F023EF11
:1012400009F039EF09F0DAEC10F001C0F1F002C05A
:10125000F2F003C0F3F004C0F4F08D0E0001856FCE
:10126000000E866FFE0E876F000E886FFD5185ECB5
:101270000CF00001FE51D8B440EF09F042EF09F044
:1012800015EF09F0DAEC10F001C0EDF002C0EEF05D
:1012900003C0EFF004C0F0F00001F151ED5D896F83
:1012A000F251EE598A6FF351EF598B6FF451F059A7
:1012B0008C6F8C518B118A1109E1500E895DD8A079
:1012C00064EF09F066EF09F015EF09F08D0EFE25C9
:1012D000D96EDA6A000EDA22000EDF6E8D0E5A6EBB
:1012E000000E5B6EB6EC10F0000E0001FE6F15EF05
:1012F00009F01AEF00F002500310D8B482EF09F0A1
:1013000084EF09F08DEF09F004500510D8A48BEF9D
:1013100009F08DEF09F090EF09F0000E1FEF0AF0D1
:1013200004C0F6FF05C0F7FF0800F5500009D8A477
:101330009CEF09F09EEF09F0A1EF09F0010E1FEFFD
:101340000AF0000E0B6E0FEF0AF0000E0C6EAAEF03
:1013500009F00C2A0C500424066E000E0520076EBE
:1013600006C0F6FF07C0F7FF0800F5500009D8B423
:10137000BCEF09F0BEEF09F0F8EF09F00B500224C2
:10138000066E000E0320076E0C500624D96E000E68
:101390000720DA6EDF50D8B4D0EF09F0D2EF09F0B1
:1013A000F8EF09F00B500224066E000E0320076EC2
:1013B0000C500624D96E000E0720DA6EDF5074EC54
:1013C00011F0086E0C500424096E000E05200A6E00
:1013D00009C0F6FF0AC0F7FF0800F55074EC11F0E1
:1013E0000818D8B4F6EF09F0F8EF09F0A9EF09F002
:1013F0000C500424066E000E0520076E06C0F6FF92
:1014000007C0F7FF0800F5500009D8A40AEF0AF05A
:101410000CEF0AF00EEF0AF09EEF09F00B2A0B50CA
:101420000224D96E000E0320DA6EDF50D8A41BEF21
:101430000AF01DEF0AF0A5EF09F08DEF09F0120098
:1014400028502910D8A427EF0AF029EF0AF02BEF33
:101450000AF0C3EF0AF020EE01F02850D9262950F7
:10146000DA22030EDBBE39EF0AF037EF0AF05AEF4B
:101470000AF020EE01F02850D9262950DA22DECFDA
:101480002AF0DECF2BF0DECF2CF0DECF2DF02A1E9F
:101490002B1E2C1E2D1E2A2A000E2B222C222D2222
:1014A0002AC036F02BC037F02CC038F02DC039F0F0
:1014B00068EF0AF020EE01F02850D9262950DA22F0
:1014C000DECF36F0DECF37F0DECF38F0DECF39F0CA
:1014D0006E0E026E060E036EF5EC10F036C001F0D3
:1014E00037C002F038C003F039C004F0E80E056ED2
:1014F000030E066E000E076E000E086E12EC0FF063
:1015000001C02EF002C02FF003C030F004C031F053
:1015100036C001F037C002F038C003F039C004F023
:10152000E80E056E030E066E000E076E000E086EC6
:10153000B3EC0FF001C032F002C033F003C034F05E
:1015400004C035F02EC01DF02FC01EF030C01FF0BB
:1015500031C020F0060E216E67EC0EF02E0EDCEC92
:1015600011F032C01DF033C01EF034C01FF035C082
:1015700020F0030E216E67EC0EF00D0E026E060ECB
:10158000036EF5EC10F01200000E026E0A0E016EF2
:1015900063EC10F0000E0B6E81A0D1EF0AF0D3EFD8
:1015A0000AF0D4EF0AF00B8081A2D9EF0AF0DBEF4A
:1015B0000AF0DCEF0AF00B8281A4E1EF0AF0E3EF1E
:1015C0000AF036EF0BF00B8436EF0BF0800E056E51
:1015D000250E066E000E076E000E086E63EF0BF010
:1015E000B00E056E040E066E000E076E000E086E3D
:1015F00063EF0BF0600E056E090E066E000E076EAF
:10160000000E086E63EF0BF0C00E056E120E066E34
:10161000000E076E000E086E63EF0BF0000E056EF5
:101620004B0E066E000E076E000E086E63EF0BF099
:10163000000E056E960E066E000E076E000E086E0A
:1016400063EF0BF0000E056EE10E066E000E076EE6
:10165000000E086E63EF0BF0000E056EC20E066EF4
:10166000010E076E000E086E63EF0BF00B50096E53
:101670000A6A0A50000AD8B440EF0BF0E6EF0AF00D
:101680000950000AD8B4E6EF0AF0010AD8B4F0EF26
:101690000AF0030AD8B4FAEF0AF0010AD8B404EF4A
:1016A0000BF0070AD8B40EEF0BF0010AD8B418EF0C
:1016B0000BF0030AD8B422EF0BF0010AD8B42CEFD8
:1016C0000BF0E6EF0AF01200000171517211D8B46C
:1016D0006CEF0BF06EEF0BF077EF0BF073517411B2
:1016E000D8A475EF0BF077EF0BF07AEF0BF0000E4C
:1016F000F4EF0BF071C050F072C051F0F5EC0BF04C
:1017000020EE75F0070EEBCFDBFFE806FCE20001F0
:101710007551D8A48EEF0BF090EF0BF0B2EF0BF0F9
:1017200073C0D9FF74C0DAFF000EDF6E20EE01F047
:101730007351D9267451DA22DE6ADE6ADE6ADD6A06
:1017400020EE05F07351D9267451DA22010EDF6EB6
:1017500020EE06F07351D9267451DA22450EDF6E61
:1017600077EF0BF071C00FF072C010F007EC08F0CB
:1017700000017D6F73C0D9FF74C0DAFF010EDF6E08
:1017800020EE05F07351D9267451DA227DC0DFFFB7
:1017900071C00DF072C00EF036EC07F0596E00010A
:1017A00020EE06F07351D9267451DA2259C0DFFFBA
:1017B00076C01AF077C01BF078C01CF079C01DF01D
:1017C0007DC01EF0B5EC05F0000120EE01F0735174
:1017D000D9267451DA221AC0DEFF1BC0DEFF1CC0FE
:1017E000DEFF1DC0DEFF010E1200000E0001696F5A
:1017F000000E6A6F000E6B6F000E6C6F000E6D6F47
:10180000000E6E6F000E6F6F000E706F000E686F2F
:101810006DEF0CF068515024D96E000E5120DA6E35
:10182000DF505DEC11F00009D8A419EF0CF01BEFAC
:101830000CF03AEF0CF0000168515024D96E000E04
:101840005120DA6E2B0EDE18D8B429EF0CF02BEFF6
:101850000CF03AEF0CF068515024D96E000E512074
:10186000DA6E2D0EDE18D8A438EF0CF03AEF0CF03B
:101870006CEF0CF050C016F051C017F068C018F0B3
:1018800039EC03F020EE60F0070EEBCFDBFFE8064B
:10189000FCE200016051D8B450EF0CF052EF0CF0B4
:1018A0006CEF0CF06951D8B458EF0CF05AEF0CF013
:1018B00063EF0CF06751705DD8B061EF0CF063EF2F
:1018C0000CF06CEF0CF020EE60F010EE69F0070EFB
:1018D000DBCFE3FFE806FCE2682B68515024D96EA9
:1018E000000E5120DA6EDF50D8A479EF0CF07BEFB8
:1018F0000CF00AEF0CF020EE69F000EE50F0070E4D
:10190000DBCFEBFFE806FCE212005D6E5D9E020E8F
:101910005D18D8A48EEF0CF090EF0CF098EF0CF05F
:1019200087C0D9FF88C0DAFF000EDF6E11EF0DF01F
:10193000030E5D18D8B49FEF0CF0A1EF0CF0B3EFDD
:101940000CF00D0E5D18D8B4A8EF0CF0AAEF0CF057
:10195000B3EF0CF00A0E5D18D8A4B1EF0CF0B3EFA2
:101960000CF0D6EF0CF087C0D9FF88C0DAFFDF504B
:10197000D8B4BDEF0CF0BFEF0CF011EF0DF087C045
:10198000D9FF88C0DAFFDF505C6E5C50000185250E
:10199000D96E000E8621DA6E000EDF6E85C05AF019
:1019A00086C05BF0B6EC10F090EF0CF01F0E5D649B
:1019B000DCEF0CF0DEEF0CF011EF0DF07F0E5D6050
:1019C000E4EF0CF0E6EF0CF011EF0DF087C0D9FF5B
:1019D00088C0DAFF5F0EDF60F0EF0CF0F2EF0CF082
:1019E00008EF0DF087C0D9FF88C0DAFFDF505C6ECA
:1019F0005C5000018525D96E000E8621DA6E5DC02F
:101A0000DFFF87C0D9FF88C0DAFFDF2A11EF0DF0B2
:101A100087C0D9FF88C0DAFF000EDF6E8B80E7EC4D
:101A200011F0120020EE11F0070EDE6AE806FDE26A
:101A300009500A100B100C100D100E100F10101082
:101A4000D8B425EF0DF027EF0DF079EF0DF0010E72
:101A5000196E35EF0DF0D89009360A360B360C3674
:101A60000D360E360F361036192A10AE3AEF0DF03D
:101A70003CEF0DF02BEF0DF0D890113612361336E7
:101A8000143615361636173618360950015C0A50CA
:101A900002580B5003580C5004580D5005580E5066
:101AA00006580F50075810500858D8A05AEF0DF09C
:101AB0005CEF0DF06DEF0DF00950015E0A50025A17
:101AC0000B50035A0C50045A0D50055A0E50065A2A
:101AD0000F50075A1050085A1180D89010320F3208
:101AE0000E320D320C320B320A320932192E3CEF13
:101AF0000DF011C001F012C002F013C003F014C0C9
:101B000004F015C005F016C006F017C007F018C0A5
:101B100008F01200000E1C6E0E500F101010111065
:101B2000D8A495EF0DF097EF0DF0D2EF0DF0300E39
:101B3000DCEC11F0F9EF0DF0120E1C24D96EDA6A0C
:101B4000000EDA220EC001F00FC002F010C003F048
:101B500011C004F00A0E056E000E066E000E076E30
:101B6000000E086EB3EC0FF00150300FDF6E0EC0A8
:101B700001F00FC002F010C003F011C004F00A0E13
:101B8000056E000E066E000E076E000E086E12EC5B
:101B90000FF001C00EF002C00FF003C010F004C03F
:101BA00011F01C2A0E500F1010101110D8B4DBEFDA
:101BB0000DF0DDEF0DF0F1EF0DF0090E1C64E3EF19
:101BC0000DF0E5EF0DF09CEF0DF0F1EF0DF01C06C0
:101BD000120E1C24D96EDA6A000EDA22DF50DCEC19
:101BE00011F01C50D8A4F7EF0DF0F9EF0DF0E7EF6E
:101BF0000DF01200075074EC11F00A6E000E0E6E1C
:101C000057EF0EF00E500524D96E000E0620DA6E46
:101C1000DF5074EC11F00B6E0A500B18D8A413EFC0
:101C20000EF015EF0EF056EF0EF00E50D8A41BEF8D
:101C30000EF01DEF0EF021EF0EF0000E0D6E2FEFE7
:101C40000EF00E500524086E000E0620096EFF0EE1
:101C50000824D96EFF0E0920DA6EDF500D6E0E508B
:101C60000524086E000E0620096E010E0824D96EA8
:101C7000000E0920DA6EDF500C6E0D5010EC11F0E2
:101C80000009D8A446EF0EF048EF0EF056EF0EF024
:101C90000C5010EC11F00009D8A451EF0EF053EFE6
:101CA0000EF056EF0EF0010E66EF0EF00E2A0E50FB
:101CB0000524D96E000E0620DA6EDF50D8A463EF3B
:101CC0000EF065EF0EF002EF0EF0000E12001DC0D8
:101CD00023F01EC024F01FC025F020C026F0010E06
:101CE000276E8EEF0EF023C001F024C002F025C055
:101CF00003F026C004F00A0E056E000E066E000EFC
:101D0000076E000E086E12EC0FF001C023F002C047
:101D100024F003C025F004C026F0272A2650251001
:101D2000241007E10A0E235CD8B099EF0EF09BEF68
:101D30000EF073EF0EF02150275CD8B0A2EF0EF03A
:101D4000A4EF0EF0B5EF0EF02750215C226EADEF40
:101D50000EF0300EDCEC11F022062250D8A4B3EFC6
:101D60000EF0B5EF0EF0A9EF0EF01DC00EF01EC084
:101D70000FF01FC010F020C011F08AEC0DF012001F
:101D80000EC012F00FC013F010C014F011C015F007
:101D9000D8901532143213321232000E1224016E12
:101DA000090E1320026E3D0E1420036E000E152046
:101DB000046E0EC005F00FC006F010C007F011C091
:101DC00008F012EC0FF001C016F002C017F003C0CB
:101DD00018F004C019F01650171018101910D8B4C4
:101DE000F4EF0EF0F6EF0EF0FBEF0EF01606000E1D
:101DF000175A185A195A195008E11804D8A003EFB5
:101E00000FF005EF0FF00DEF0FF0FF0E166EFF0E47
:101E1000176E000E186E000E196E16C00EF017C069
:101E20000FF01200000E096E000E0A6E000E0B6E0F
:101E3000000E0C6E0550061007100810D8B423EFE2
:101E40000FF025EF0FF05BEF0FF0010E0D6E2FEF8F
:101E50000FF0D89005360636073608360D2A08AE3C
:101E600034EF0FF036EF0FF029EF0FF0D89009366E
:101E70000A360B360C360550015C065002580750E6
:101E8000035808500458D8A048EF0FF04AEF0FF05D
:101E900053EF0FF00550015E0650025A0750035AE7
:101EA0000850045A0980D8900832073206320532A9
:101EB0000D2E36EF0FF009C001F00AC002F00BC082
:101EC00003F00CC004F0120020EE11F0070EDE6AE1
:101ED000E806FDE201A06FEF0FF071EF0FF081EF68
:101EE0000FF0095011260A5012220B5013220C50E9
:101EF00014220D5015220E5016220F50172210508A
:101F00001822D89009360A360B360C360D360E36A6
:101F10000F361036D89008320732063205320432B6
:101F20000332023201320150021003100410051076
:101F3000061007100810D8A4A0EF0FF0A2EF0FF0C2
:101F40006AEF0FF011C001F012C002F013C003F0ED
:101F500014C004F015C005F016C006F017C007F055
:101F600018C008F012000550061007100810D8B469
:101F7000BCEF0FF0BEEF0FF0EEEF0FF0010E096EA9
:101F8000C8EF0FF0D8900536063607360836092A0E
:101F900008AECDEF0FF0CFEF0FF0C2EF0FF005500E
:101FA000015C065002580750035808500458D8A046
:101FB000DCEF0FF0DEEF0FF0E6EF0FF00550015E03
:101FC0000650025A0750035A0850045AD890083253
:101FD000073206320532092ECFEF0FF001C001F0B3
:101FE00002C002F003C003F004C004F01200116E3E
:101FF000010E126E000E136E000E146E000E156EA2
:102000001DEF10F012C001F013C002F014C003F075
:1020100015C004F00A0E056E000E066E000E076E67
:10202000000E086E2EEC10F001C012F002C013F08A
:1020300003C014F004C015F011061150D8A423EF0A
:1020400010F025EF10F002EF10F012C00DF013C0E9
:102050000EF014C00FF015C010F01200000E096E43
:10206000000E0A6E000E0B6E000E0C6E01A03BEF10
:1020700010F03DEF10F045EF10F005500926065026
:102080000A2207500B2208500C22D890053606363B
:1020900007360836D890043203320232013201503A
:1020A000021003100410D8A458EF10F05AEF10F0EB
:1020B00036EF10F009C001F00AC002F00BC003F0C7
:1020C0000CC004F0120087EF10F0000E046E000E3A
:1020D000036E580E035C020E0458D8A072EF10F085
:1020E00074EF10F076EF10F084EF10F000F0034A78
:1020F000042A580E035C020E0458D8A082EF10F098
:1021000084EF10F076EF10F00106D8A0020601501F
:102110000210D8A48EEF10F090EF10F065EF10F0E1
:102120001200ABA296EF10F098EF10F09AEF10F0BB
:10213000AB98AB889EBA9FEF10F0A1EF10F0A4EF20
:1021400010F0000EB5EF10F0ABA4A9EF10F0ABEF5C
:1021500010F0AEEF10F0AE50A1EF10F001C0D9FFBB
:1021600002C0DAFFAECFDFFF010E12008A885AC02C
:1021700071F05BC072F07E0E0001736F000E746F21
:1021800064EC0BF00009D8B4C8EF10F0CAEF10F0FF
:10219000D5EF10F08B908A8A7E0E286E000E296E85
:1021A00020EC0AF08A9AD8EF10F08B80E7EC11F05F
:1021B0008A981200000EF2BE010E096EF29E00C156
:1021C00005F001C106F002C107F003C108F009B033
:1021D00002D0F29E01D0F28E05C001F006C002F0DE
:1021E00007C003F008C004F0120001EF11F002C0B4
:1021F000F6FF03C0F7FF0800F550DCEC11F0024ACF
:10220000032A02C0F6FF03C0F7FF0800F5500009DB
:10221000D8A40DEF11F00FEF11F0F7EF10F012004E
:10222000026E025074EC11F0046E000E036E400E4C
:1022300004641DEF11F01FEF11F029EF11F05B0E98
:10224000046025EF11F027EF11F029EF11F0010ED6
:10225000036E035012001AC00EF01BC00FF01CC01A
:1022600010F01DC011F0C0EC0EF00EC01EF00FC03B
:102270001FF07298728470861F50766E1EC075FFB4
:10228000718E7188728A12001AC00EF01BC00FF096
:102290001CC010F01DC011F0C0EC0EF00EC01EF0FE
:1022A0000FC01FF0AC98AC84B8861F50B06E1EC033
:1022B000AFFFAB8EAB88AC8A1200026E000E016ECF
:1022C0002F0E026466EF11F068EF11F072EF11F05B
:1022D0003A0E02606EEF11F070EF11F072EF11F034
:1022E000010E016E01501200016E600E01647BEF61
:1022F00011F07DEF11F089EF11F07B0E016083EF9B
:1023000011F085EF11F089EF11F00150E00F8AEF25
:1023100011F001501200000E0F01386F000E396FDE
:10232000000E3A6FF18E948E949C939C938E9380C2
:10233000938293849398939A94908A988A9A8B9094
:102340001200D59ED59CD59AD598D596D550F80B28
:102350000209D56EFE0ED76E0C0ED66EF294F28A7E
:10236000D09EF28CF28ED58E1200D350FC0B020957
:10237000D36E700ED3129B9C000E026E050E016E82
:1023800063EC10F012008A888A8A8B80000E026E3D
:10239000500E016E63EC10F08A988A9A8B901200AE
:1023A0000101036B026B016B006B5E905E92000E8D
:1023B000F86E0001D6EF08F0016EA4A8E2EF11F06C
:1023C000E4EF11F0DDEF11F001C073FF1200010E18
:1023D000026E060E036EF5EC10F01200B5EC11F073
:1023E0008BEC11F01200FF00FF00FF00FF00FF0068
:020000040030CA
:0E000000FF281E3CFFBD81FF0FC00FE00F4028
:00000001FF
