:020000000A28CC
:10000800FE00030EF0000A08F100DA290B2876300A
:1000180084007A3040228313203084003A30402212
:10002800830116280C22FB218312A001A101A20141
:10003800A70100302A2200301D2283122C088500D7
:1000480083122D08031929282A284B28AD01582284
:100058008312C20050228312C30048228312C400B4
:100068003630F2000030F3004208F4004721323005
:10007800F2000030F30083124308F40047212E30C9
:10008800F2000030F30083124408F4004721831281
:100098003608C8003208C9002E08CA003722750879
:1000A8008312CE007408CD007308CC007208CB0010
:1000B800C6014808031961286228692849080319F4
:1000C8006628672869280130C6004608031D6D2880
:1000D8006F28013070280030C5000130C70048087B
:1000E8000319772878287E28490803197C287D2851
:1000F8007E28C701450803198228832887280130EC
:10010800A000A701D928200803198B288C28852846
:100118002708031D90289128B6280130A700E03051
:10012800BE009330BF000430C0000030C1004B084F
:10013800BE074C0803184C0FA228A328BF074D0878
:1001480003184D0FA828A928C0074E0803184E0AFF
:10015800C1074108AB004008AA003F08A9003E08B3
:10016800A800D9284B08BE004C08BF004D08C000A5
:100178004E08C1002808BE022908031C290FC528FB
:10018800C628BF022A08031C2A0FCB28CC28C00285
:100198002B08031C2B0FD128D228C102C11BD5283C
:1001A800D628D928A001A701D9284A080319DD288B
:1001B800DE28E2280130A100A20110292208031D2F
:1001C800E628E728102921080319EB28EC2810292C
:1001D8000130A2001030BE002730BF000030C00040
:1001E8000030C1004B08BE074C0803184C0FFD280F
:1001F800FE28BF074D0803184D0F03290429C0071F
:100208004E0803184E0AC1074108A6004008A50079
:100218003F08A4003E08A300220803191429152941
:100228003C294A08031D19291A293C294B08BE00F4
:100238004C08BF004D08C0004E08C1002308BE028C
:100248002408031C240F29292A29BF022508031C76
:10025800250F2F293029C0022608031C260F35290F
:100268003629C102C11B39293A293C29A101A20119
:1002780020082A22831221081D2283122C088500B7
:10028800640024280A287208013E8312BA00730801
:100298000318013E003EBB003A08840083173B1C4C
:1002A80083130008740603195A295B297B297208ED
:1002B800013EBA0073080318013E003EBB003A082D
:1002C800840083173B1C8313740880007208023E65
:1002D800BA0073080318013E003EBB003A088400C8
:1002E80083173B1C83138001840A8001D929720873
:1002F800023EBA0073080318013E003EBB003A08EC
:10030800840083173B1C83130008BC00840A000880
:10031800BD0000303D02143003193C020318952932
:100328009629D9297208023EBA0073080318013EBB
:10033800003EBB003A08840083173B1C831301303E
:100348008007840A0318800A7208023EBA007308FC
:100358000318013E003EBB003A08840083173B1C8B
:1003680083130008BC00840A0008BD0000303D0269
:10037800143003193C02031CC229C329D929720865
:10038800013EBA0073080318013E003EBB003A085C
:10039800840083173B1C83130008FF007208840045
:1003A8008317731C83137F088000080083120C1CBA
:1003B800DE29DF29F429FF308F0006308E000C106B
:1003C8000130F607003003180130F7070030031832
:1003D8000130F807003003180130F9070130AD008B
:1003E80071088A00700E8300FE0E7E0E09008312CB
:1003F8009001901090161016FF308F0006308E0076
:100408000C1083160C140B178B178312101408008A
:10041800703083168F049F0107308312990083166A
:100428008501851205108514051605158117950196
:100438000800F20072080319222A232A262A8312A6
:100448002C14292AFE308312AC050800F200720829
:1004580003192F2A302A332A8312AC16362ADF30A2
:100468008312AC0508007908F5007808F4007708CD
:10047800F3007608F200080064008001840A04068C
:10048800031900340406412A831205194C2A4E2AFE
:1004980001304F2A003008008312051A542A562AC0
:1004A8000130572A00300800831285185C2A5E2A1A
:0804B80001305F2A003008004A
:02400E00EC3391
:00000001FF
