:100000000428FF3FFF3FFF3F05288301D2288312CA
:10001000A900FD22D030E121003A031D102811284B
:10002000142805230030D1280030E121003A031DB7
:100030001A281B281C281128FD22D130E121003A62
:10004000031D232824282528112801300E22F90019
:1000500079088312A00001300E22F900790883127A
:10006000A10001300E22F90079088312A7000130A7
:100070000E22F90079088312A20001300E22F90045
:1000800079088312A30001300E22F9007908831247
:10009000A40000300E22F90079088312A500052380
:1000A000831220087F393922F9008312290884003D
:1000B00079088313800021087F393922F9008312DF
:1000C000290A8400790883138000271F682869287B
:1000D0009A2827081F393922F90079088312A800C5
:1000E000A71A73287528013076280030F90079089E
:1000F000A600260803197D287E288A280C302806A9
:10010000031983288428912828080C3EF9007908CF
:10011000A80091280C302806031D8F2890289128CC
:10012000A8012808F9002908023E840079088313F1
:100130008000A52827083F393922F90083122908B1
:10014000023E84007908831380002208073939228F
:10015000F90083122908033E840079088313800084
:1001600023083F393922F90083122908043E84000C
:1001700079088313800024081F393922F90083127B
:100180002908053E84007908831380002508392258
:10019000F90083122908063E840079088313800041
:1001A00001300800FF308312AA002A08B200FF3095
:1001B000AA002A08B300FF30AA002A08B400FF30C2
:1001C000AA002A08B500FF30AA002A08B600542267
:1001D00021230130D62237300720003A031DF128B1
:1001E000F228F3280C23B2218312AA002A08B000B7
:1001F00037300720003A0319FE28FF2842293730FC
:100200008312AA002A08F10030084621003A031997
:100210000A290B29432983123208AA002A08F00070
:100220003308AB002B08F1003408AC002C08F200B6
:100230003508AD002D08F3003608AE002E08F40096
:1002400037307C218312AF002F08B1003108031D25
:100250002A292B294329122383123908AA002A08A4
:10026000B2003808AA002A08B3003B08AA002A08EE
:10027000B4003C08AA002A08B5003D08AA002A08D4
:10028000B60043290C23C922F3280428F400710A7C
:1002900084008313000803194E294F296529003073
:1002A0007B297108023E840000086E227B297108B8
:1002B000023E840000089C227B297108023E8400D3
:1002C0000008E1227B2901307B297408F200F30148
:1002D0007308003A03196D294F297208003A03196F
:1002E0006329013A03195129033A03195729013A9D
:1002F00003195D294F290800F5007508023E8400A6
:10030000831300087006031986298729892900307C
:10031000B129750A840000087106031990299129F2
:10032000922987297508043E840000087206031983
:100330009A299B299C2987297508053E8400000875
:1003400073060319A429A529A62987297508063E3D
:100350008400000874060319AE29AF29B029872943
:100360000130080000308312051A0130F00000301F
:10037000851A0130F1007003031DBF29C029C72968
:100380007108031DC429C529C7290130E029700857
:10039000031DCB29CC29D3297103031DD029D129D1
:1003A000D3290230E0297003031DD729D829DF297A
:1003B0007103031DDC29DD29DF290330E02900302A
:1003C0000800F300F501F31FE629E729E9292F23A7
:1003D000EA291723AE223223AE221C23AE220310B9
:1003E000F30D0130F2007208F50708307502031CA6
:1003F000FA29FB29E3292F23AE223223AE2225231B
:10040000003A0319042A062A0130072A0030F200B4
:100410007208F4001C23AE2274080800F300F401F3
:100420002F23F5010310F40D3223AE222523003AC9
:1004300003191B2A1C2A1D2A74141C23AE22013006
:10044000F2007208F50708307502031C282A292AD1
:10045000122A730803192D2A2E2A302A1723312A2B
:100460002F23AE223223AE221C23AE222F23740868
:100470000800F8007808F40004300310F40CFF3E84
:10048000031D3D2A74080F39F5007508F600780839
:100490000F39F4007408F7000A30F4007408F00013
:1004A000760887227707080083169F0183129F0131
:1004B0000730990083160F088F3960388F000F14AA
:1004C000FE30850083128501831605102C238316C8
:1004D000051685162F233223EC220800F000073082
:1004E0007006031D742A752A772A0130862A0F3078
:1004F0007006031D7C2A7D2A7E2A752A1730700615
:10050000031D832A842A852A752A00300800F300F7
:10051000F201731C8C2A8D2A912A7008F10071084F
:10052000F2070310F00D0310F30C7308031D992A52
:100530009A2A892A72080800F0000A307006031D02
:10054000A22AA32AA52A0130AD2A16307006031D5F
:10055000AA2AAB2AAC2AA32A00300800F1013230C3
:100560007102031CB42AB52AB62ABB2A0130F00056
:100570007008F107AF2A0800F101F5220130F00000
:100580007008F10710307102031CC72AC82ABD2A5F
:100590000800F101F5220130F0007008F107043085
:1005A0007102031CD42AD52ACA2A0800F200DB2AC9
:1005B000BC220130F2027208031DDF2AE02AD82A89
:1005C0000800F0000A307006031DE72AE82AEA2A2C
:1005D0000130EB2A003008008316811281110115C9
:1005E000811401148B120B110800831281010B116D
:1005F0000B1DFB2AFC2AF82A08002F233223AE22E7
:100600001723AE221C23AE2208001723AE2232236A
:10061000AE222F23AE2208002923BC222C23BC2289
:100620000C2B080029230330D6222C230800831228
:100630008510831685100800831205118316051195
:1006400008002F233223AE2208008312050C013943
:100650000800831205140800831205100800831691
:1006600085140800831605150800FF3FFF3FFF3F74
:02400E00C43FAD
:00000001FF
