:020000040800F2
:1000000000000120D53D0008253E0008253E0008DF
:10001000253E0008253E0008253E0008000000009F
:10002000000000000000000000000000253E000865
:10003000253E000800000000253E0008AF2B000808
:10004000253E0008253E0008253E0008253E000804
:10005000253E0008253E0008A92C0008AF2C00080A
:10006000B52C0008BB2C0008C12C0008253E000858
:10007000253E0008253E0008253E0008253E0008D4
:10008000253E0008253E0008253E0008000000002F
:10009000000000000000000000000000C72C000865
:1000A000991F0008111F0008AD1F0008351F000828
:1000B000491F00085D1F0008711F0008253E000849
:1000C000253E0008253E0008253E0008253E000884
:1000D000253E0008CD360008E53600080000000087
:1000E000DD2C0008253E0008B54B0008000000008C
:1000F000000000000000000000000000253E000895
:1001000000000000253E0008851F0008253E00086D
:1001100000000000000000000000000000000000DF
:10012000253E0008253E0008253E0008253E000823
:10013000253E000800000000000000000000000054
:10014000000000000000000000000000A94B0008B3
:10015000253E0008253E0008253E0008013700081E
:10016000253E0008253E00080000000000000000B9
:10017000000000000000000000000000000000007F
:1001800000000000253E0008000000000000000004
:04019000253E000800
:10019400034613F8012B002AFBD1181A01387047C3
:1001A40053B94AB9002908BF00281CBF4FF0FF31DA
:1001B4004FF0FF3000F00CB8ADF1080C6DE904CE3F
:1001C40005F0B2FCDDF804E0DDE9022304B0704779
:1001D400704700BF10B5054C237833B9044B13B1F5
:1001E4000448AFF300800123237010BD00020020F7
:1001F40000000000F05D000808B5034B1BB1034983
:100204000348AFF3008008BD000000000402002092
:10021400F05D0008F8B50A480A4E0B4D06224FF46B
:10022400165103F0BBFC0024274656F8040B0221A8
:10023400013403F00DFE182C05F8017BF5D1F8BD4F
:1002440004040020085E00087C0200202DE9F84325
:1002540000251D4C1D4F1E4EA8464FF0010914F8F1
:10026400013B012B05F1010513D0022B24D043B926
:10027400306803F04BFE20B904F8019C03F07AFEC9
:100284003860182D07F1040706F10406E7D1BDE82C
:10029400F88303F06FFE3B68C01A3128F1D9306847
:1002A40003F034FE68B90B480A22294603F036FDF0
:1002B400022304F8013CE4E7306803F027FE012838
:1002C400DFD104F8018CDCE77C0200201C02002052
:1002D400085E0008040400207047000038B50E4B87
:1002E4001A784FF47A73B3FBF2F30C4A054610689C
:1002F400B0FBF3F000F0BAF8044658B90F2D09D852
:10030400024629464FF0FF3000F05EF8044B2046C9
:100314001D6038BD0120FCE70000002028000020FB
:100324000400002008B50B4B1A6842F400721A60EE
:100334001A6842F480621A601A6842F480721A6081
:10034400032000F02FF80020FFF7C8FFFFF7C4FFD9
:10035400002008BD003C0240034A044B11681B788E
:100364000B441360704700BF94020020000000207B
:10037400014B1868704700BF9402002038B504464A
:10038400FFF7F6FF631C1CBF054B1B78054618BF1F
:10039400E418FFF7EDFF431BA342FAD338BD00BFB7
:1003A400000000200749CA6822F4E0620302120434
:1003B40003F4E063120C134343F0BF6343F40033CC
:1003C400CB60704700ED00E0164B30B5DC68C4F339
:1003D4000224C4F10703251D042B28BF0423062D82
:1003E4004FF0FF358CBF033C002405FA03F321EAE8
:1003F4000303A54022EA0502A340002843EA0203BE
:10040400ACBF00F16040084A4FEA0313B8BF00F0E4
:100414000F00DBB2AABF00F56140135480F800332B
:1004240030BD00BF00ED00E014ED00E0002807DB64
:10043400044A4109012300F01F00834042F821309F
:10044400704700BF00E100E000280CDB43090649C7
:1004540000F01F0020330122824041F82320BFF323
:100464004F8FBFF36F8F704700E100E00138B0F1A8
:10047400807F0BD24FF0E023054A5861F02182F8C7
:1004840023100020072298611A61704701207047E9
:1004940000ED00E0002808DB4309044900F01F00D8
:1004A40001226033824041F82320704700E100E0DC
:1004B400704708B5FFF7FCFF08BD704710B5044648
:1004C40050B1437903F0FF0213B90271FFF7F5FF4E
:1004D40001236371002010BD0120FCE770B50446C0
:1004E400866DFFF745FF94F83530022B054606D09C
:1004F400802363650120002384F8343070BD2368B1
:100504001A6822F016021A605A6922F080025A61AF
:10051400226C0AB9A26C1AB11A6822F008021A6095
:100524001A6822F001021A602368186810F00100AA
:1005340007D1E26D3F239340B360012384F8353043
:10054400D9E7FFF715FF401B0528EDD92023032029
:10055400636584F83500CEE790F83530022B03D07C
:1005640080234365012070470268052380F83530F5
:10057400136823F00103136000207047044A516993
:10058400014208B502D0506102F076FB08BD00BFFD
:10059400003C0140F7B5044610B390F89534056863
:1005A40003F0FF021BB980F8942404F045FA0323F6
:1005B400B5F1A04F84F8953404BF0023A3712068DB
:1005C40001F02EFE237C8DF80030251D95E80E00E9
:1005D400206801F06BFD014630B1022384F89534A4
:1005E4000125284603B0F0BD206801F01FFE002855
:1005F400F3D1267904F1140301270246C1B28E42D5
:1006040003F124031BD8002104F515730A46C8B26C
:10061400864203F1240320D8237C8DF8003095E82A
:100624000E00206801F07EFE05460028D5D1012386
:100634006074206884F8953402F0A4F9D1E723F8B3
:100644000A0C43E9072203F8237C03F8241C03F86B
:10065400202C43F8142C0130D0E743E9072203F897
:10066400232C03F8240C03F8202C43F8142C013118
:10067400CDE710B50446006894F89434012B15D0E6
:10068400012384F89434C3685B0606D5637B012B8D
:1006940002BF836B43F48033836301F0BBFD2068A6
:1006A40002F062F9002084F8940410BD0220FCE7F3
:1006B40010B590F89424012A04460AD0012280F847
:1006C40094244174006802F03FF9002084F89404F3
:1006D40010BD0220FCE770B501F00F0606EBC6045E
:1006E40011F0800F05464FEA84044FF024001ED019
:1006F40000FB065004F114010124294444758A6066
:100704004A780E700B7102B14E83022B04BF002392
:100714004B7195F89434012B12D00123286885F885
:10072400943401F0CEFE002085F8940470BD00FBE3
:10073400065004F515710024294480F85542DEE77B
:100744000220F3E710B5044601F00F0000EBC003EC
:1007540011F0800F4FEA83034FF0240215D002FBFF
:10076400004203F11401012321445375087094F8E5
:100774009434012B12D00123206884F8943401F0BE
:10078400DFFE002084F8940410BD02FB004203F550
:1007940015710023214482F85532E7E70220F3E77C
:1007A40070B501F00F05242404FB050104FB0504C6
:1007B400C4E998230023C4F8683284F8553284F8D5
:1007C4005452164682790068012A01F5157108BF52
:1007D400C4F8706201F060FF002070BD01F00F01E9
:1007E400242303FB0100D0F86802704770B501F0C0
:1007F4000F05242404FB050104FB0504C4E90823B4
:100804000023A36201236375257516468279006867
:100814009A4201F1140108BF266301F03DFF002054
:1008240070BD38B5037901F00F05AB4204462BD3F4
:1008340011F0800F4FF024001DD000FB054100FB98
:10084400054001231431437501238B700D7094F816
:1008540094249A421AD0206884F8943402F020F840
:100864002DB9A179206804F29C4202F0DBF8002043
:1008740084F8940438BD00FB01431A4603F515714E
:10088400002382F85532DFE70120F3E70220F1E785
:1008940038B5037901F00F029342044629D302EBE1
:1008A400C20311F0800F4FEA83034FF0240017D0E6
:1008B40000FB024003F11401012321444375002588
:1008C4008D700A7094F89434012B14D0012320689D
:1008D40084F8943402F00FF884F89454284638BD10
:1008E40000FB024003F515710023214480F85532C2
:1008F400E5E70120F3E70220F1E701F00F0303EB42
:10090400C3030A064FEA83034CBF03F1140103F542
:1009140015710144006801F069BE00002DE9F04F33
:10092400066889B00446304602F068F8039000284F
:1009340040F05781206802F033F8002800F051811C
:10094400D6F808382068C3F30D23C4F8D43402F071
:1009540027F8870748BF2268206842BF536903F01D
:100964000203536102F01CF8C00606F500652CD59D
:100974002268936923F010039361D6F82080C8F3AA
:100984004343022B08F00F0740F02E8147F6F07323
:1009940018EA030F14D0242303FB0747C8F30A19EA
:1009A400D7F860124A46304601F05AFFD7F8603251
:1009B4004B44C7F86032D7F868324B44C7F8683202
:1009C4002268936943F010039361206801F0E8FF03
:1009D400010300F11B81206801F0E2FF42030DD501
:1009E400206801F0E9FF2746049006F5106B4FF0EC
:1009F400000A049B2068002B40F0D281206801F09B
:100A0400CFFF002813DA6B6823F001036B6094F8BE
:100A1400CC34012B40F06A82002184F8CC142046A7
:100A240000F0E5FA2268536903F00043536120683B
:100A340001F0B6FF01050AD5AB68DA0702D52046F6
:100A440004F06EF82268536903F40063536120686C
:100A540001F0A6FFC30433D56B68206823F00103BB
:100A64006B60102101F012FC207906F510634FF63B
:100A74007F31039A904200F23D82EB6943F0011307
:100A8400EB61E37B002B00F05182D5F8843043F016
:100A94000B03C5F884306B6C43F00B036B64D6F81E
:100AA4000038206823F4FE63C6F8003804F29C4240
:100AB400A17901F0B7FF2268536903F480535361AD
:100AC400206801F06DFF870416D5206801F09AFFB5
:100AD400206801F0EBFCE071276800F0FFFCE2798C
:100AE4000146384601F026FB204604F00CF8226843
:100AF400536903F400535361206801F051FF000768
:100B040007D5204603F0FBFF2268536903F008036E
:100B14005361206801F044FF010600F1128220684D
:100B240001F03EFFC2020CD5A04606F5126901276A
:100B34002379BB4200F21E822268536903F48013B6
:100B44005361206801F02CFF83022DD594F804E052
:100B5400234606F5326001218E4520D993F87CC2E4
:100B64000268BCF1010F40F01B82002A80F2188257
:100B7400D4F8D47402F4803207F00107BA4240F08A
:100B84000F8283F87BC2B26942F08002B26172695B
:100B9400170600F105826B6843F400736B602268EA
:100BA400536903F400135361206801F0F9FE410016
:100BB40007D5204603F0EEFF2268536903F0804313
:100BC4005361206801F0ECFE42070AD523685D6892
:100BD4006B0702D5204603F0E1FF226853682B43DC
:100BE400536009B0BDE8F08F062B7FF4E9AE08220C
:100BF40004F29C41304601F033FE242303FB0747F3
:100C0400C8F30A18D7F868324344D7E6206801F0DD
:100C1400CBFE06F530680490A2460027049B2068AA
:100C2400002B3FF4D8AE049BDB0765D55FFA87FB46
:100C3400594601F0C9FE10F0010F81461ED020680C
:100C44000123C8F8083094F806C0016C00F530633D
:100C540003EB4713BCF1010F9A687BD112F0080F24
:100C640007D0B048814209D9120407D54FF4004295
:100C740003E012F0200F48D020229A6019F0080FE8
:100C84000FD00823C8F808302368A649186C03F568
:100C9400306303EB471388429A6870D8204603F008
:100CA40017FF19F0100F1CBF1023C8F8083019F0F3
:100CB400020F14D073691A0642BF6B6843F4806351
:100CC4006B609AF85732012B06D100238AF8573209
:100CD4005946204603F056FF0223C8F8083019F09D
:100CE400200F1CBF2023C8F8083019F4005F1CBF74
:100CF4004FF40053C8F80830049B5B080137049391
:100D040008F120080AF1240A88E712F0280FB5D167
:100D1400DFF810C2614501D91204A7D41A69DAF8C0
:100D24007432C2F312029B1ACAF868326FB9D4F84B
:100D340064222AB904F29C42012101F073FE04E00A
:100D4400D4F860221A44C4F860225946204603F0BD
:100D5400C5FE93E7DFF8D0C1614506D1110485D4FF
:100D64009006F2D520229A60EFE7002FEDD1D4F857
:100D74006432002BE9D104F29C423946DDE71104C8
:100D840044BF4FF400429A60204603F0A1FEA179CB
:100D9400012986D1206804F29C4201F043FE80E7D9
:100DA400049BDB0740F199805FFA8AF319460593A7
:100DB40001F013FE10F0010F80461FD06B6B012170
:100DC4000AF00F0201FA02F223EA02036B63CBF882
:100DD4000810A17901290DD1D7E9072313443B62F7
:100DE400BAF1000F06D1636A23B9206804F29C4269
:100DF40001F018FE0599204603F079FE18F0080F5B
:100E04001CBF0823CBF8083018F0100F1CBF1023A8
:100E1400CBF8083018F0400F1CBF4023CBF8083043
:100E240018F0020F0FD05146304601F02FFAFB7D27
:100E3400012B05D100230599FB75204603F0A6FE7E
:100E44000223CBF808302368069318F0800F44D0AF
:100E5400D7E909329A4240D8A3EB0208FB699845C6
:100E640028BF9846069B03F5106308F1030803EBBB
:100E74004A134FEA98080793079B996989B2414539
:100E8400D7E9093227D393420BD8069B0AF00F0007
:100E9400D3F834280121814022EA0102C3F834281E
:100EA4001BE0A3EB0209FB69059A0698994528BF44
:100EB4009946A3790093396A1FFA89F301F0D8FBA4
:100EC4003B6A4B443B62BB6A09F103084B444FEA5B
:100ED4009808BB62D0E79342D7D9049B5B080AF118
:100EE400010A049324370BF1200B82E5204603F01A
:100EF4002FFE97E599601A6822F400121A60C3F86D
:100F04000812D3F8002222F40012C3F80022D3F806
:100F1400002242F00062C3F80022039A01320392D5
:100F24002033A6E50A30544F0A31544F6B6943F419
:100F3400005343F02B036B612B6943F00B032B61CC
:100F4400ADE5B36923F08003B361012704F25728A8
:100F54004FF024092379BB427FF6E1AD09FB07F387
:100F640018F80330012B03D1F9B22046FFF7C5FC72
:100F74000137EFE798F83C30D9F80020012B09D16C
:100F8400002A07DA67F07F0188F83B30C9B22046AF
:100F9400FFF7B3FC013708F1240809F12009C7E57C
:100FA400013124332030D7E5036870B5586A120440
:100FB40019B902439A62002070BD9C6A4E1E00EB70
:100FC40014400024B44205D33F3103EB81030243B0
:100FD4005A60F0E704F1400503EB850501346D68C0
:100FE40000EB1540EEE70368002059627047704734
:100FF4002DE9F341044640B30368DE0710D42368A7
:101004009D075BD42368190700F19D8023685A0764
:1010140000F1BD80A369002B40F0248100202CE066
:101024008D4B9A6802F00C02042A07D09A6802F0E9
:101034000C02082A0BD15B68590208D5864B1B6841
:101044009A03DCD56368002BD9D1012015E06368CD
:10105400814DB3F5803F13D12B6843F480332B606B
:10106400FFF786F97C4E054633689B03C7D4FFF728
:101074007FF9401B6428F7D9032002B0BDE8F08152
:10108400B3F5A02F04D12B6843F480232B60E3E74E
:101094002A6822F480322A602A6822F480222A6094
:1010A400002BDDD1FFF764F906462B689F03A6D514
:1010B400FFF75EF9801B6428F7D9DDE7664B9A6871
:1010C40012F00C0F07D09A6802F00C02082A11D112
:1010D4005B685D020ED4604A1368990702D5E36821
:1010E400012BB2D11368216923F0F80343EAC10349
:1010F400136087E7E268594BB2B101221A60FFF727
:1011040037F9554D06462B689B0707D52B6822698E
:1011140023F0F80343EAC2032B6073E7FFF728F9CF
:10112400801B0228EFD9A7E71A60FFF721F94A4E7E
:10113400054633689F077FF565AFFFF719F9401B34
:101144000228F6D998E76269444B82B10122C3F8B8
:10115400802EFFF70DF9404E0546736F9B073FF550
:1011640055AFFFF705F9401B0228F6D984E7C3F809
:10117400802EFFF7FDF8384E0546736F9F077FF505
:1011840045AFFFF7F5F8401B0228F6D974E7324B58
:101194001A6C12F0805228D101921A6C42F08052DB
:1011A4001A641B6C03F080530193019B01272C4D9F
:1011B4002B68D8051BD5A368274D012B27D12B6F8E
:1011C40043F001032B67FFF7D3F8234E054641F2A2
:1011D4008838336F9A0739D5002F3FF41BAF1E4A66
:1011E400136C23F08053136414E70027DFE72B68A4
:1011F40043F480732B60FFF7BBF806462B68D905D0
:10120400D9D4FFF7B5F8801B0228F7D934E7052BAA
:1012140004D12B6F43F004032B67D0E72A6F22F02D
:1012240001022A672A6F22F004022A67002BCAD11E
:10123400FFF79EF841F2883806462B6F9B07CBD503
:10124400FFF796F8801B4045F7D915E7FFF790F8AC
:10125400401B4045BDD90FE700380240000047421B
:1012640000700040374DAA6802F00C02082A3ED0F4
:10127400022B354B4FF000021A662BD1FFF778F89A
:1012840006462B6899011FD4D4E907321343626AD6
:1012940043EA8213E26A43EA0263A26A5208013A09
:1012A40043EA02436B60284B264D01221A66FFF77E
:1012B4005FF804462B689A013FF5B0AEFFF758F883
:1012C400001B0228F6D9D7E6FFF752F8801B022844
:1012D400D7D9D1E6FFF74CF804462B689B017FF57C
:1012E4009DAEFFF745F8001B0228F6D9C4E6012B92
:1012F4003FF4ABAE6B68E26903F4800191427FF482
:10130400A4AE216A03F03F028A427FF49EAE616A72
:1013140047F6C0721A40B2EB811F7FF496AEA26A00
:10132400520803F44031013AB1EB024F7FF48DAE21
:10133400E26A03F07063B3EB026F14BF0120002074
:101344009BE600BF0038024000004742134908B53D
:101354008B6803F00C03042B1CD0082B1CD14A68A7
:101364004B68496813F4800314BF0D480D48C1F35A
:10137400881118BF002302F03F02A1FB0001FEF711
:101384000FFF064B5B68C3F3014301335B00B0FB03
:10139400F3F008BD0248FCE70248FAE700380240CF
:1013A40000127A000024F4002DE9F0410D460446B1
:1013B40010B90120BDE8F081434B1A6802F007021E
:1013C4008A4228D321688F072DD4C80740D43E4BC6
:1013D4001A6802F00702AA4265D8226851076BD442
:1013E400130707D5394A2169936823F4604343EA14
:1013F400C1039360FFF7AAFF344B354A9B68C3F3DC
:101404000313D35CD840334B1860334B1868FEF792
:1014140065FF0020CEE7CAB21A701B6803F0070309
:101424008B42C6D1CEE7294B11F0040F1EBF9A6838
:1014340042F4E0529A600E0742BF9A6842F4604256
:101444009A609A68A06822F0F00202439A60BCE7AE
:1014540062681E4B012A1CD11B6813F4003FA8D0FC
:101464001A4EB36823F003031343B360FEF780FFFF
:1014740041F288380746B368626803F00C03B3EBA3
:10148400820FA4D0FEF774FFC01B4045F3D903209C
:1014940090E7911E01291B6802D813F0007FDEE754
:1014A40013F0020FDBE7EAB21A701B6803F00703BC
:1014B400AB427FF47EAF90E70449E0688B6823F485
:1014C400E05303438B608BE7003C0240003802404A
:1014D400B05E00082800002004000020014B1868BA
:1014E400704700BF28000020044B054A9B68C3F3E3
:1014F4008223D35C034A1068D84070470038024006
:10150400A85E000828000020044B054A9B68C3F32A
:101514004233D35C034A1068D84070470038024015
:10152400A85E00082800002070477047036870B563
:10153400DD681E69B10704460DD5AA070BD56FF007
:1015440002021A61012202779B699B0769D000F0AD
:1015540088FD00232377710710D56A070ED5236809
:101564006FF004021A61022222779B6913F4407F10
:1015740020465CD000F075FD0023237733070FD598
:1015840028070DD523686FF008021A610422227718
:10159400DB699907204650D000F063FD00232377D0
:1015A400F20610D5EB060ED523686FF010021A610F
:1015B40008222277DB6913F4407F204643D000F0F1
:1015C40050FD00232377F00708D5E90706D52368E3
:1015D4006FF001021A61204600F020FD320608D5A2
:1015E4002B0606D523686FF080021A61204600F0AE
:1015F400A2F8700608D5690606D523686FF0400284
:101604001A612046FFF791FFB20622D5AB0620D51A
:1016140023686FF0200220461A61BDE8704000F094
:1016240089B800F01CFD2046FFF77EFF91E700F02B
:1016340016FD2046FFF778FF9EE700F010FD2046D8
:10164400FFF772FFAAE700F00AFD2046FFF76CFFE0
:10165400B7E770BD1F4A036890420ED0B0F1804FC7
:101664000BD0A2F57C42904207D002F580629042F2
:1016740003D002F58062904208D14A6823F07003D7
:101684001343CA6823F4407313430AE0124A904296
:10169400F7D002F580629042F3D002F58062904266
:1016A400EFD04A6923F08003134303608B68C3625D
:1016B4000B688362074B984204BF0B6903630123E1
:1016C40043610369DB0742BF036923F0010303613C
:1016D400704700BF000001400040014010B50446BF
:1016E40030B390F83D3003F0FF021BB980F83C2082
:1016F40001F0F2FD0223206884F83D30211DFFF73C
:10170400A9FF012384F84630002084F83E3084F891
:101714003F3084F8403084F8413084F8423084F813
:10172400433084F8443084F8453084F83D3010BDAB
:101734000120FCE770477047026802F10C0353E88C
:10174400003F23F490730C3242E800310268002910
:10175400F2D102F1140353E8003F23F0010302F134
:10176400140C4CE800310029F3D1036B012B0BD18D
:1017740002F10C0353E8003F23F0100302F10C0CB8
:101784004CE800310029F3D1202380F842300023B3
:10179400036370470268C16838B5136923F4405382
:1017A4000B431361054683680069D1680343686984
:1017B4000343E86921F4164121F00C0103430B4370
:1017C400D3605369A96923F440730B4353611F4BDE
:1017D4009A4203D003F580639A4224D1FFF794FE22
:1017E400EA691921B2F5004FD5E90043A0FB0101D4
:1017F4001CD1DA184FF0000545EB0503FEF7D0FCC9
:101804006422B0FBF2F102FB1103DB003233B3FBC1
:10181400F2F303F007025B0002EB011203F4F87326
:101824001344A36038BDFFF75FFED9E79A009B0F0E
:10183400FEF7B6FC6422B0FBF2F102FB11031B01BC
:101844003233B3FBF2F303EB0113EAE70010014078
:10185400704710B5044648B390F8413003F0FF02D6
:101864001BB980F84020FFF7F3FF2268242384F893
:101874004130D36823F40053D3602046FFF78AFF36
:1018840023681A6922F490421A615A6922F02A02E2
:101894005A61DA6842F40052DA600020202360645E
:1018A40084F8413084F84230606310BD0120FCE7C5
:1018B40010B5044668B390F8413003F0FF021BB939
:1018C40080F84020FFF7C4FF2268242384F84130C5
:1018D400D36823F40053D3602046FFF75BFF2368EB
:1018E4001A6922F490421A615A6922F022025A615A
:1018F4005A6942F008025A61DA6842F40052DA6026
:1019040000202023606484F8413084F8423060630E
:1019140010BD0120FCE790F84130202B10D189B193
:1019240082B1C2840162828401680023212243645B
:1019340080F84120CA6842F08002CA6018467047A5
:10194400022070470120704708B5806B0023C385CF
:10195400C38401F07BFE08BD704790F84230222B0F
:1019640007B542D181680268836AB1F5805F3FD1CF
:10197400016900293FD15268C2F3080223F8022BFF
:101984008362C38D013B9BB2C385002B2DD10268BA
:10199400D16821F02001D160D16821F48071D16037
:1019A400516921F001015161202280F842204363F2
:1019B400026B012A026828D1036302F10C0353E885
:1019C400003F23F0100302F10C0C4CE80031002915
:1019D400F3D11368DB0605D50191136801935368AD
:1019E4000193019B818DFFF7B7FF03B05DF804FB02
:1019F40039B9016929B95268D2B21A70836A0133BC
:101A0400BEE7526802F07F02F7E701F019FEECE747
:101A140003681A6873B51607D9685D6904460AD164
:101A2400960640F18B808D0640F1888002B0BDE8B7
:101A34007040FFF792BF15F001054BD012F0010F73
:101A440002F0040363D11BB1636C43F002036364CB
:101A5400930749D5636C43F00403636412F0080FE1
:101A640003D0636C43F008036364636C002B5FD0A2
:101A7400920604D58B0602D52046FFF76EFF266832
:101A84007369626C03F0400302F0080253EA020532
:101A940020464FD0FFF750FE73695E0645D5226895
:101AA40002F1140353E8003F23F04003143242E8E8
:101AB40000310029F3D1E06B002836D08A4B03654E
:101AC400FEF74AFD002833D0E06B036D02B0BDE899
:101AD4007040184711F4907F30D012F0010F02F0DB
:101AE400040307D190070DD41007BED501F02003DD
:101AF4002B43B5E7CE050FD4002BF3D19607F3D5CE
:101B0400002DA7D11507B0D511F0200FA8E7C805FF
:101B140002D4002B98D1F1E7636C560743F001031C
:101B24006364EBD5002DDDD08EE7204601F08EFDF9
:101B340002B070BD01F08AFD6564F9E7206B0128ED
:101B440040F09580D50640F19280C80640F18F8020
:101B5400002201921A6801925A680192019A5A6904
:101B640052064ED5E16B0A68526892B2002ADFD061
:101B7400A08D9042DCD9E285CA69B2F5807F36D067
:101B840003F10C0252E8002F22F4807203F10C00DE
:101B940040E800210029F3D103F1140252E8002F98
:101BA40022F0010203F1140040E800210029F3D1DE
:101BB40003F1140252E8002F22F0400203F1140052
:101BC40040E800210029F3D1202284F84220216337
:101BD40003F10C0252E8002F22F0100203F10C0072
:101BE40040E800210029F3D1E06BFEF777FC0223E3
:101BF4006363E38DA18DC91A89B22046FFF7ACFE59
:101C040096E7E28DE08DA18D80B292B200288FD04C
:101C1400891A89B200298BD003F10C0252E8002FF3
:101C240022F4907203F10C0545E800200028F3D15A
:101C340003F1140252E8002F22F0010203F114050B
:101C440045E800200028F3D1202284F842202063B4
:101C540003F10C0252E8002F22F0100203F10C05EC
:101C640045E800200028F3D102236363C5E7160684
:101C740028D50D0626D594F84120212A7FF458AFA3
:101C8400A168226AB1F5805F17D12169A9B932F838
:101C9400021BC1F3080159602262E28C013A92B23C
:101CA400E284002A7FF444AFDA6822F08002DA602A
:101CB400DA6842F04002DA603AE7511C2162127895
:101CC4005A60EAE750067FF533AF4A067FF530AF36
:101CD400DA6822F04002DA60202384F8413020469A
:101CE40001F0B1FC24E700BF4D19000890F8403022
:101CF400012B11D00268242380F84130D36823F0EB
:101D04000C0343F00803D360202380F84130002300
:101D140080F84030184670470220704790F84030F1
:101D2400012B11D00268242380F84130D36823F0BA
:101D34000C0343F00403D360202380F841300023D4
:101D440080F84030184670470220704790F84120D0
:101D540090F8420010437047C285002382850269CF
:101D64004364222380F84230816203681AB1DA683E
:101D740042F48072DA605A6942F001025A61DA6808
:101D840042F02002DA600020704770B490F842609C
:101D9400202E06D141B13AB10024046370BCFFF790
:101DA400DBBF022070BC70470120FBE7836810B5DD
:101DB40004462BB10322014698470023C4E90233A9
:101DC40010BD836810B5044613B103220146984739
:101DD400204610BD184A904203461ED0B0F1804FF1
:101DE4001DD0A2F57C4290421BD002F58062904245
:101DF40019D002F58062904217D002F59A329042CF
:101E040015D002F58062904213D002F580624FF63D
:101E1400FF70934208BF07207047002070470120DD
:101E24007047022070470320704704207047052044
:101E340070470620704700BF00000140014670B59E
:101E4400044651F8100FFFF7C5FF0546084601F098
:101E540073F9094A002342F8253004F16006E3606F
:101E640004F1B005B54204D0103D2846FFF7A9FFA0
:101E7400F8E7204670BD00BF98020020F8B504467C
:101E84000846FFF7A7FF4FF6FF73984200D1FEE71D
:101E9400236903B1FEE71C4D84F82C3004F10C02D5
:101EA40045F8202004F110060E22C4E90C33C4E9DD
:101EB4000E33C4E91033C4E916232161A36484F802
:101EC4004C3084F84D30E460304601F0A1F804F160
:101ED400600504F1B00728461035FFF767FFBD42DF
:101EE400F9D100234FF6FF72C4E90033C4E9063286
:101EF400C4E90833A36063618023A3623046BDE86C
:101F0400F840FFF7EBBB00BF9802002010B5074C68
:101F1400206810B10430FFF709FBA06920B1BDE8C7
:101F240010400430FFF702BB10BD00BF9802002030
:101F3400034B186810B10430FFF7F8BA704700BFBC
:101F440098020020034B586810B10430FFF7EEBA32
:101F5400704700BF98020020034B986810B104300A
:101F6400FFF7E4BA704700BF98020020034BD8681B
:101F740010B10430FFF7DABA704700BF98020020AE
:101F8400034B186910B10430FFF7D0BA704700BF93
:101F940098020020034B586910B10430FFF7C6BA09
:101FA400704700BF98020020034BD86910B1043079
:101FB400FFF7BCBA704700BF980200200022C0E9B6
:101FC4000022C0E902227047F8B504460E4600F12B
:101FD400600500F1B00728461035FFF7EFFFBD425A
:101FE400F9D10023204623613146FFF747FF2046FD
:101FF400F8BD826810B50AB903F0F4FEBDE81040DC
:10200400C368184708B500B9FEE700F0FFFF006891
:10201400836E13B16030FFF7ECFF08BDFFF7F2BF2A
:1020240010B500B9FEE7037F013B072B10D8DFE8AA
:1020340003F004140F100F0F0F12012400F0E6FF39
:102044000068063400EB041083680BB1FFF7D1FF7E
:1020540010BD0324F2E70424F0E70224EEE7FFF7BF
:10206400DFBFFFF7DDBF82B0002302460193019B6F
:1020740001330193019BB3F1706F15D81369002BE1
:10208400F5DA00230193136943F001031361019B03
:1020940001330193019BB3F1706F05D8106910F0FF
:1020A4000100F4D102B070470320FBE784B038B5D7
:1020B40005AD85E80E009DF81930012B044627D1A3
:1020C400836B23F480338363C36823F4840323F092
:1020D4004003C360C36823F44013C3609DF82030F9
:1020E400012B02BFC36843F48013C360FFF7BBFF37
:1020F4009DF81630012B07D1A36843F00603A360B3
:10210400A36843F02003A360BDE8384004B07047DF
:10211400C36843F04003C360FFF7A5FF9DF81D307B
:1021240023B9A36B43F48033A363E1E7A36B23F4E4
:102134008033F9E7022A4AD1274B284A0B449342B9
:1021440039D9274B274A0B44934236D9264AA1F55D
:102154007403A3F51053934231D9244AA1F1837334
:10216400A3F5E74393422CD3214B224A0B449342D9
:1021740029D9214B214A0B44934226D3204B214A8F
:102184000B44934223D3204AA1F1B773A3F55853C8
:1021940093421ED31D4B1E4A0B4493422CBF06236D
:1021A4000723C26822F47052C260C26842EA8323E1
:1021B400C360002070470F23F3E70E23F1E70D23DC
:1021C400EFE70C23EDE70B23EBE70A23E9E7092309
:1021D400E7E70823E5E700BF405327FFFF340C007F
:1021E400401E1BFF3F420F007F4F120020D61300FA
:1021F40060B6E5FE5FE3160000D3CEFE40771B0019
:10220400C05BB3FEC091210020753800E05459FE34
:10221400E09C4100836843F0010383600020704721
:10222400836823F0010383600020704738B5C368D6
:10223400012923F0C04305460C46C36014D1C3688A
:1022440043F00053C36000240A20FEF797F86B693B
:10225400D90704F10A0402D4C82CF5D1C824A4F186
:10226400C8035842584138BD71B9C36843F080432C
:10227400C3600A20FEF782F86B69DA0704F10A04E6
:10228400EDD5C82CF5D1E9E70120ECE782B00023B5
:1022940002460193019B01330193019BB3F1706FDB
:1022A40015D81369002BF5DA8901002341F02001C8
:1022B40001931161019B01330193019BB3F1706F91
:1022C40005D8106910F02000F4D102B07047032043
:1022D400FBE782B0002302460193019B0133019383
:1022E400019BB3F1706F13D81369002BF5DA002347
:1022F400019310231361019B01330193019BB3F1FB
:10230400706F05D8106910F01000F4D102B0704756
:102314000320FBE7D0F800381943C0F80018002068
:102324007047000084B0F8B5044607A880E80E00A2
:1023340000239DF81C509DF82660194603F14002C5
:1023440004EB820201330F2B5160F7D104F50067CF
:10235400002E4FD17B6843F002037B60A36B43F4F0
:102364000013A363A36B23F40023A363A36B23F4DD
:102374008023A3630023C4F8003E9DF82130012B81
:1023840042D19DF81F1000293CD12046FFF7C2FF1F
:1023940010212046FFF77AFF01462046FFF799FFF8
:1023A4000843C0B2002300383B6118BF01207B61A1
:1023B40004F51062FB61002D4FD0D4F80019994246
:1023C40024DA4FF00061C4F8001900214FF67F3C75
:1023D40001339D421161C2F808C002F1200218D9EC
:1023E400D2F800E0BEF1000F10DA4FF0904EC2F8C0
:1023F40000E0EDE7A36B23F40013A363A36B43F4A2
:102404000023B6E71946C0E70321BEE700211160A7
:10241400DBE7D4F8002B002A04F5306319DA4FF017
:102424000062C4F8002B002200214FF67F3C0132E9
:1024340095421961C3F808C003F120030DD9D3F8FC
:1024440000E0BEF1000F05DA4FF0904EC3F800E053
:10245400EDE7002200211960E6E73B6923F480736D
:102464003B610023A3616FF0804363619DF81E30DC
:102474001BB9A36943F01003A361A2690A4B134378
:10248400A3619DF822301BB1A36943F00803A36143
:10249400012E01BFA36943F0804343F00403A36109
:1024A400BDE8F84004B0704700383C80D0F80838E4
:1024B40013F0060004D013F0020F14BF02200F2003
:1024C400704730B50C78012204F00F05AA404D780E
:1024D400012D00F5006300EB441019D1DD692A4396
:1024E400DA61D0F800391A0410D48A68D0F8005997
:1024F400C2F30A030A792B4343EA824343EA84532F
:1025040043F0805343F40043C0F80039002030BD49
:10251400DC6944EA0242DA61D0F8003B1B04F5D4DA
:102524008B68D0F8002BC3F30A0313430A7943EAF8
:10253400824343F0805343F40043C0F8003BE5E793
:1025440010B50A784978012900EB421300F50060C0
:1025540002F00F0222D1D3F8001900290BDAD3F8C4
:10256400001941F00061C3F80019D3F8001941F0D3
:102574008041C3F80019C46B012101FA02F224EA74
:102584000204C463C16921EA0202C261D3F80019DA
:10259400144A0A40C3F80029002010BDD3F8001BD8
:1025A40000290BDAD3F8001B41F00061C3F8001BCB
:1025B400D3F8001B41F08041C3F8001BC46B4FF4F7
:1025C400803101FA02F224EA0204C463C16921EAF7
:1025D4000202C261D3F8001B034A0A40C3F8002B6D
:1025E400DAE700BF007833EC0078F3EF82B0002321
:1025F4004A7801930B78012A4FEA43131ED100F560
:102604001060C118C258002A02DB002002B07047D3
:10261400C25842F00062C250C25842F08042C250D6
:1026240042F21072019B01330193019B934201D941
:102634000120EBE70B68002BF4DBE6E700F53060E4
:10264400C118C258002AE0DAC25842F00062C250EF
:10265400C25842F08042C25042F21072019B0133D0
:102664000193019B9342E3D80B68002BF6DBCCE784
:1026740010B59DF8084044B9033301329B0800EBC0
:10268400023001EB83038B4201D1002010BD51F8CD
:10269400042B0260F7E70000F7B54B780C69DFF80C
:1026A400B8C1DFF8B8E117460A78012B00EB4215F0
:1026B40040F0828005F51066336944BB03EA0C03DD
:1026C4003361336943F400233361336903EA0E034E
:1026D4003361012F0C7947D1CB6903B17361012CAC
:1026E4000CD1D0F8083813F4807FD5F800390CBF2A
:1026F40043F0005343F08053C5F80039D5F800394E
:1027040043F00443C5F80039002003B0F0BD03EAE8
:102714000E033361336903EA0C0333618B68BAB97E
:10272400A34238BF0B61336943F4002333610B695F
:102734003469C3F31203234333610B79012BC8D1EA
:10274400336923F0C0433361336943F00053BFE777
:102754001C44013CB4FBF3F43E4BD6F810C003EA2E
:10276400C44343EA0C03E1E7D5F80039012C43F0F4
:102774000443C5F800390B690BD0002BC4D0D0F842
:10278400341802F00F02012393400B43C0F834388D
:10279400BAE7D0F8084814F4807FD5F800490CBF94
:1027A40044F0005444F08054C5F800490097C968C7
:1027B4009BB2FFF75DFFA7E7D5F8103B03EA0E03D2
:1027C400C5F8103BD5F8103B03EA0C0305F5306659
:1027D40033618B683ABB04B10B610B623269C3F39A
:1027E400120313433361336943F40023012F33612C
:1027F40002D1CB6803B173610B79012B0CD1D0F8F2
:10280400083813F4807FD5F8003B0CBF43F0005325
:1028140043F08053C5F8003BD5F8003B43F0044334
:10282400C5F8003B70E7002CD8D01C44094AD6F800
:1028340010C0013CB4FBF3F4A4B202EAC442634303
:1028440042EA0C020B6232613269C3F3120313438E
:10285400CCE700BF0000F81FFFFF07E00000F8FF0F
:10286400034670B50020940803F5805502F0030276
:10287400A04210D301EB840062B103F580531C68BD
:102884000023D90024FA01F1C154013399B28A42D8
:10289400F7D1104470BD2E6841F820600130E7E79D
:1028A4004A780B78012A00EB431012D1D0F80029A2
:1028B400002A06DB2BB1D0F8003923F08043C0F89E
:1028C4000039D0F8003943F40013C0F8003900206F
:1028D4007047D0F8002B002A06DB2BB1D0F8003B60
:1028E40023F08043C0F8003BD0F8003B43F40013CE
:1028F400C0F8003BEBE70B784A7800EB43100B7908
:10290400012AA3F10203DBB20FD1D0F80029012B75
:1029140022F40012C0F8002905D8D0F8003943F099
:102924008053C0F8003900207047D0F8002B22F4FF
:102934000012012BC0F8002B9EBFD0F8003B43F0DF
:102944008053C0F8003BEEE7D0F8003823F4FE6370
:10295400C0F80038D0F80038090101F4FE611943C9
:10296400C0F8001800207047D0F8003E23F003039D
:10297400C0F8003ED0F8043823F00203C0F804384D
:1029840000207047D0F8003E23F00303C0F8003E57
:10299400D0F8043843F00203C0F80438002070472C
:1029A4004269806910407047D0F8183800F500601B
:1029B400C0691840000C7047D0F8183800F5006062
:1029C400C069184080B2704700EB411100F5006007
:1029D400D1F8082B406910407047D0F81028D0F87F
:1029E400343800EB411001F00F01CB4000F51060CA
:1029F400DB018068DBB2134318407047406900F084
:102A040001007047D0F8003923F4FF6323F0070373
:102A1400C0F80039D0F8043843F48073C0F804389F
:102A24000020704730B5056C104CA54200F53063AA
:102A340003D9D0F8004B002C16DB00241C611C6960
:102A440044F400241C611C6944F018041C611C69D2
:102A5400012944F0C0441C6101BF5A61D0F8003B15
:102A640043F08023C0F8003B002030BD0A30544FAF
:102A740002F0C2BE02F0C8BE86B00023052853D8B7
:102A8400DFE800F003111E2B38450093274B28483C
:102A94001A6B42F001021A631B6B03F001030093EB
:102AA400009B06B070470193204B22481A6B42F0FA
:102AB40002021A631B6B03F002030193019BF0E70C
:102AC40002931A4B1C481A6B42F004021A631B6BE4
:102AD40003F004030293029BE3E70393134B1748A9
:102AE4001A6B42F008021A631B6B03F0080303938A
:102AF400039BD6E704930D4B11481A6B42F0100266
:102B04001A631B6B03F010030493049BC9E705933A
:102B1400064B0C481A6B42F080021A631B6B03F0DD
:102B240080030593059BBCE70020BAE70038024008
:102B3400000002400004024000080240000C024071
:102B440000100240001C0240F8B51449144E074618
:102B540000F012FAFFF73EF956F82030044673B934
:102B6400B020FFF785FF0D490546384600F004FA0A
:102B740001462846FFF728FA56F824301D6056F817
:102B840024301C6844B12046FFF758F92046B02190
:102B9400BDE8F840FFF76EBFF8BD00BFC85F00088E
:102BA40098020020FDF7E4BB704708B5FDF7D4FB9D
:102BB400FDF77FFCFFF7F8FF08BD704784B0114BA9
:102BC40000220192196C41F080511964196C01F0D2
:102BD4008051019101990292596C41F480415964E8
:102BE400596C01F480410291029903921A6B42F4E8
:102BF40080521A631B6B03F480530393039B04B04A
:102C0400704700BF003802400C4BD3F8FC20D201BF
:102C14005EBFD3F8FC2042F08072C3F8FC20084B5E
:102C240000225A601A6842F001021A6000BF00BF15
:102C340000BF5868B0FA80F04009704700ED00E02A
:102C4400001000E008B5FFF7B9FFFFF7DDFFFDF75F
:102C540069FBFFF7B2FF00F087FD0348FDF72EFC88
:102C6400BDE8084001F0EBB8200000200023C0E9D3
:102C74000033C0E9023370470023012803F1010245
:102C84000AD11422DBB25343054A181D104481684B
:102C940029B11A441369184740081346EDE77047F1
:102CA400B80200200120FDF769BC0220FDF766BCD4
:102CB4000420FDF763BC0820FDF760BC1020FDF77D
:102CC4005DBC38B505242025A8B2FDF757FC013CAE
:102CD4004FEA4505F8D138BD38B506244FF4806570
:102CE400A8B2FDF74BFC013C4FEA4505F8D138BDCD
:102CF400344A104608B5062300F8043BFFF7B6FF34
:102D0400072302F118001375FFF7B0FF082302F13F
:102D14002C0082F82830FFF7A9FF092302F14000B4
:102D240082F83C30FFF7A2FF0A2302F1540082F834
:102D340050301721FFF79AFF02F1680082F86410FF
:102D4400FFF794FF02F17C0082F87810FFF78EFF02
:102D540002F1900082F88C10FFF788FF02F1A400C2
:102D640082F8A010FFF782FF02F1B80082F8B410D5
:102D74002821FFF77BFF02F1CC0082F8C810FFF78F
:102D840075FF02F1E00082F8DC10FFF76FFF02F13B
:102D9400F40082F8F010FFF769FF02F5847082F8FE
:102DA4000411FFF763FF02F58E7082F81811FFF724
:102DB4005DFFBDE8084002F5987082F82C11FFF71A
:102DC40055BF00BFB802002038B5054CA4F5A07566
:102DD400143C201DFEF7F5FFAC42F9D138BD00BF0D
:102DE400F803002030B591FAA1F391FAA1F1B3FAF6
:102DF40083F3C4685B000325B1FA81F105FA03F398
:102E0400490024EA03038A401A43C26030BD431CCC
:102E140004D00C3151F80C3C5A1C01D100207047ED
:102E2400834201F10C01F5D101207047F8B5471C2C
:102E340006460D4600D1FEE700F00F02414BC0F3F9
:102E4400031053F82240FFF717FE94FAA4F3B3FAE1
:102E540083F3876803225B0002FA03F394FAA4F273
:102E6400B2FA82F227EA03075200032393403B435A
:102E740005F007018360032903D8DFE801F05F034D
:102E84002C61FEE7012394FAA4F2B2FA82F20668F6
:102E94005200032707FA02F226EA020694FAA4F281
:102EA400B2FA82F25200934001393343012903609C
:102EB40005D843682A074CBF2343A3434360C5F3A3
:102EC4000112012A02D0022A18BF00222146BDE8BD
:102ED400F840FFF787BFC5F306227F2A01D10223FA
:102EE400D1E7360716D5230A93FAA3F6B6FA86F67F
:102EF400476A93FAA3F3B6004FF00F0CB3FA83F3C7
:102F04000CFA06F69B0027EA060602FA03F333439B
:102F14004362E4E794FAA4F3B3FA83F3066A9B00EA
:102F24000F2707FA03F326EA030694FAA4F3B3FA85
:102F340083F39B009A4032430262D0E70023A2E766
:102F44000323A0E7685E0008431C06D17047834250
:102F540002D18968FFF76ABF0C310B685A1CF6D19D
:102F6400FEE70B685A1C01D100207047834201D14F
:102F7400486870470C31F4E7431C01D0FFF7F1BFF8
:102F8400002070474B6813B94FF0FF3070478342FD
:102F940001D1086870470C31F4E708B1FFF7F2BFBC
:102FA4004FF0FF30704703468B42084604D01BB1F4
:102FB40000290CBF18460020704700001049D1F8C2
:102FC400883043F47003C1F888300E4B1A6842F01D
:102FD40001021A6000229A601A6822F0847222F4B4
:102FE40080321A60084A5A601A6822F480221A60F1
:102FF4004FF43F02DA604FF000638B60704700BF0C
:1030040000ED00E00038024010300024043870471E
:103014000368414A934288B00DD1002300933F4B8B
:103024005A6C42F001025A645B6C03F00103009392
:10303400009B08B07047B3F1804F0CD1002301937B
:10304400364B1A6C42F001021A641B6C03F0010344
:103054000193019BEDE7324A93420CD10023029382
:103064002E4B1A6C42F002021A641B6C03F002032A
:103074000293029BDDE72B4A93420CD10023039376
:10308400264B1A6C42F004021A641B6C03F004030E
:103094000393039BCDE7244A93420CD1002304936A
:1030A4001E4B1A6C42F008021A641B6C03F00803EE
:1030B4000493049BBDE71D4A93420CD1002305935E
:1030C400164B5A6C42F480325A645B6C03F48033BE
:1030D4000593059BADE7164A93420CD10023069352
:1030E4000E4B5A6C42F400325A645B6C03F40033A6
:1030F4000693069B9DE70F4A93429AD100230793B8
:10310400064B5A6C42F480225A645B6C03F48023AD
:103114000793079B8DE700BF000001400038024081
:103124000004004000080040000C00400040014042
:1031340000440140004801400368244A934206D1F8
:1031440002F59C32536C23F0010353647047B3F1CE
:10315400804F05D11E4A136C23F00103136470479A
:103164001C4A934205D102F50D32136C23F002037D
:10317400F4E7194A934205D102F50C32136C23F09B
:103184000403EBE7154A934205D102F50B32136CA5
:1031940023F00803E2E7124A934205D102F578428C
:1031A400536C23F48033D0E70E4A934205D102F5E1
:1031B4007442536C23F40033C7E70B4A9342C5D1DE
:1031C40002F57042536C23F48023BEE700000140F3
:1031D400003802400004004000080040000C004099
:1031E400004001400044014000480140431C21D0FC
:1031F400184B984221D00BD8A3F5006398421ED0F7
:1032040003F5806398421CD0B0F1804F1BD0FEE7D9
:10321400114B984219D008D8A3F58843984214D08A
:1032240003F58043984212D0F1E70C4B9842EED15B
:103234001A2070476FF00D007047322070471D2030
:1032440070471E2070471C207047192070471820B3
:10325400704700BF000C004000440140004801409A
:10326400431C21D0194B984221D010D8A3F57843A0
:1032740098421ED007D8B0F1804F1CD0A3F58063CC
:1032840098421AD0FEE7124B984218D0FAE7114B35
:10329400984216D003F58063984214D0A3F50063D6
:1032A4009842EFD1182070476FF00D0070471B2033
:1032B40070471E2070471C2070471D207047322025
:1032C4007047192070471A20704700BF0000014062
:1032D400000C00400044014038B5FFF799FE044655
:1032E4000068FFF783FFD4E91212FDF76DF8206838
:1032F400FFF77CFFFDF79AF822681046FFF7B0FF4E
:1033040005461046FFF772FF85420BD02846D4E9E4
:103314001212FDF759F82068FFF7A2FFBDE8384004
:10332400FDF784B838BD00002DE9F04F87B004469E
:103334008A46406D66499846109B01939146FFF773
:103344001BFE64498346A06DFFF716FE62490646DC
:10335400E06DFFF711FE61490546206EFFF70CFE94
:103364000746BBF1000F00F0AF80A26D013202D01E
:10337400002E00F0A980E26D013202D0002D00F091
:10338400A380226E013202D0002F00F09D803146CE
:103394005846FFF708FE29462060FFF704FE394629
:1033A4002060FFF700FE2060002800F08D804C4B69
:1033B40098424ED103F594335A6A42F010025A628D
:1033C4005A6A22F010025A62002203925A6C42F0A6
:1033D40010025A645B6C03F010030393039B2523D0
:1033E400A4F864303A49606DFFF7AEFD1EB1394967
:1033F400A06DFFF7A9FD2DB13749E06DFFF7A4FDDE
:103404004FF480752FB13549206E45F40075FFF7F0
:103414009BFD94F86520334B94F96400C4F80C9038
:10342400271D43F822702368C4E9013A019B002256
:10343400C4E904380C23C4E9063522620121FCF7EF
:10344400C3FF3846002E3AD107B0BDE8F04FFEF76F
:103454002FBA254B984217D103F5FA331A6A42F46E
:1034640000321A621A6A22F400321A6200220492AA
:103474001A6C42F400321A641B6C03F40033049394
:10348400049B4FF49373ABE7184B9842AAD103F50E
:1034940092335A6A42F020025A625A6A22F0200297
:1034A4005A62002205925A6C42F020025A645B6C04
:1034B40003F020030593059B40F2472390E707B0F0
:1034C400BDE8F04FFEF7C5B907B0BDE8F08F00BF07
:1034D4008C5F0008505F00082C5F0008085F00083C
:1034E40000100140F8030020004400400014014093
:1034F40010B4019C20B101945DF8044BFFF714BF94
:103504005DF8044B7047000008B5074B90F8652040
:1035140053F82200FEF71AFC00F02200A0F1220367
:103524005842584108BD00BFF803002008B5074BB6
:1035340090F8652053F82200FEF708FC00F0210003
:10354400A0F121035842584108BD00BFF8030020F0
:1035540070B50E46054610B94FF0FF3070BDFFF749
:10356400D3FF04460028F7D12946012211F8663F0B
:10357400337095F86500034B53F82000FEF705FC03
:103584002046EBE7F803002038B50D460446B8B1F1
:10359400FFF7BAFFA0B994F96400E564FCF754FF9F
:1035A40094F86500074B04F1660153F820000122EA
:1035B400FEF7EBFB94F96400BDE83840FCF736BF36
:1035C40038BD00BFF803002038B515460446B8B12D
:1035D400016590F96400FCF737FFE36EB4F87610E8
:1035E40094F8650013FA81F1064BAAB253F820004F
:1035F400FEF791F994F96400BDE83840FCF716BF72
:1036040038BD00BFF803002048B1836D013306D1F3
:1036140090F86520024B53F82200FEF767BB704711
:10362400F803002048B1836D013306D190F865207A
:10363400024B53F82200FEF771BB7047F8030020D9
:10364400836C04381847C36C0438184730B50446F3
:1036540050F804391D6815F0010585B012D0002218
:1036640000921A6800925B680093009BFFF74CFF7E
:1036740040BB012204F16201204605B0BDE83040A0
:10368400FEF783BB196811F0020106D001951A6890
:1036940001925B680193019BE8E71A6812F0040247
:1036A40006D002911A6802925B680293029BDDE7DE
:1036B40019680907DAD503921A6803925B680393C1
:1036C400039BD3E705B030BD08B52520FCF7E2FE27
:1036D400024B1868BDE80840FEF79AB9F8030020C9
:1036E40008B52620FCF7D6FE034B586818B1BDE890
:1036F4000840FEF78DB908BDF803002008B547203F
:10370400FCF7C8FE024B9868BDE80840FEF780B994
:10371400F80300200A490346086810B50344EFF390
:103724000882934205D9074B0C221A604FF0FF30F0
:1037340010BD054A054C121B9342F4D20B60F7E707
:103744002C000020B8130020000001200004000019
:10375400FEE70000024B16221A604FF0FF3070475C
:10376400B81300200120704710B594B01422002132
:1037740009A802F0F7F81422002103A802F0F2F8D5
:103784001F4B00220192196C41F0805119641B6C8B
:103794001C4903F080530193019B02920B6823F4AC
:1037A400404343F400430B600B6803F4404302932B
:1037B400029B012110230820CDE90B13A823CDE996
:1037C400100302244FF0040C072308A8CDE90E428D
:1037D400CDE912C30894FDF70BFC00B1FEE70F23FB
:1037E400CDE903344FF48053CDE9063005902146EA
:1037F40003A8FDF7D9FD00B1FEE714B010BD00BF6A
:1038040000380240007000407047B0F80831B0F84A
:103814000421981A00F03F007047B0F80831B0F85E
:1038240004219BB293421ABFD0F8FC30985C4FF04D
:10383400FF30704790F80631B0F80A01C0B28342F5
:1038440027BFC3F13F03C018C01A00F1FF3070470F
:1038540007B503688DF807105B6801220DF10701B5
:10386400984703B05DF804FB13B50DF10701044656
:10387400FFF76EFE88B9B4F87430B4F870200133E1
:1038840003F03F03934208D0B4F87420A16E9DF86E
:10389400070092B28854A4F8743002B010BD00003E
:1038A400B0F87620816F11FA82F202F03F0210B56F
:1038B400A0F87620B0F87610B0F8722089B28A4267
:1038C4001AD0B0F87640B0F87610A4B24032121B89
:1038D400544289B204F03F0402F03F02C1F14001B6
:1038E40058BF62428A4228BF0A4682670349FFF7EB
:1038F4006BFE4FF0FF3010BD0020FCE7A538000838
:1039040003682DE9F0479B680446884616469847A5
:1039140001232374D4F8EC30B4F8069101338246C1
:10392400C9F1400904F1940708D194F810312BB17E
:10393400002384F810313846FFF766FE23682046DA
:103944009B6898470028F9D035464D4523D85545FE
:1039540021D8B4F80621D4F800015319402B10449F
:103964002FD82A46414602F03BF8A946B4F806315E
:103974001D4405F03F05A4F806513846FFF7D6FD6F
:1039840030B91749C4F80C914A463846FFF71CFE73
:103994003046BDE8F087D145236828BFD1464A4662
:1039A40041465B6820469847236820469B689847B1
:1039B400A5EB0905C844B4F806918246C9F140094B
:1039C400C3E7C2F140094A46414602F009F8D4F877
:1039D4000001A5EB090208EB090102F001F8C5E7B3
:1039E400A5380008037C70B504460D46A3B1FCF766
:1039F400BFFC0646B4F80621B4F80A319BB29A42D9
:103A04000AD0002DF8D0FCF7B3FC801B8542F1D816
:103A1400B4F80A31A4F8063170BDC0F8F030009B48
:103A2400C0F8F430914208BF4FF0FF3100F11103A8
:103A3400C0E93A21C0F8FC3000F151020023A0F89B
:103A44000831C0E94023A0F80A317047CBB2232BD8
:103A540008D80E4A52F8233001F4E0611943C0F843
:103A6400EC10704701F0C002C02A0CD1C92B0AD84F
:103A7400074B01F03F0201F4E06153F82220034BAD
:103A840053F82230EAE74FF0FF31E8E7AC61000871
:103A940084610008CBB2232B08D80E4A52F8233095
:103AA40001F4E0611943C0F8E810704701F0C00266
:103AB400C02A0CD1C92B0AD8074B01F03F0201F4EC
:103AC400E06153F82220034B53F82230EAE74FF029
:103AD400FF31E8E7AC6100088461000873B54FF476
:103AE4007A7316460022C0E901231B4B03604FF092
:103AF400FF33C0F8EC30194B9A68194B0D46044655
:103B0400184953F82200FFF737FA854216D1C3212A
:103B14002046FFF79BFFC221FFF7BCFF012E4FF0A9
:103B2400FF3308BFC4F8EC3000932046D4E93A21AF
:103B34004FF0FF33FFF771FF02B070BD0A4928460A
:103B4400FFF72BFA0749C4F8EC002846FFF725FADB
:103B5400C4F8E800E2E700BF4C6200088461000892
:103B6400AC6100088C5F0008505F0008D0F8EC30AE
:103B7400013310B504460FD1036800215B6A9847EE
:103B840094F8103143B9012384F8103104F19400FE
:103B9400BDE81040FFF746BD10BD000002F007036A
:103BA400023BDBB2042B73B50546C0F8141180F850
:103BB4001121144602F0300002D930280ED1FEE75C
:103BC400154A3028D25C0CD101324FF4C063082A64
:103BD4000ED0092AF3D14FF480520AE09306EED4B2
:103BE400EDE714F020031CBF01324FF48063EEE7CD
:103BF4000022C4F3C00405F1940664033046009423
:103C0400FFF776FC2846FFF7B1FF0449304602B0BF
:103C1400BDE87040FFF7B8BC3C6200086D3800088E
:103C240010B50446FFF7A2FFB4F80821B4F8043134
:103C340092B29A421FBFD4F8FC20D05C013303F047
:103C44003F0314BFA4F804314FF0FF3010BD00004F
:103C5400024903480022FFF741BF00BF004400406F
:103C64000404002070B505460C46084649B1FCF72B
:103C74008FFA2B680246214628465B68BDE87040EF
:103C8400184770BD03681B681847000008B502494F
:103C9400FFF7E8FF08BD00BF7462000830B58BB0C1
:103CA4000023012A0C468DF8243098BF0A2209A962
:103CB4002546B4FBF2F404FB125303F0FF03092B73
:103CC40094BF30333733DBB2AA4201F8013DEFD958
:103CD400FFF7C8FF0BB030BD2DE9F04107460E4693
:103CE40014462AB90368BDE8F0411B68C9B21847F5
:103CF4000A2A05D1002905DBBDE8F041FFF7CEBF54
:103D0400D2B2F9E72D21FFF7BDFF224605467142E5
:103D14003846FFF7C3FF2844BDE8F08138B50546AF
:103D2400FFF7DAFF04462846FFF7B0FF204438BD0A
:103D340010B5044600F01EF9E060236820465B6974
:103D44009847002808DA00F015F9E368C01AA36858
:103D54009842F2D34FF0FF3010BDF8B507460D4638
:103D64008E180C46B44201D1601BF8BD3846FFF7EB
:103D7400DFFF031EF8DB04F8013BF3E72DE9F04114
:103D84000746884616461D4673B100243846FFF799
:103D9400CFFF031E05DB434503D033550134A54251
:103DA400F4D12046BDE8F0811C46FAE708B50320AB
:103DB400FCF7F8FABDE8084000F006B908B5AFF31F
:103DC4000080FCF727FAFCF741FA00F0E3F8FAE781
:103DD400DFF834D0FFF7F2F80C480D490D4A002300
:103DE40002E0D458C4500433C4188C42F9D30A4AAC
:103DF4000A4C002301E013600432A242FBD301F019
:103E0400C9FDFFF7DBFF7047000001200000002020
:103E1400000200208063000800020020C01300207C
:103E2400FEE708B54FF0A040FEF7ACFD0A2000F015
:103E3400A3F8BDE808404FF0A040FEF795BD00F0A0
:103E440027B908B5FEF7BAFEBDE80840FFF78CBCF9
:103E5400C3B2232B2DE9F0410D462AD8274A52F844
:103E6400233000F4E0641C43621C44D0244EC4F3A9
:103E7400031704F00F0856F8273023FA08F3DB077A
:103E840010D520492046FEF7C2FF10B12046FEF7A8
:103E94005BFE56F82730012202FA08F223EA0203F5
:103EA40046F82730052D15D8DFE805F015211B1D30
:103EB4001F2300F0C002C02A1DD1C92B1BD8124BEE
:103EC40000F03F0200F4E06453F822200B4B53F857
:103ED4002230C8E7FEE700212046BDE8F041FEF7A6
:103EE400A5BF1021F8E72021F6E70321F4E701211B
:103EF400F2E70921F0E7BDE8F08100BFAC610008FA
:103F040034100020C85F000884610008C2B2232A6C
:103F140010B5144900F4E06309D851F82220134382
:103F2400C3F30312052A0ED900231B69FFDE00F038
:103F3400C004C02CF8D1C92AF6D80B4A00F03F00BF
:103F440052F82020E9E7094903F00F0351F8222031
:103F54000749126951F8233093430CBF0120002014
:103F640010BD00BFAC610008846100080800002097
:103F7400685E0008FEF716BE38B5044648B1FEF781
:103F840011FE054600F022F8FEF70CFE431BA34287
:103F9400F8D338BD08B5084B2BB10848FFF735FCFA
:103FA40008B1AFF30080064B2BB1064800F058FF70
:103FB40008B1AFF3008008BD000000000404002035
:103FC400000000004C100020FEF73CBE70470020AB
:103FD4007047000021280ED022281DD0202808D1A7
:103FE400184B0A681A600A791A714A795A718A79DF
:103FF4009A7100207047134B1A680A701A68120AE3
:104004004A705A888A70DA78CA701A790A715A79A9
:104014004A719B798B71ECE70B4A4B8812780B49F8
:10402400002A14BF1A46012202F001020A700A781B
:1040340012B1074A00211160064AC3F3400313700A
:10404400D7E700BF300000204D00002021050020EC
:104054001C0500202005002010B5094C094800F07B
:1040640089FF204600F0F5FF074B012220461A7015
:1040740000F0F8FF0146054801F071FB002010BD77
:1040840022050020E80500204C00002070060020D6
:1040940010B50C4C22789AB90B490C4800F0A4F8DE
:1040A40070B90B49094800F0B2F848B90949074802
:1040B40001F03CFB20B9054800F0C2F8012323704D
:1040C40010BD00BF6E060020800000207006002096
:1040D4006C0100203800002038B50C4B0C4D1C68D6
:1040E4003CB995F89C32032B0CD0002000F0010061
:1040F40038BDFCF73DF995F89C32032BF5D1001B34
:104104000228F2D8034B1878C0B2EFE71C05002050
:10411400700600202105002037B50F4CD4F8BC32BE
:10412400D3F81432ABB90D480DF1060100F06CFF61
:10413400BDF80630054663B1FCF71AF9084BBDF823
:10414400062018602946204601F0FBFA204601F0BB
:1041540012FB03B030BD00BF70060020E80500204C
:104164001C05002010B5054B054800241C6000F018
:1041740066FFFFF7D1FF204610BD00BF1C050020DD
:10418400E805002038B50A4D2B780BB1002038BD66
:10419400084800F067FF01460028F7D001240648CC
:1041A4002C7001F0DCFA044801F000FB2046EEE735
:1041B4004C000020220500207006002008B5098864
:1041C400064800F089FF064B00221A70FFF7DAFF59
:1041D40010B9044801F000FB002008BD22050020AE
:1041E4004C0000207006002078B10023C0F8B832DB
:1041F400C0F8C432C0F8D03209B1C0F8B4120123F7
:1042040080F89C32027000F0F1BC0320704713B5B3
:1042140000230446ADF8063081B1CB6AC0F8B81269
:1042240023B10DF106009847C4F8D002D4F8D8326F
:104234000133C4F8D832002002B010BD0320FBE7DC
:1042440000F006BDD0F8B8320BB11B681847184609
:10425400704708B5D0F8B8325B689847002818BF93
:10426400032008BD38B5044600F2AA25284600F00C
:1042740071FB012394F8AA12C4F89432B4F8B03252
:10428400C4F8983201F01F03012B08D0022B0CD084
:104294008BB929462046BDE8384000F04DB929467F
:1042A4002046BDE8384000F08BBA29462046BDE8D8
:1042B400384000F0B2BA204601F08001BDE8384031
:1042C40000F0DEBC70B50446164609BBD0F8943243
:1042D400032B0CD1D0E9573293420AD99B1A9A4244
:1042E400C0F85C3128BF1A46314600F087FB002035
:1042F40070BD90F89C32032B06D1D0F8B8321B69FC
:1043040013B1C0F8D4129847204600F07FFBEEE7C3
:1043140090F89C32032BEAD1D0F8B8329B69002B79
:10432400E5D00022BDE87040C0F8D422184770B52B
:10433400044616460D4600293DD1D0F89432022B8E
:104344000ED1D0E90732934212D99A1AC26131468A
:1043540000F03FFB2B462A462946204600F0BEFCCF
:1043640094F8A03213B1002384F8A032002070BD69
:104374000CD18269934209D8D0F898329A4205D276
:104384000A4600F026FBC4F89852E3E794F89C32FE
:10439400032B08D1D4F8B832DB6823B10022C4F867
:1043A400D422204698478021204600F069FC20460C
:1043B40000F037FBD4E790F89C32032BD6D1D0F829
:1043C400B8325B69002BD1D00022BDE87040C0F840
:1043D400D4221847F8B5012380F89C32D0F8B832BB
:1043E40000210446C0F894124160C0F8A41280F879
:1043F400A012B3B90026002240251146012740230C
:10440400204600F02CFCA4F86471C4F860512B46DB
:1044140000228021204600F022FCA7842562304639
:10442400F8BD5B68002BE5D098470028E2D003264E
:10443400E1E701740020704790F89C32042B1EBF02
:1044440090F89C32DBB280F89D32042380F89C32D1
:104454000020704790F89C32042B02BF90F89D32E4
:10446400DBB280F89C320020704708B590F89C229B
:10447400032A05D1D0F8B83213B1DB6903B19847E8
:10448400002008BDD0F8D422AE3208B550F822205E
:104494004AB190F89C32032B01D1136A0BB9002066
:1044A40008BD9847FBE70320FAE7D0F8D422AE32E0
:1044B40008B550F822204AB190F89C32032B01D160
:1044C400536A0BB9002008BD9847FBE70320FAE7BD
:1044D40000207047012208B580F89C22D0F8B82249
:1044E4000AB9002008BD5268017990470028F8D025
:1044F4000320F7E7002070470020704710B542887A
:1045040003789A4201D8002010BD04782044234443
:104514004478052C9BB2F4D184788C42F1D1F3E732
:1045240010B58021044600F0ABFB20460021BDE815
:10453400104000F0A5BB000073B50B7803F06003D6
:10454400202B04460D4612D0402B10D0002B5AD1FC
:104554004B78092B57D8DFE813F0020124015600E9
:1045640016015600840016005600EC00A000D4F892
:10457400D432AE33294654F823309B68204602B027
:10458400BDE87040184749880023ADF806300B0A8F
:10459400013B062B37D8DFE803F0041C2936364FDD
:1045A4005900D0F8B4321B68207C0DF106019847FD
:1045B400EA88002A00F0A080BDF806301BB39A42B6
:1045C40028BF1A46ADF806200146204600F0F4F94B
:1045D4001CE0027CD0F8B83232B99B6A0DF10600B7
:1045E400984702234370E3E7DB6AF7E7C9B2D0F8E0
:1045F400B432052918D8DFE801F0030D0F111315A3
:104604005B68002BD0D12046FFF78AFF002528469F
:1046140002B070BD9B68F4E7DB68F2E71B69F0E762
:104624005B69EEE79B69ECE7DB69002BEBD00DF1EE
:104634000602007C9847BBE7037C002BE3D1D0F84B
:10464400B8320DF106005B6B9847B1E7037C002B91
:10465400D9D1D0F8B8320DF106001B6B9847072367
:10466400C0E78B88002BCED1CB88002BCBD14D88D3
:104674007F2DC8D890F89C32032BC4D0E9B280F8BF
:104684009E1200F01DFB204600F0C0F91DB102236C
:1046940084F89C32BAE70123FAE78978474D012967
:1046A400297003D9FFF73CFF0325B0E790F89C324B
:1046B400022BDEB208D0032E17D0FFF731FF297882
:1046C4002046FFF7C6FDEFE7B1B101214160FFF7D6
:1046D400B9FD0546204625B1FFF722FF84F89C6208
:1046E40095E700F093F90323D2E749B9022380F850
:1046F4009C324160FFF7ADFD204600F087F985E765
:1047040041680129F8D0C9B2FFF7A3FD2978616097
:104714002046FFF797FD05460028EDD02046FFF719
:10472400FFFE21792046FFF794FD022384F89C3292
:104734006DE7CA88012A7FF466AF90F89C120229BB
:10474400CBB207D8002B3FF45EAF0146002341F8FB
:10475400083F3AE7032B7FF456AF011D35E790F885
:104764009C32013B022B3FF64EAFCA88022A7FF4EB
:104774004AAFD0F8A4320146002B0CBF0123032317
:1047840041F80C3F21E74B88012B02D1C4F8A43235
:10479400B2E7022B7FF437AF8B881B0A80F8A03274
:1047A400AAE790F89C32013B022B3FF62CAF4B88D2
:1047B400012B7FF42BAF0023E8E700BF4C09002056
:1047C40038B50B7803F060025B0604460D4601D54C
:1047D400402A1CD194F89C32013B022B17D829792A
:1047E4000229204614D8FFF785FEA0B9D4F8B832C0
:1047F4009B6883B1C4F8D402294620469847EA88C6
:1048040022B918B9204600F001F9002038BD20462D
:10481400FFF786FEF9E70320F8E770B50B788A887E
:104824000E7903F06003202B04460D4653D0402B31
:1048340051D063BB4B78012B3BD0032B20D033BB2F
:1048440090F89C32022BD9B261D003291FD106F013
:104854000F0312F0800F4FF0140202FB030365D024
:104864009B8CA3B106F07F05013505EB850500EBB4
:104874008505730666D100232B600222294651E088
:1048840090F89C32022BDAB237D0032A03D02046A8
:10489400FFF746FE0BE04B8833B9710604D0EB8872
:1048A40013B9314600F0ECF9204600F0AFF80020CF
:1048B40070BD90F89C32022BDAB21ED0032AE6D1E6
:1048C4004B88002BF3D1730602D0314600F0DFF998
:1048D400204600F09BF831462046FFF70DFE0028E5
:1048E400E5D1D4F8B832C4F8D4029B68002BDED0EA
:1048F40029462046BDE8704018477206C7D03146A5
:1049040000F0BEF98021204600F0BAF9CFE7710625
:10491400BDD112064CBF00F1140100F5AA710023A9
:104924000B600222204600F047F8C0E7B3F8643178
:10493400002BACD006F07F05142303FB050505F519
:10494400AA7596E73146204600F0A8F9002892D0CF
:10495400012391E70B7803704B7843704B884380B5
:104964008B888380CB88C380704710B58021044630
:1049740000F086F920460021BDE8104000F080B91F
:1049840070B50D461646044670B1FBF701FCC3B280
:1049940001335B0033802B7003236B70013C0223D3
:1049A400002114F8012F02B970BDEA545A1CD2B286
:1049B4000233A954DBB2F4E710B513460222C0E96E
:1049C4000633C0F894220A46002100F080F9002042
:1049D40010BD08B513460A46002100F078F90020FE
:1049E40008BD10B513460322C0E95633C0F894221B
:1049F4000A46002100F072F9002010BD08B51346E4
:104A04000A46002100F06AF9002008BD08B5042216
:104A14000023C0F8942219461A4600F058F90020E1
:104A240008BD08B505220023C0F8942219461A4689
:104A340000F054F9002008BD0368B3F1A04F37B566
:104A440004463DD11F4D03E0A968FEF7EFF90C358C
:104A54002868431CF8D11C4B5A6B002542F0800295
:104A64005A6301955A6C42F480425A645B6C03F4B5
:104A74008043012101932A464320019BFBF7A4FCB8
:104A84004320FBF7D3FCE17A012919D10F4B4FF4F2
:104A940080225A61DA6822F48022DA609A6842F449
:104AA40080229A601A6842F480221A602A202A46D8
:104AB400FBF78AFC2A2003B0BDE83040FBF7B6BC04
:104AC40003B030BDC05E000800380240003C014025
:104AD40000F29C41D0F8E004FFF7C4BB242303FB9D
:104AE4000103D0F8E004D3F86022FFF7EBBB2423E2
:104AF40003FB0103D0F8E0041A6AFFF718BCD0F8EE
:104B0400E004FFF7B2BC10B50446D0F8E004FFF7A8
:104B140061FCD4F8E0040121BDE81040FFF789BC32
:104B240010B50446D0F8E004FFF786FC2268D2F8FA
:104B3400003E43F00103C2F8003EE37A23B1034A86
:104B4400136943F00603136110BD00BF00ED00E0DC
:104B540010B5C37A044633B1FFF773F9084A1369F1
:104B640023F0060313612268D4F8E004D2F8003E6F
:104B740023F00103BDE81040C2F8003EFFF76ABC11
:104B840000ED00E0D0F8E004FFF78FBCD0F8E004BB
:104B9400FFF778BCD0F8E004FFF79ABCD0F8E00443
:104BA400FFF798BC0148FBF7B9BE00BF50090020CD
:104BB40010B50B4CE37A6BB10A4A136923F0060370
:104BC4001361FFF73EF92268D2F8003E23F0010397
:104BD400C2F8003E044B4FF480225A6110BD00BF5E
:104BE4005009002000ED00E0003C014070B5164C77
:104BF4000546FFF716F9042323714FF0A043236001
:104C04004FF40073E380A360C4F8E0540023C5F8B4
:104C1400C8422046E3602374FBF7BCFC00B1FEE706
:104C24000A4D2046A988FCF7DEF90126AA8955F821
:104C3400081F204601F00F010136FCF7B5F9052ED7
:104C4400F4D1002070BD00BF5009002008630008A3
:104C540008B5D0F8C802FBF70CFD002008BD10B55C
:104C64001446D0F8C8021A462346FBF734FD002048
:104C740010BD08B5D0F8C802FBF764FD002008BDDC
:104C840008B5D0F8C802FBF7CCFD002008BD08B574
:104C9400D0F8C802FBF7FCFD002008BD11F0800F1E
:104CA400D0F8C8324FF024021BBF01F07F0102FB91
:104CB400013302FB0133987D08BF93F85602704715
:104CC40008B5D0F8C802FBF7F3FC002008BD08B50E
:104CD400D0F8C802FBF78AFD002008BD08B5D0F85B
:104CE400C802FBF75DFD002008BDD0F8C802FBF741
:104CF40075BD0000122301480B8070476C00002032
:104D0400042301480B807047680000200048704766
:104D1400340E0020002370B54D1C1E46DCB2A242A6
:104D240000D870BD040FB0F1204F34BF3034373495
:104D340001F81340000105F813600133EEE70000A9
:104D44001A2310B50B800A4BD3F8100AD3F8182A8B
:104D540080180AD0D3F8144A06490822FFF7DAFF6C
:104D6400042210312046FFF7D5FF034810BD00BFD1
:104D74000070FF1F500000204E00002010B5044CAE
:104D840004480A462146FFF7FBFD204610BD00BF3C
:104D9400340F0020776200080A4608B5044920B998
:104DA4000448FFF7EDFD024808BD0348F9E700BFDA
:104DB400340F00208A620008AA62000810B5044C6F
:104DC40004480A462146FFF7DBFD204610BD00BF1C
:104DD400340F0020CA62000810B5044C04480A4687
:104DE4002146FFF7CDFD204610BD00BF340F002043
:104DF400E662000807B503688DF807105B680122B6
:104E04000DF10701984703B05DF804FB014800F079
:104E1400B7B800BFE80500202DE9F041DFF83C8079
:104E24000E4617461546ADB1FFF756F990B1404608
:104E340000F0A6F8A84228BF284604460028F3D06C
:104E440031460648224600F0BCF82D1B2644FFF7E5
:104E540063F9E8E7781BBDE8F08100BFE8050020AE
:104E6400014800F054B900BF2205002010B50448E1
:104E740000F075F90446FFF785F9204610BD00BF20
:104E8400220500202DE9F84306460F46154694B244
:104E9400FFF770F8DFF83490F06022463946484650
:104EA40000F0BAF98046A4EB0804A4B2FFF76AF94B
:104EB40047443CB1FFF75EF8F368C01AB368984200
:104EC400EBD32D1B2846BDE8F88300BF2205002044
:104ED4002DE9F04F85B00646884617461C469DB21C
:104EE400FFF748F8DFF84CA0F0600DF10E092B46EF
:104EF4003A464146CDF80090504600F0D5F9834635
:104F0400FFF740F9BDF80E30ED1AADB21F44BBF106
:104F1400000F04D0641B204605B0BDE8F08F002DBF
:104F2400F9D0FFF727F8F368C01AB3689842DED3C4
:104F3400F0E700BF22050020014800F047B900BF98
:104F44002205002010B5034C204600F029F8002863
:104F5400FADC10BDE8050020044B4FF47A720021FE
:104F6400C3E90112024A1A60704700BF4C100020C6
:104F7400386300080023A0F88230A0F8803070471E
:104F8400B0F88230B0F880209BB292B2981A7F3089
:104F9400434203F07F0300F07F0058BF584270473C
:104FA400B0F88030B0F882209BB292B203F1800056
:104FB400801A434203F07F0300F07F0058BF584239
:104FC4007047F8B5B0F88050ADB2C5F18005954290
:104FD40004460F46B0F8800016460CD914FA80F047
:104FE40000F0FEFCB4F8802016FA82F202F07F0290
:104FF400A4F88020F8BD2A4614FA80F000F0F0FCF2
:10500400721B79192046EBE7B0F88020B0F88230A3
:1050140092B29BB29A422BBFB0F88030B0F8823083
:10502400B0F88220C3F1800328BF9B1A9BB20B8087
:10503400A0F88430B0F8823010FA83F07047B0F8EA
:105044008220B0F88430134403F07F03A0F8823048
:1050540070470023A0F8C230A0F8C030C023A0F8E5
:10506400C4307047B0F8C22082B092B2ADF80620C6
:10507400B0F8C010BDF8062089B292B29142B0F8DF
:10508400C020034692B21FD37F2A08D9B0F8C020AB
:1050940092B2802A09D1BDF8062092B22AB1B3F89F
:1050A400C00013FA80F002B07047BDF8062092B237
:1050B400402A4FF00000F6D9B3F8C02092B2A3F80A
:1050C400C420A3F8C000EAE7BDF80610403289B254
:1050D4008A42E4D30020E6E7B0F8C03011FA83F343
:1050E4009BB2A0F8C030B0F8C020B0F8C43092B27F
:1050F4009BB29A4224BFC023A0F8C430B0F8C03099
:105104009BB2BF2B84BF0023A0F8C0307047B0F817
:10511400C03082B09BB2ADF80430B0F8C4309BB25A
:10512400ADF80630B0F8C220BDF8043092B29BB29C
:105134009A4208D8BDF80430B0F8C2209BB292B2AB
:10514400981A02B07047BDF80630BDF80410B0F8E4
:10515400C22089B292B211FA83F0801AF1E7B0F852
:10516400C02082B092B2ADF80420B0F8C42092B24C
:10517400ADF80620B0F8C210BDF8062089B292B28C
:10518400914204BF0022A0F8C220B0F8C210BDF8BA
:10519400042089B292B29142034614D0B0F8C220DE
:1051A40092B2511C89B2A0F8C210B3F8C210805C4C
:1051B400BDF8062089B292B2914202D30022A3F82C
:1051C400C22002B070474FF0FF30FAE7B0F8C030A9
:1051D40082B09BB2ADF80430B0F8C4309BB2ADF8E5
:1051E4000630B0F8C220BDF8063092B29BB29A42A3
:1051F40024BF0023A0F8C230B0F8C220BDF80430A8
:1052040092B29BB29A421BBFB0F8C2309BB24FF02D
:10521400FF30C05C02B0704737B504460846B4F8A6
:10522400C0309BB2ADF80430B4F8C4309BB2ADF8D2
:105234000630B4F8C210BDF8063089B29BB2994268
:1052440024BF0023A4F8C230B4F8C210BDF804305F
:1052540089B29BB2994294BFBDF80450BDF8065080
:10526400B4F8C230B4F8C210ED1AADB2954228BFFA
:1052740015462A4614FA81F100F0B2FBB4F8C230A4
:1052840015FA83F39BB2A4F8C230B4F8C220BDF877
:10529400063092B29BB29A4228BF0023284628BF08
:1052A400A4F8C23003B030BDF7B51C46B0F8C03026
:1052B400089D9BB2ADF80430B0F8C4309BB2ADF891
:1052C4000630B0F8C260BDF80630B6B29BB29E425A
:1052D40024BF0023A0F8C230B0F8C260BDF8043087
:1052E400B6B29BB29E4294BFBDF80430BDF80630FE
:1052F400B0F8C260B0F8C2709B1B9BB2A34228BF37
:10530400234610FA87F70024A6B2B34211D82B80A3
:10531400B0F8C22013FA82F39BB2A0F8C230B0F8FE
:10532400C220BDF8063092B29BB29A4220D200202D
:1053340018E017F804C08C4516D1B0F8C2309BB2FF
:10534400013333449BB2A0F8C230B0F8C220BDF898
:10535400063092B29BB29A4224BF0023A0F8C23016
:105364002E80012003B0F0BD02F804C00134CBE765
:105374000023A0F8C230DAE7D0F8D43200EB83007F
:1053840010B5D0F8C0428CB1D0F8C4321BB194F837
:105394000002FF2801D1002010BD9B6894F801226F
:1053A40021469847FF2384F80032F4E70320F3E70B
:1053B4000A23038000487047A401002070B58321AC
:1053C40006460F48FFF79AF8012105460C48FFF7F7
:1053D40095F8822104460A48FFF790F80DB110228F
:1053E400AA711CB1402222710022627118B14022BC
:1053F40002710022427143230148338070BD00BF13
:10540400A000002070B5832106460F48FFF776F808
:10541400012105460C48FFF771F8822104460A4829
:10542400FFF76CF80DB11022AA711CB14022227151
:105434000022627118B1402202710022427143239A
:105444000148338070BD00BFE400002070B58321A3
:1054540006460F48FFF752F8012105460C48FFF7AE
:105464004DF8822104460A48FFF748F80DB110228E
:10547400AA711CB1002222710222627118B10022A9
:1054840002710222427143230148338070BD00BF80
:105494002801002038B5D0F8D432B033044650F88F
:1054A40023508DB1FFF721FCD4F8D432C5F80C0297
:1054B40004EB8304D5F80402D4F8C43205F503716F
:1054C400DB689847002038BD0320FCE7F8B5D0F826
:1054D400D462D0F8C87200EB86060A46D6F8C052E9
:1054E40025B301F00F0C142404FB0C04A3697BB155
:1054F4004FF0240E0EFB0C77FF69B3FBF7FC07FBA0
:105504001C332BB9A3611A46FFF7E1FB0020F8BD59
:105514000023C5F81432D6F8C4321B69002BF5D029
:10552400D5F8080205F504719847EFE70320EEE784
:10553400D0F8D432F7B500EB83030022D3F8C0626D
:105544008DF8052004460D46ADF80620002E65D0E2
:1055540091F800C01CF0600229D0202A5AD1CA88D0
:105564004F78F2B11CF0800F0ED0D3F8C43231461C
:105574009B6838469847EA88072A28BF072231469D
:105584002046FFF719FA09E0402A28BF402286F88E
:10559400007286F801223146FFF723FA002003B097
:1055A400F0BDD3F8C43238469B689847F6E74B7889
:1055B4000B2B2FD801A252F823F000BFF15500089D
:1055C400A155000819560008195600081956000874
:1055D40019560008195600081956000819560008EB
:1055E40019560008015600081156000890F89C321C
:1055F400032B0FD102220DF10601C1E790F89C3272
:10560400032B07D101220DF10501B9E790F89C3273
:10561400032BC3D029462046FFF7A7F90320BEE792
:1056240038B5044600258221FFF723FB0121A4F8A5
:105634004C502046FFF71DFBA4F8785183212046E7
:10564400FFF717FBD4F8D432256604EB8303D3F8B1
:10565400C02252B1D3F8C4325B689847D4F8D4322C
:10566400B03344F82350C4F8BC52002038BD0000C5
:10567400F8B52D4D04464FF407720021284600F07A
:1056840071F9D4F8D432B03344F82350237CC4F8ED
:10569400BC52CBBB4FF40073822102222046FFF799
:1056A400DEFA0121A4F84C104FF4007302222046C4
:1056B400FFF7D5FA012610230322A4F862308321D0
:1056C4000823A4F878612046FFF7C9FAD4F8D43245
:1056D400A4F8606004EB83030027D3F8C432C5F850
:1056E40004721B689847D5F80422C5F81472C5F8EB
:1056F4001872B2B1237C93B94FF40073314620463B
:10570400FFF7ECFA0020F8BD402382210222204654
:10571400FFF7A5FA0121A4F84C104023C6E7402363
:10572400ECE70220EFE700BF5C10002039B1D0F8AD
:10573400D43200EB8300C0F8C41200207047032069
:105744007047D0F8D432B03350F823302BB1C3F8BB
:105754000812C3F810220020704703207047D0F8C5
:10576400D432B03350F823301BB1C3F804120020F4
:10577400704703207047D0F8D432B03310B550F8D6
:1057840023207AB1D2F8144201236CB9C2F814323E
:10579400D2F810320364D2F808228221FFF797FA74
:1057A400204610BD0320FCE71846FAE7D0F8D422BF
:1057B400B03208B550F8222062B1037CD2F804223A
:1057C40033B94FF400730121FFF788FA002008BDB4
:1057D4004023F8E70320FAE7D0F8D422B03208B522
:1057E40050F8223033B100231A460121FFF776FA2C
:1057F400002008BD0320FCE7024B0146186800F0B6
:105804002DB800BFB0010020024B0146186800F01B
:10581400F5B800BFB001002070B50F4E0C463168DA
:10582400054611B900F0A6F830602146284600F07C
:10583400A1F8431C03D14FF0FF34204670BDC41CB3
:1058440024F00304A042F8D0211A284600F092F86C
:105854000130F2D1EFE700BF781200202DE9F041CA
:10586400CD1C25F0030508350C2D38BF0C25002D63
:10587400064601DBA94204D90C2333600020BDE8AD
:10588400F081314F00F062F83B681C4644BB294666
:105894003046FFF7C1FF431C044650D13C68214603
:1058A400002941D1002C44D02368304604EB03087E
:1058B40000F060F880453CD121686D1A29463046D5
:1058C400FFF7AAFF013034D023682B4423603B68E0
:1058D400002B36D05A68A24229D100225A600EE029
:1058E4002268521B1DD40B2A16D96119A3422560C4
:1058F40018BF5960636808BF396062514B60304615
:1059040000F02AF804F10B00231D20F00700C21A4E
:10591400B5D01B1AA350B2E7A3426268DED13A6045
:10592400EDE723466468B1E70C464968B8E71346D7
:10593400CEE70C233360304600F00EF89EE7056096
:10594400DDE75B60FFDE00BF7C120020014800F051
:1059540045B800BFBC130020014800F040B800BFA8
:10596400BC13002002440346934200D1704703F85D
:10597400011BF9E738B5064D0023044608462B60A1
:10598400FDF7C8FE431C02D12B6803B1236038BD68
:10599400B813002070B50D4D0D4C641BA4100026E7
:1059A400A64209D10B4D0C4C00F020FA641BA41044
:1059B4000026A64205D170BD55F8043B9847013630
:1059C400EEE755F8043B98470136F2E764630008B4
:1059D40064630008646300087863000870477047D4
:1059E4000A44914200F1FF3300D1704710B511F819
:1059F400014B03F8014F9142F9D110BD38B505466A
:105A0400002941D051F8043C0C1F002BB8BFE41806
:105A1400FFF79CFF1D4A136833B96360146028467E
:105A2400BDE83840FFF798BFA34208D92068211881
:105A34008B4201BF19685B6809182160EDE71A46BB
:105A44005B680BB1A342FAD911685018A0420BD17C
:105A540020680144501883421160E0D118685B68E3
:105A6400536008441060DAE702D90C232B60D6E7B0
:105A7400206821188B4204BF19685B68636004BF07
:105A8400091821605460CAE738BD00BF7C120020A9
:105A940008B5062000F02CF80120FDF759FE1F2957
:105AA40038B505460C4604D9162303604FF0FF3081
:105AB40038BDC26B12B152F821304BB9284600F000
:105AC40031F8224601462846BDE8384000F018B8AF
