:020000000A28CC
:10000800FE00030EF0000A08F100E82A0B28FB01A5
:10001800831320308400413069238301132823236C
:1000280037238312A001A101A201A701AC012D3041
:1000380084008317001C83138001840A8001840ACA
:100048008001840A8001072375088312CC00740894
:10005800CB007308CA007208C90007237508831209
:10006800DB007408DA007308D9007208D8004C085D
:100078005B06031D49284B085A06031D49284A08F0
:100088005906031D49284908580603194C284D28C4
:1000980099285B08CC005A08CB005908CA005808B0
:1000A800C9000508C50001300310C50CFF3E031D3B
:1000B8005828451860286228013063280030CD0090
:1000C8000508C50004300310C50CFF3E031D672852
:1000D80045186F287128013072280030CE000508B5
:1000E800C50003300310C50CFF3E031D76284518D4
:1000F8007E288028013081280030CF003D30F20072
:100108000030F3004D08F40032223930F20000309C
:10011800F30083124E08F40032223530F20000302A
:10012800F30083124F08F400322283123D08D600F0
:100138003908D7003508D400D10156080319A52875
:10014800A628AD2857080319AA28AB28AD280130DE
:10015800D1005108031DB128B3280130B42800305C
:10016800D500D2015608031DBA28BB28C228570853
:10017800031DBF28C028C2280130D2005208031D21
:10018800C628C8280130C9280030D0000130D30063
:1001980056080319D028D128D72857080319D52875
:1001A800D628D728D30155080319DB28DC28E028EE
:1001B8000130A000A701442950080319E428E528C4
:1001C800E828A001A701442920080319EC28ED28F4
:1001D800DE282708031DF128F22816290130A70078
:1001E800B830C5000B30C6000030C7000030C8006A
:1001F8005808C50759080318590F03290429C607C1
:100208005A0803185A0F09290A29C7075B0803184F
:100218005B0AC8074808AB004708AA004608A900B7
:100228004508A800270803191A291B2944295B082F
:10023800F5005A08F4005908F3005808F20028306D
:10024800C5000030C600450884008317461C831388
:100258000008F600840A0008F700840A0008F8007D
:10026800840A0008F900C422003A03193C293D29F0
:10027800442983125508031D422943294429E528A6
:1002880083125408031949294A294E290130A1002B
:10029800A201D0292108031952295329A02922088B
:1002A800031D57295829A0290130A2001030C50084
:1002B8002730C6000030C7000030C8005808C507FE
:1002C80059080318590F69296A29C6075A080318D3
:1002D8005A0F6F297029C7075B0803185B0AC807FC
:1002E8004808A6004708A5004608A4004508A3003A
:1002F8000130AC00FA30C5000030C6000030C7003D
:100308000030C8005808C50759080318590F8D2927
:100318008E29C6075A0803185A0F93299429C70724
:100328005B0803185B0AC8074808B0004708AF0015
:100338004608AE004508AD0022080319A429A529DE
:10034800D0295408031DA929AA29D0295B08F5003A
:100358005A08F4005908F3005808F2002330C50081
:100368000030C600450884008317461C8313000824
:10037800F600840A0008F700840A0008F800840AD6
:100388000008F900C422003A0319CB29CC29D02946
:100398008312A101A201AC01831222080319D529F5
:1003A800D629242A5B08F5005A08F4005908F300F6
:1003B8005808F2002D30C5000030C60045088400FA
:1003C8008317461C83130008F600840A0008F70008
:1003D800840A0008F800840A0008F900C422003AD8
:1003E8000319F729F829252A83122C080319FD294E
:1003F800FF290130002A0030AC00FA30C500003077
:10040800C6000030C7000030C8005808C5075908A2
:100418000318590F102A112AC6075A0803185A0F29
:10042800162A172AC7075B0803185B0AC807480873
:10043800B0004708AF004608AE004508AD00252AC1
:10044800AC01831220085E238312210848238312FB
:100458002C0853237123640031280A287208013EAE
:10046800F50073080318013E003EF6007508840085
:100478008317761C8313000874060319442A452A37
:10048800652A7208013EF50073080318013E003E14
:10049800F600750884008317761C8313740880009F
:1004A8007208023EF50073080318013E003EF6008C
:1004B800750884008317761C83138001840A8001E1
:1004C800C32A7208023EF50073080318013E003E75
:1004D800F600750884008317761C83130008F7005C
:1004E800840A0008F80000307802143003197702F3
:1004F80003187F2A802AC32A7208023EF50073086F
:100508000318013E003EF600750884008317761C28
:10051800831301308007840A0318800A7208023E98
:10052800F50073080318013E003EF60075088400C4
:100538008317761C83130008F700840A0008F80064
:1005480000307802143003197702031CAC2AAD2A54
:10055800C32A7208013EF50073080318013E003EE5
:10056800F600750884008317761C83130008FF00C3
:10057800720884008317731C83137F0880000800A7
:1005880072088312C1007308C2007408C30075089A
:10059800C4007608C1027708031C770FD42AD52A2D
:1005A800C2027808031C780FDA2ADB2AC30279080A
:1005B800031C790FE02AE12AC402C41FE42AE62AB0
:1005C8000130E72A0030080083120C1CEC2AED2ABF
:1005D800002BFF308F0006308E000C100130B10761
:1005E800003003180130B207003003180130B30798
:1005F800003003180130B40771088A00700E8300B8
:10060800FE0E7E0E09000B0D0B0D0139FA008B133F
:1006180083123408F9003308F8003208F70031086B
:10062800F6007A0C031C8B1303188B177908F50056
:100638007808F4007708F3007608F20008007030B4
:1006480083168F049F010730831299008316850152
:100658008512051005118514051681179501DA30E4
:10066800FB0571230800831290019010303090042C
:10067800FF308F0006308E000C1083160C140B17F9
:100688008B17831210140800F200720803194D2BFF
:100698004E2B502B7B14522BFE30FB050800F2002A
:1006A80072080319582B592B5B2B7B155D2BFB30DC
:1006B800FB050800F20072080319632B642B662BF4
:1006C800FB16682BDF30FB05080064008001840AF4
:1006D80004060319003404066A2B7B08831285007C
:0206E800080008
:02400E00CC33B1
:00000001FF
