:100000003DEF00F0FF00FF004282F2A40AEF00F093
:100010000CEF00F03BEF00F0F00ED76E600ED66EE6
:10002000F2943B4A3C2A394A3A2A3C5009E10A0EEA
:100030003B5CD8A01EEF00F020EF00F027EF00F0AF
:100040000A0E3B5E000E3C5A010E0001AD6F374AAE
:10005000382AE80E375C030E3858D8A032EF00F08B
:1000600034EF00F03BEF00F0000E386E000E376EFC
:10007000010E0001AC6F42921100EEEF0FF0FF0095
:10060000003E5149453E00427F400042615149460B
:100610002141454B311814127F1027454545393C7F
:100620004A494930017109050336494949360649A5
:1006300049291E3C4281818181423C3C4281A58105
:1006400099423C1824428142241800183C7EFF7EC7
:10065000246642003636000000000000007F494951
:1006600049417F0808087F7F020C027F00417F41DB
:10067000007F4141221C3F4040403F7F09192946ED
:100680007F494949363E414141227E1111117E0781
:10069000186018073E4141413E01017F0101444974
:1006A0004D4100009E0E116E060E126E000E17ECEC
:1006B0000EF07C0E176E000E186E9BC019F09CC0D9
:1006C0001AF09DC01BF09EC01CF02CEC05F0480EEB
:1006D0000001606F4F0E616F550E626F520E636FB7
:1006E000200E646F4D0E656F450E666F540E676F7A
:1006F000450E686F520E696F200E6A6F200E6B6F89
:10070000000E8E6F7C0E8E25D96EDA6A000EDA220C
:100710008E51296E2A6A0C0E2926000E2A22600E9E
:100720002924E16E000E2A20E26EDFCFE7FF8E2B38
:10073000080E8E659EEF03F0A0EF03F082EF03F04A
:10074000600E116E000E126E020E17EC0EF07C0E93
:10075000176E000E186E97C019F098C01AF099C065
:100760001BF09AC01CF0AFEC06F0420E0001606F67
:10077000520E616F550E626F200E636F200E646F14
:10078000000E8F6F7C0E8F25D96EDA6A000EDA228A
:100790008F51296E2A6A050E2926000E2A22600E24
:1007A0002924E16E000E2A20E26EDFCFE7FF8F2BB7
:1007B000080E8F65DEEF03F0E0EF03F0C2EF03F009
:1007C000000E926F600E896F000E8A6FEBEF03F0E0
:1007D000922B894B8A2B89C0D9FF8AC0DAFFDF5060
:1007E000D8B4F5EF03F0F7EF03F0FFEF03F0160EC8
:1007F0009265FDEF03F0FFEF03F0E8EF03F0925195
:10080000060DF3CF85F00A0E8D6F85510A0F866FA6
:10081000800E296E000E2A6E8651295E000E2A5A1D
:10082000D8902A302C6E29302B6E2B50906F90C0B0
:1008300087F090510A0F886FA851D8B422EF04F0C6
:1008400024EF04F02CEF04F0A351D8A42AEF04F015
:100850002CEF04F032EF04F0430E786F060E796F40
:1008600036EF04F04B0E786F060E796F040E076EAC
:10087000875159EC10F0B5EC10F0000E00018B6FB1
:10088000070E8B6546EF04F048EF04F04AEF04F0E2
:100890005CEF04F08B517825296E000E79212A6EC9
:1008A00029C0F6FF2AC0F7FF0800F550CAEC10F087
:1008B00000018B2B40EF04F0D2EC10F0040E0D6E13
:1008C000600E0E6E000E0F6E00018851E5EC0EF00A
:1008D0007C0E176E000E186E93C019F094C01AF0BB
:1008E00095C01BF096C01CF0AFEC06F0560E000150
:1008F000606F410E616F430E626F200E636F200EBA
:10090000646F000E916F080E916589EF04F08BEF14
:1009100004F08DEF04F0A5EF04F07C0E9125D96E64
:10092000DA6A000EDA229151296E2A6A050E29260A
:10093000000E2A22600E2924E16E000E2A20E26EAB
:10094000DFCFE7FF912B83EF04F0000E926F600E74
:10095000896F000E8A6FB0EF04F0922B894B8A2BBF
:1009600089C0D9FF8AC0DAFFDF50D8B4BAEF04F0EB
:10097000BCEF04F0C4EF04F0160E9265C2EF04F071
:10098000C4EF04F0ADEF04F09251060DF3CF85F003
:100990008D518525866F800E296E000E2A6E865138
:1009A000295E000E2A5AD8902A302C6E29302B6EE0
:1009B0002B50906F90C087F090518D25886FA75174
:1009C000D8B4E5EF04F0E7EF04F0EFEF04F0A35143
:1009D000D8A4EDEF04F0EFEF04F0F5EF04F0330EE0
:1009E0007A6F060E7B6FF9EF04F03B0E7A6F060EFE
:1009F0007B6F060E076E875159EC10F0B5EC10F0C6
:100A0000000E00018C6F070E8C6509EF05F00BEFEF
:100A100005F00DEF05F01FEF05F08C517A25296EDA
:100A2000000E7B212A6E29C0F6FF2AC0F7FF0800BE
:100A3000F550CAEC10F000018C2B03EF05F0D2EC5E
:100A400010F0060E0D6E600E0E6E000E0F6E0001A1
:100A50008851E5EC0EF0120019C00AF01AC00BF034
:100A60001BC00CF01CC00DF0100E0E6E0E0E0F6EA3
:100A7000000E106E000E116E79EC0DF00AC021F020
:100A80000BC022F00CC023F00DC024F0100E056E38
:100A90000E0E066E000E076E000E086E19C001F0F5
:100AA0001AC002F01BC003F01CC004F060EC0EF092
:100AB00001C00AF002C00BF003C00CF004C00DF03E
:100AC0003C0E0E6E000E0F6E000E106E000E116EBC
:100AD00079EC0DF00AC01DF00BC01EF00CC01FF029
:100AE0000DC020F024500DE1A00E215C860E22588E
:100AF000010E2358D8A07FEF05F081EF05F089EFB4
:100B000005F09F0E216E860E226E010E236E000EE2
:100B1000246E100E0E6E270E0F6E000E106E000E5D
:100B2000116E21C00AF022C00BF023C00CF024C0CB
:100B30000DF079EC0DF00AC001F00BC002F00CC012
:100B400003F00DC004F00A0E056E000E066E000ED6
:100B5000076E000E086E60EC0EF00150300F17C0EB
:100B6000D9FF18C0DAFFDF6E20EE01F01750D9264A
:100B70001850DA22E80E0E6E030E0F6E000E106E85
:100B8000000E116E21C00AF022C00BF023C00CF041
:100B900024C00DF079EC0DF00AC001F00BC002F09A
:100BA0000CC003F00DC004F00A0E056E000E066EB8
:100BB000000E076E000E086E60EC0EF00150300F54
:100BC000DF6E20EE02F01750D9261850DA22640E9C
:100BD0000E6E000E0F6E000E106E000E116E21C014
:100BE0000AF022C00BF023C00CF024C00DF079EC09
:100BF0000DF00AC001F00BC002F00CC003F00DC0F4
:100C000004F00A0E056E000E066E000E076E000E52
:100C1000086E60EC0EF00150300FDF6E20EE03F036
:100C20001750D9261850DA220A0E0E6E000E0F6EDB
:100C3000000E106E000E116E21C00AF022C00BF0E3
:100C400023C00CF024C00DF079EC0DF00AC001F0C7
:100C50000BC002F00CC003F00DC004F00A0E056ECC
:100C6000000E066E000E076E000E086E60EC0EF0B1
:100C70000150300FDF6E20EE04F01750D9261850C7
:100C8000DA2221C001F022C002F023C003F024C008
:100C900004F00A0E056E000E066E000E076E000EC2
:100CA000086E60EC0EF00150300FDF6E20EE05F0A4
:100CB0001750D9261850DA223A0EDF6E20EE06F0D1
:100CC0001750D9261850DA220A0E0E6E000E0F6E3B
:100CD000000E106E000E116E1DC00AF01EC00BF04B
:100CE0001FC00CF020C00DF079EC0DF00AC001F02F
:100CF0000BC002F00CC003F00DC004F00A0E056E2C
:100D0000000E066E000E076E000E086E60EC0EF010
:100D10000150300FDF6E20EE07F01750D926185023
:100D2000DA221DC001F01EC002F01FC003F020C077
:100D300004F00A0E056E000E066E000E076E000E21
:100D4000086E60EC0EF00150300FDF6E20EE08F000
:100D50001750D9261850DA22000EDF6E120019C083
:100D60000AF01AC00BF01BC00CF01CC00DF0100EE6
:100D70000E6E0E0E0F6E000E106E000E116E79ECE0
:100D80000DF00AC025F00BC026F00CC027F00DC0F6
:100D900028F0100E056E0E0E066E000E076E000E89
:100DA000086E19C001F01AC002F01BC003F01CC08D
:100DB00004F060EC0EF001C00AF002C00BF003C0BA
:100DC0000CF004C00DF03C0E0E6E000E0F6E000E07
:100DD000106E000E116E79EC0DF00AC01DF00BC004
:100DE0001EF00CC01FF00DC020F019C001F01AC099
:100DF00002F01BC003F01CC004F03C0E056E000E98
:100E0000066E000E076E000E086E60EC0EF001C05C
:100E100021F002C022F003C023F004C024F02850C7
:100E20002710261009E1640E255CD8A01AEF07F000
:100E30001CEF07F024EF07F0630E256E000E266E00
:100E4000000E276E000E286E0A0E0E6E000E0F6E3C
:100E5000000E106E000E116E25C00AF026C00BF0B9
:100E600027C00CF028C00DF079EC0DF00AC001F09D
:100E70000BC002F00CC003F00DC004F00A0E056EAA
:100E8000000E066E000E076E000E086E60EC0EF08F
:100E90000150300F17C0D9FF18C0DAFFDF6E20EE07
:100EA00001F01750D9261850DA2225C001F026C0CB
:100EB00002F027C003F028C004F00A0E056E000EF1
:100EC000066E000E076E000E086E60EC0EF001500C
:100ED000300FDF6E20EE02F01750D9261850DA22BC
:100EE0003A0EDF6E20EE03F01750D9261850DA22A2
:100EF0000A0E0E6E000E0F6E000E106E000E116EBA
:100F00001DC00AF01EC00BF01FC00CF020C00DF079
:100F100079EC0DF00AC001F00BC002F00CC003F038
:100F20000DC004F00A0E056E000E066E000E076E70
:100F3000000E086E60EC0EF00150300FDF6E20EEF8
:100F400004F01750D9261850DA221DC001F01EC037
:100F500002F01FC003F020C004F00A0E056E000E60
:100F6000066E000E076E000E086E60EC0EF001506B
:100F7000300FDF6E20EE05F01750D9261850DA2218
:100F80003A0EDF6E20EE06F01750D9261850DA22FE
:100F90000A0E0E6E000E0F6E000E106E000E116E19
:100FA00021C00AF022C00BF023C00CF024C00DF0C9
:100FB00079EC0DF00AC001F00BC002F00CC003F098
:100FC0000DC004F00A0E056E000E066E000E076ED0
:100FD000000E086E60EC0EF00150300FDF6E20EE58
:100FE00007F01750D9261850DA2221C001F022C08C
:100FF00002F023C003F024C004F00A0E056E000EB8
:10100000066E000E076E000E086E60EC0EF00150CA
:10101000300FDF6E20EE08F01750D9261850DA2274
:10102000000EDF6E12000001A251D8B41AEF08F0D2
:101030001DEF08F0010E1EEF08F0000EA26FA2C017
:10104000A3F0010E9B27000E9C239D239E23F00EF0
:101050009B5D1B0E9C59750E9D59150E9E59D8A06F
:1010600034EF08F036EF08F040EF08F0000E9B6F09
:10107000000E9C6F000E9D6F000E9E6F1EEC0FF019
:101080000001A851D8B447EF08F049EF08F04FEF3E
:1010900008F0010E9727000E982399239A23A75151
:1010A000D8B455EF08F057EF08F05DEF08F0010EE7
:1010B0009327000E942395239623AB51D8B463EF66
:1010C00008F065EF08F06DEF08F0AA51D8A46BEFB7
:1010D00008F06DEF08F08BEF08F02C0E9F5D010E0D
:1010E000A059D8B076EF08F078EF08F07AEF08F062
:1010F0009F4BA02B2C0E9F5D010EA059D8A083EF13
:1011000008F085EF08F091EF08F0010EA66F000ED1
:10111000A86F91EF08F0000EA06F000E9F6F000EF9
:10112000A66FA951D8A497EF08F099EF08F0C2EF85
:1011300008F0A751D8B49FEF08F0A1EF08F0C2EF74
:1011400008F0A551D8A4A7EF08F0A9EF08F0ABEF7D
:1011500008F0010EA46F0A0EA561B1EF08F0B3EF1D
:1011600008F0B4EF08F0A52B090EA565BAEF08F05A
:10117000BCEF08F0C6EF08F0000EA76F000EA46FDA
:10118000C6EF08F0000EA56F000EA46FA851D8A4FA
:10119000CCEF08F0D0EF08F02D6A2D2AD1EF08F03F
:1011A0002D6A8B502D18FE0B2D188B6E0001A75148
:1011B000D8A4DDEF08F0E1EF08F02D6A2D2AE2EF68
:1011C00008F02D6A2D468B502D18FD0B2D188B6EB7
:1011D00052EC03F00001A12B090EA165F2EF08F01B
:1011E000F4EF08F0F8EF08F0000EA16F1EEC0FF01E
:1011F0001200076E2F0E076400EF09F002EF09F0EE
:101200007AEF09F03A0E076008EF09F00AEF09F0EB
:101210007AEF09F0100E036EFF0E046E0750050DF5
:10122000F3CF05F0F4CF06F0035005260450062254
:10123000010E0524016E060E0620026EC3EF09F0B2
:10124000990E016E060E026EC3EF09F0940E016E48
:10125000060E026EC3EF09F08F0E016E060E026ECF
:10126000C3EF09F08A0E016E060E026EC3EF09F09D
:10127000850E016E060E026EC3EF09F0800E016E40
:10128000060E026EC3EF09F07B0E016E060E026EB3
:10129000C3EF09F0760E016E060E026EC3EF09F081
:1012A000710E016E060E026EC3EF09F06C0E016E38
:1012B000060E026EC3EF09F0670E016E060E026E97
:1012C000C3EF09F0620E016E060E026EC3EF09F065
:1012D0005D0E016E060E026EC3EF09F0530E016E35
:1012E000060E026EC3EF09F0580E016E060E026E76
:1012F000C3EF09F00750036E046A0450000AD8B423
:1013000084EF09F074EF09F00350200AD8B474EFA9
:1013100009F01A0AD8B46EEF09F07B0AD8B432EF9C
:1013200009F0030AD8B43EEF09F0010AD8B438EF47
:1013300009F0070AD8B450EF09F0010AD8B468EFF1
:1013400009F00D0AD8B462EF09F0010AD8B456EFDB
:1013500009F0040AD8B45CEF09F0020AD8B426EF09
:1013600009F01D0AD8B444EF09F0060AD8B420EFFA
:1013700009F0010AD8B44AEF09F0030AD8B42CEFF7
:1013800009F074EF09F01200000E026E040E016EF7
:1013900079EC10F0086E5A0E0818D8B4D2EF09F0A4
:1013A000D4EF09F0EFEF09F0000E00019B6F000E83
:1013B0009C6F000E9D6F000E9E6F000E976F000ECB
:1013C000986F000E996F000E9A6F000E936F000ECB
:1013D000946F000E956F000E966F62EF0AF0000E8C
:1013E000026E000E016E79EC10F0036E0350096E70
:1013F0000A6A0B6A0C6A000E026E010E016E79EC2D
:1014000010F0036E03C004F0056A066A076A06C09E
:1014100007F005C006F004C005F0046A0450091284
:1014200005500A1206500B1207500C12000E026EE5
:10143000020E016E79EC10F0036E03C004F0056A31
:10144000066A076A05C007F004C006F0056A046A68
:101450000450091205500A1206500B1207500C12C4
:10146000000E026E030E016E79EC10F0036E03C0E5
:1014700004F0056A066A076A04C007F0066A056A8E
:10148000046A0450091205500A1206500B12075044
:101490000C1209C09BF00AC09CF00BC09DF00CC060
:1014A0009EF0000E0001976F000E986F000E996F6E
:1014B000000E9A6F000E936F000E946F000E956FE2
:1014C000000E966F1200266E0D50F9EC08F001C068
:1014D00024F002C025F0000E276E2750040D100ED8
:1014E000F324016E000EF420026E275024240E6EA9
:1014F000000E25200F6E0EC0F6FF0FC0F7FF08008C
:10150000F5508AEC0BF0272A040E27648AEF0AF0C4
:101510008CEF0AF06DEF0AF0000E296E0C502924B2
:10152000076E265059EC10F0B5EC10F0000E286E46
:101530002850040D100E0E6E000E0F6EF3500E2686
:10154000F4500F2229500E24D96E000E0F20DA6EAF
:10155000DF50CAEC10F02850040D100E0E6E000E75
:101560000F6EF3500E26F4500F2229500E24D96E20
:10157000000E0F20DA6EDF50CAEC10F02850040D78
:10158000100E0E6E000E0F6EF3500E26F4500F224A
:1015900029500E24D96E000E0F20DA6EDF50CAECEF
:1015A00010F02850040D100E0E6E000E0F6EF3504A
:1015B0000E26F4500F2229500E24D96E000E0F2053
:1015C000DA6EDF50CAEC10F0282A040E2864EBEF24
:1015D0000AF0EDEF0AF098EF0AF0D2EC10F0292AA9
:1015E000030E2964F6EF0AF0F8EF0AF08EEF0AF026
:1015F00012000001AB51D8B400EF0BF002EF0BF07A
:1016000016EF0BF0AA51D8B408EF0BF00AEF0BF06D
:1016100016EF0BF0A651D8A410EF0BF012EF0BF061
:1016200016EF0BF0010EA86F34EF0BF0AB51D8A4FE
:101630001CEF0BF01EEF0BF02AEF0BF0AA51D8A411
:1016400024EF0BF026EF0BF02AEF0BF0000EA86F43
:1016500034EF0BF0A651D8B430EF0BF032EF0BF0B3
:1016600034EF0BF026EF0BF0A951D8B43AEF0BF0A2
:101670003CEF0BF03EEF0BF0010EA76FA851D8A482
:1016800044EF0BF048EF0BF0016A012A49EF0BF031
:10169000016A8B500118FE0B01188B6E0001A751D7
:1016A000D8A455EF0BF059EF0BF0016A012A5AEF5D
:1016B0000BF0016A01468B500118FD0B01188B6E6F
:1016C0000001A451D8B467EF0BF069EF0BF084EF81
:1016D0000BF03D50D8A46FEF0BF071EF0BF076EFED
:1016E0000BF0010E3D6E000E3E6E8A803E2A1D0EEE
:1016F0003E647DEF0BF07FEF0BF089EF0BF0000EF7
:101700003E6E8A7089EF0BF0000E3D6E000E3E6E4D
:101710008A901200056E01C0D9FF02C0DAFF000EE8
:10172000DF6E20EE01F00150D9260250DA22000EC1
:10173000DF6E20EE02F00150D9260250DA22000EB0
:10174000DF6E20EE03F00150D9260250DA22000E9F
:10175000DF6E000E0B6E060E0B64B1EF0BF0B3EFF5
:101760000BF0B5EF0BF0FBEF0BF00BC003F0010E2D
:10177000046E032ABEEF0BF0D8900436032EBCEFA4
:101780000BF0045005140009D8B4C9EF0BF0CBEFEF
:101790000BF0F8EF0BF00B50040DF3CF06F0000E3A
:1017A0000A6E06500A24096E0938E8461F0B076EB8
:1017B0000950070B086E08C003F0010E046E032ADF
:1017C000E4EF0BF0D8900436032EE2EF0BF0075055
:1017D0000124D96E000E0220DA6E0450DF120A2AAC
:1017E000030E0A64F6EF0BF0F8EF0BF0D1EF0BF0FD
:1017F0000B2AABEF0BF01200D890413680B003EF0C
:101800000CF006EF0CF0010E07EF0CF0000E411289
:101810004150D8A40EEF0CF010EF0CF015EF0CF0C7
:10182000000E0001AB6F20EF0CF04128D8A41BEF95
:101830000CF01DEF0CF020EF0CF0010E0001AB6F6F
:10184000D890403680B227EF0CF02AEF0CF0010E52
:101850002BEF0CF0000E40124050D8A432EF0CF0E9
:1018600034EF0CF039EF0CF0000E0001AA6F44EFDA
:101870000CF04028D8A43FEF0CF041EF0CF044EFFF
:101880000CF0010E0001AA6FD8903F3680B44BEFE8
:101890000CF04EEF0CF0010E4FEF0CF0000E3F126B
:1018A0003F50D8A456EF0CF058EF0CF05DEF0CF061
:1018B000000E0001A96F68EF0CF03F28D8A463EF79
:1018C0000CF065EF0CF068EF0CF0010E0001A96F51
:1018D0001200000E056E1E0E046E2EEC10F0AE0E01
:1018E0006AEC10F0200E6AEC10F0000E6AEC10F0BA
:1018F000B00E6AEC10F0200E6AEC10F0000E6AECEC
:1019000010F0B00E6AEC10F0C80E6AEC10F0000E89
:101910006AEC10F0100E6AEC10F0400E6AEC10F059
:10192000810E6AEC10F07F0E6AEC10F0A10E6AECEA
:1019300010F0A60E6AEC10F0A80E6AEC10F03F0E44
:101940006AEC10F0A40E6AEC10F0D30E6AEC10F002
:10195000000E6AEC10F0D50E6AEC10F0800E6AEC06
:1019600010F0D90E6AEC10F0F10E6AEC10F0DA0EFD
:101970006AEC10F0120E6AEC10F0DB0E6AEC10F05C
:10198000400E6AEC10F08D0E6AEC10F0140E6AEC4A
:1019900010F012002D6E2DC02FF015EF0DF02AC0A3
:1019A0000CF02BC0F6FF2CC0F7FF0800F5CF0DF0B0
:1019B0002F5063EC0AF02B4A2C2A2BC0F6FF2CC0C8
:1019C000F7FF0800F5500009D8B4E9EF0CF0EBEF91
:1019D0000CF012EF0DF0000E2E6E2A502E24076E22
:1019E0002F50140F59EC10F0B5EC10F0000ECAECAB
:1019F00010F0000ECAEC10F0000ECAEC10F0000E51
:101A0000CAEC10F0D2EC10F02E2A030E2E640BEF6D
:101A10000DF00DEF0DF0EDEF0CF02F50180F2F6EB5
:101A200015EF0DF02F50140F2F6E2BC0F6FF2CC0AA
:101A3000F7FF0800F5500009D8A421EF0DF023EFBF
:101A40000DF0CFEF0CF01200180E316E5C0E366EFA
:101A5000120E356E060E336EAE0E6AEC10F0CBEC45
:101A60000FF0020E2A6E9E0E2B6E060E2C6E120EBC
:101A7000CAEC0CF0060E076E120E59EC10F0B5EC25
:101A800010F0000E346E000ECAEC10F0342A3650FE
:101A9000345CD8A04EEF0DF050EF0DF043EF0DF099
:101AA000D2EC10F0AF0E6AEC10F0000E3A6E000EA1
:101AB000396E33C009F036C00AF0010E0B6E180EF5
:101AC0000C6E000E0E6E050E0D6E3550A4EC0EF071
:101AD000E80E395C030E3A58D8A071EF0DF073EFA1
:101AE0000DF068EF0DF0AE0E6AEC10F0CBEC0FF0DD
:101AF0001200000E126E000E136E000E146E000E19
:101B0000156E0E500F1010101110D8B48AEF0DF092
:101B10008CEF0DF0C2EF0DF0010E166E96EF0DF08A
:101B2000D8900E360F3610361136162A11AE9BEFAE
:101B30000DF09DEF0DF090EF0DF0D89012361336AA
:101B4000143615360E500A5C0F500B5810500C58B6
:101B500011500D58D8A0AFEF0DF0B1EF0DF0BAEF66
:101B60000DF00E500A5E0F500B5A10500C5A1150C7
:101B70000D5A1280D890113210320F320E32162EBA
:101B80009DEF0DF012C00AF013C00BF014C00CF062
:101B900015C00DF012000A6E0A50F9EC08F001C0F1
:101BA0000BF002C00CF00BC0F6FF0CC0F7FF0800F2
:101BB000F550CAEC10F0010E0B24086E000E0C203C
:101BC000096E08C0F6FF09C0F7FF0800F550CAEC1F
:101BD00010F0020E0B24086E000E0C20096E08C0D7
:101BE000F6FF09C0F7FF0800F550CAEC10F0030E2D
:101BF0000B24086E000E0C20096E08C0F6FF09C009
:101C0000F7FF0800F550CAEC10F0040E0B24086E24
:101C1000000E0C20096E08C0F6FF09C0F7FF08008F
:101C2000F550CAEC10F0000ECAEC10F01200176E5E
:101C3000000E1C6E11C018F012C019F023EF0EF048
:101C40001C2A184A192A18C0F6FF19C0F7FFF86AAB
:101C5000050EF76403D00800F55005D0F6CFE9FF74
:101C6000F7CFEAFFEF500009D8B439EF0EF03BEFA1
:101C70000EF043EF0EF0140E1C6441EF0EF043EF34
:101C80000EF020EF0EF01C50060DF3CF1AF0800E70
:101C9000136E000E146E1A50135E000E145AD89074
:101CA0001430166E1330156E15501B6E17C00DF0E4
:101CB00011C00EF012C00FF01B50E5EC0EF0120038
:101CC0000550061007100810D8B469EF0EF06BEF3E
:101CD0000EF09BEF0EF0010E096E75EF0EF0D8902E
:101CE0000536063607360836092A08AE7AEF0EF0B2
:101CF0007CEF0EF06FEF0EF00550015C06500258BD
:101D00000750035808500458D8A089EF0EF08BEF05
:101D10000EF093EF0EF00550015E0650025A075088
:101D2000035A0850045AD890083207320632053256
:101D3000092E7CEF0EF001C001F002C002F003C0DA
:101D400003F004C004F012000F6E000E126EDBEF01
:101D50000EF012500A5C116E11500C5CD8B0B3EF4B
:101D60000EF0B5EF0EF0B7EF0EF00CC011F009C099
:101D700007F00F50122459EC10F0B5EC10F0000EE3
:101D8000106EC7EF0EF00B50CAEC10F0102A115075
:101D9000105CD8A0CEEF0EF0D0EF0EF0C3EF0EF037
:101DA000D2EC10F012501124126E0DC004F00EC0CF
:101DB00005F02EEC10F00A50125CD8A0E2EF0EF005
:101DC000E4EF0EF0A9EF0EF01200106E0DC007F058
:101DD000105059EC10F0B5EC10F003EF0FF00EC0FE
:101DE000F6FF0FC0F7FFF86A050EF76403D008008E
:101DF000F55005D0F6CFE9FFF7CFEAFFEF50CBEC77
:101E00000DF00E4A0F2A0EC0F6FF0FC0F7FFF86A5A
:101E1000050EF76403D00800F55005D0F6CFE9FFB2
:101E2000F7CFEAFFEF500009D8A419EF0FF01BEF2E
:101E30000FF0EFEF0EF0D2EC10F012009BC004F0A8
:101E40009CC005F09DC006F09EC007F0000E026E1B
:101E5000000E016E04C003F010EC10F0000E026ED4
:101E6000010E016E05C003F010EC10F0000E026EC2
:101E7000020E016E06C003F010EC10F0000E026EB0
:101E8000030E016E07C003F010EC10F0000E026E9E
:101E9000040E016E5A0E036E10EC10F01200046E68
:101EA000000E056E04AE57EF0FF059EF0FF05CEF28
:101EB0000FF094885DEF0FF09498BEEC10F09486CC
:101EC000BEEC10F09496BEEC10F0D8900436052AC3
:101ED000070E05646EEF0FF070EF0FF052EF0FF08A
:101EE0009488BEEC10F09486BEEC10F0825094966C
:101EF000BEEC10F0120094EC10F0C4EC09F024ECED
:101F00000DF052EC03F0AF0E6AEC10F00001AD5191
:101F1000D8B48DEF0FF08FEF0FF095EF0FF0000EAC
:101F2000AD6FFCEC0BF0F9EC0AF00001AC51D8B449
:101F30009CEF0FF09EEF0FF086EF0FF0000EAC6FEE
:101F400013EC08F086EF0FF03DEF00F0BDEF0FF05F
:101F5000000E036E030E0364B0EF0FF0B2EF0FF04C
:101F6000B4EF0FF0A6EF0FF0032A030E0364BBEFEC
:101F70000FF0BDEF0FF0B4EF0FF00106D8A002068E
:101F8000012806E10228D8A4C8EF0FF0CAEF0FF02D
:101F9000A8EF0FF01200000E0A6E0AC007F0000E44
:101FA00059EC10F0B5EC10F0000E096E000ECAEC02
:101FB00010F0092A830E0964E0EF0FF0E2EF0FF052
:101FC000D6EF0FF0D2EC10F00A2A070E0A64EBEFFE
:101FD0000FF0EDEF0FF0CDEF0FF01200AA0EF66E3E
:101FE000210EF76E000EF86E0900F5CF3FF00900E4
:101FF000F5CF40F00900F5CF41F000EE93F01B0E55
:10200000EE6AE806FDE100EE37F0080EEE6AE8063B
:10201000FDE142904292000EF86E00017BEF0FF05E
:10202000A6B215EF10F017EF10F010EF10F001C08E
:10203000A9FF03C0A8FFA69EA69CA684F29E550EEB
:10204000A76EAA0EA76EA682F28EA6B22AEF10F095
:102050002CEF10F025EF10F0A694120036EF10F0E0
:10206000030E026EE80E016EA6EC0FF00406D8A077
:102070000506042806E10528D8A441EF10F043EF37
:1020800010F030EF10F01200000E0F01386F000E4C
:10209000396F000E3A6F928092829284949094925B
:1020A00093908B908B928A90948694888B968B9841
:1020B0001200086E0750070BB0096AEC10F00850C8
:1020C0000F0B6AEC10F008380F0B0F0B10096AECBD
:1020D00010F01200066EAAEC10F0780E4FEC0FF024
:1020E000000E4FEC0FF006504FEC0FF087EC10F0A5
:1020F0001200A6B27EEF10F080EF10F079EF10F032
:1021000001C0A9FFA69EA69CA680A8501200949686
:10211000BEEC10F09498BEEC10F09486BEEC10F07B
:102120009488BEEC10F01200CFEC10F044EC10F0EC
:10213000C5EC10F069EC0CF09FEC10F01200080EEA
:10214000D56EF00ED76E600ED66EF294F28AF28ED5
:10215000D58E120094889486BEEC10F09498BEEC54
:1021600010F09496BEEC10F01200AAEC10F0780E6D
:102170004FEC0FF0400E4FEC0FF01200000E026E0D
:10218000020E016EA6EC0FF01200948694888B96D6
:102190008B981200066E06504FEC0FF01200720E74
:1021A000D36E120087EC10F01200FFFFFF00FF005B
:020000040030CA
:0E000000FF081F3CFF9D81FF0FC00FE00F4067
:00000001FF
