:100000000428FF3FFF3FFF3F052883019E28003063
:10001000F7000030F6000030F5000030F4008312E5
:10002000851C1328142822281030F4070E300318DA
:100030000F30F507003003180130F60700300318C1
:100040000130F707051D2528262834283030F4070D
:100050002A3003182B30F507003003180130F6075B
:10006000003003180130F707051E372838284628C6
:100070008030F407703003187130F5070030031832
:100080000130F607003003180130F707851E4928B4
:100090004A285828C030F407A8300318A930F507BB
:1000A000003003180130F607003003180130F7075D
:1000B0007708760475047404031D5F286028682897
:1000C0000030F7000030F6000030F5000A30F40090
:1000D0007708F3007608F2007508F1007408F00064
:1000E00008007328D8200130F6000030F7000030F7
:1000F000F8000030F9007608F2027708031C770F49
:1001000082288328F3027808031C780F882889281E
:10011000F4027908031C790F8E288F28F502720AE1
:10012000031D9C28730A031D9C28740A031D9C2828
:10013000750A031D9C289D2872280800C0200720EE
:100140007308FD007208FC007108FB007008FA00DB
:10015000831205107D08F5007C08F4007B08F3008D
:100160007A08F2007120831205140030F500003087
:10017000F4000030F3000530F20071209F280428BD
:1001800083169F0107308312990083160F088F3959
:1001900060388F000F10FE308500831285018316B2
:1001A000811281110115811401148B120B110800A9
:1001B000F101831281010B110B1DDF28E028DC28DF
:1001C0000130F0007008F10710307102031CE928BB
:1001D000EA28D9280800FF3FFF3FFF3FFF3FFF3FCE
:02400E00C43FAD
:00000001FF
